{"contracts/FlashLoanArbitrageur.sol":{"FlashLoanArbitrageur":{"abi":[{"inputs":[{"internalType":"address","name":"_aavePool","type":"address"},{"internalType":"address","name":"_addressesProvider","type":"address"},{"internalType":"address","name":"_uniswapRouter","type":"address"},{"internalType":"address","name":"_sushiswapRouter","type":"address"}],"stateMutability":"nonpayable","type":"constructor"},{"anonymous":false,"inputs":[{"indexed":true,"internalType":"address","name":"initiator","type":"address"},{"indexed":false,"internalType":"address","name":"asset","type":"address"},{"indexed":false,"internalType":"uint256","name":"profit","type":"uint256"}],"name":"ArbitrageExecuted","type":"event"},{"anonymous":false,"inputs":[{"indexed":false,"internalType":"string","name":"message","type":"string"}],"name":"Debug","type":"event"},{"anonymous":false,"inputs":[{"indexed":true,"internalType":"address","name":"token","type":"address"},{"indexed":false,"internalType":"uint256","name":"amount","type":"uint256"}],"name":"Withdraw","type":"event"},{"inputs":[],"name":"ADDRESSES_PROVIDER","outputs":[{"internalType":"contract IPoolAddressesProvider","name":"","type":"address"}],"stateMutability":"view","type":"function"},{"inputs":[],"name":"POOL","outputs":[{"internalType":"contract IPool","name":"","type":"address"}],"stateMutability":"view","type":"function"},{"inputs":[],"name":"aavePool","outputs":[{"internalType":"contract IPool","name":"","type":"address"}],"stateMutability":"view","type":"function"},{"inputs":[],"name":"addressesProvider","outputs":[{"internalType":"contract IPoolAddressesProvider","name":"","type":"address"}],"stateMutability":"view","type":"function"},{"inputs":[{"internalType":"address","name":"asset","type":"address"},{"internalType":"uint256","name":"amount","type":"uint256"},{"internalType":"address","name":"tokenMid","type":"address"},{"internalType":"uint24","name":"fee1","type":"uint24"},{"internalType":"uint24","name":"fee2","type":"uint24"},{"internalType":"uint256","name":"minProfit","type":"uint256"},{"internalType":"uint8","name":"direction","type":"uint8"}],"name":"executeArbitrage","outputs":[],"stateMutability":"nonpayable","type":"function"},{"inputs":[{"internalType":"address","name":"asset","type":"address"},{"internalType":"uint256","name":"amount","type":"uint256"},{"internalType":"address[]","name":"path1","type":"address[]"},{"internalType":"address[]","name":"path2","type":"address[]"},{"internalType":"uint256","name":"minProfit","type":"uint256"}],"name":"executeArbitrage","outputs":[],"stateMutability":"nonpayable","type":"function"},{"inputs":[{"internalType":"address","name":"asset","type":"address"},{"internalType":"uint256","name":"amount","type":"uint256"},{"internalType":"uint256","name":"premium","type":"uint256"},{"internalType":"address","name":"initiator","type":"address"},{"internalType":"bytes","name":"params","type":"bytes"}],"name":"executeOperation","outputs":[{"internalType":"bool","name":"","type":"bool"}],"stateMutability":"nonpayable","type":"function"},{"inputs":[],"name":"owner","outputs":[{"internalType":"address","name":"","type":"address"}],"stateMutability":"view","type":"function"},{"inputs":[],"name":"sushiswapRouter","outputs":[{"internalType":"contract ISwapRouter","name":"","type":"address"}],"stateMutability":"view","type":"function"},{"inputs":[],"name":"uniswapRouter","outputs":[{"internalType":"contract ISwapRouter","name":"","type":"address"}],"stateMutability":"view","type":"function"},{"inputs":[{"internalType":"address","name":"token","type":"address"}],"name":"withdraw","outputs":[],"stateMutability":"nonpayable","type":"function"}],"evm":{"bytecode":{"linkReferences":{},"object":"6101003461010157601f610ec338819003918201601f19168301916001600160401b0383118484101761010657808492608094604052833981010312610101576100488161011c565b906100556020820161011c565b9161006e60606100676040850161011c565b930161011c565b600080546001600160a01b031916331790556001600160a01b0391821660805292811660a05290811660c0521660e052604051610d92908161013182396080518181816101a6015281816105130152818161066701526109de015260a05181610983015260c05181818161026c0152818161075f0152610884015260e05181818160b20152818161079d01526108bb0152f35b600080fd5b634e487b7160e01b600052604160045260246000fd5b51906001600160a01b03821682036101015756fe6040608081526004908136101561001557600080fd5b600091823560e01c9081630542975c1461096d5781631b11d0ff146105a35781633d9734271461042857816351cff8d91461029b578163735de9f7146102575781637535d246146100ea57839082638da5cb5b1461022f5782639a6ada73146100ef5750508063a03e4bc3146100ea578063c72c4d10146100e55763e9240c2d1461009f57600080fd5b346100e157816003193601126100e157517f00000000000000000000000000000000000000000000000000000000000000006001600160a01b03168152602090f35b5080fd5b61096d565b6109c8565b9150913461022b5760a036600319011261022b5761010b6109b2565b67ffffffffffffffff6044358181116102235761012b9036908601610a0d565b9091606435908111610227576101476101a49136908801610a0d565b88546001600160a01b039491610190916101649087163314610a3e565b61017d8951978894606060208701526080860191610b49565b90601f199485858403018b860152610b49565b608435606083015203908101845283610abc565b7f000000000000000000000000000000000000000000000000000000000000000016803b15610223576101f4948680948651978895869485936310ac2ddf60e21b85526024359130908601610ade565b03925af190811561021a57506102075750f35b61021090610aa8565b6102175780f35b80fd5b513d84823e3d90fd5b8580fd5b8680fd5b5050fd5b5082346100e157816003193601126100e157905490516001600160a01b039091168152602090f35b5050346100e157816003193601126100e157517f00000000000000000000000000000000000000000000000000000000000000006001600160a01b03168152602090f35b9190503461042457602080600319360112610420576102b86109b2565b84546001600160a01b0390811693916102d2338614610a3e565b16928151946370a0823160e01b865230818701528386602481885afa9586156104165787966103e2575b5085156103a957825163a9059cbb60e01b81526001600160a01b039092169082019081526020810186905290949190839086908190604001038189885af194851561039f577f884edad9ce6fa2440d8a54cc123490eb96d2768479d49ff9c7366125a94243649495610372575b5051908152a280f35b61039190843d8611610398575b6103898183610abc565b810190610bc5565b5038610369565b503d61037f565b81513d88823e3d90fd5b825162461bcd60e51b815290810184905260136024820152724e6f7468696e6720746f20776974686472617760681b6044820152606490fd5b9095508381813d831161040f575b6103fa8183610abc565b8101031261040a575194386102fc565b600080fd5b503d6103f0565b83513d89823e3d90fd5b8380fd5b8280fd5b8383346100e15760e03660031901126100e1576104436109b2565b6001600160a01b039190604435838116919082900361059f5760643562ffffff90818116809103610227576084359180831680930361059b5760c4359260ff8416809403610597579060ff93929161049f898b54163314610a3e565b818851936104ac85610a76565b888552602085019081528985019283526080606086019560a43587520195865289519860208a015251168888015251166060860152516080850152511660a083015260a0825260c082019382851067ffffffffffffffff86111761058457908592918585527f00000000000000000000000000000000000000000000000000000000000000001690813b15610420576310ac2ddf60e21b865285928391859160bf1991610563908290602435903060c48401610ade565b0301925af190811561021a5750610578575080f35b61058190610aa8565b80f35b634e487b7160e01b865260418752602486fd5b8880fd5b8780fd5b8480fd5b8284346102175760a0366003190112610217576105be6109b2565b6001600160a01b03936064358581169360248035949390928690036100e1576084359767ffffffffffffffff90818a11610420573660238b0112156104205789830135918211610420573685838c010111610420576016997f7cdb51e9dbbc205231228146c3246e7f914aa6d4a33170e43ecc8e3593481d1a60608b5160209d8e8083528201527529ba30b93a1032bc32b1baba32a7b832b930ba34b7b760511b8d820152a1817f000000000000000000000000000000000000000000000000000000000000000016330361092b573089036108e957848b8b51946106ac82601f19601f8401160187610abc565b8086528089838801950185378501015260a08380518101031261059f578951906106d582610a76565b5190828216918281036102275781526106ef8b8501610b92565b908c810191825261070260608601610b92565b918c82019280845260a06080880151976060850198895201519460ff86168087036108e5579260ff8d938f87946107d49b99978f60806107cc9d9b019a8b5250156000146108ae575061078391508885511662ffffff85511690877f0000000000000000000000000000000000000000000000000000000000000000610bdd565b955b511661087157506107c19462ffffff915116925116917f0000000000000000000000000000000000000000000000000000000000000000610bdd565b975b60443590610ba2565b915182610ba2565b861061083b57850394851161082b57505084516001600160a01b039290921682525060208101919091527f546205492ce144edebd2cc39035c50dbd9aebfec90cbcae9c9ae2914d1e130f790604090a25160018152f35b634e487b7160e01b825260119052fd5b875162461bcd60e51b81528083018a905260118186015270139bdd08195b9bdd59da081c1c9bd99a5d607a1b6044820152606490fd5b92506108a89462ffffff915116925116917f0000000000000000000000000000000000000000000000000000000000000000610bdd565b976107c3565b62ffffff6108df931690877f0000000000000000000000000000000000000000000000000000000000000000610bdd565b95610785565b8a80fd5b895162461bcd60e51b81528085018c90526019818801527f4e6f7420696e6974696174656420627920636f6e7472616374000000000000006044820152606490fd5b895162461bcd60e51b81528085018c90526017818801527f4f6e6c79204161766520706f6f6c2063616e2063616c6c0000000000000000006044820152606490fd5b3461040a57600036600319011261040a576040517f00000000000000000000000000000000000000000000000000000000000000006001600160a01b03168152602090f35b600435906001600160a01b038216820361040a57565b3461040a57600036600319011261040a576040517f00000000000000000000000000000000000000000000000000000000000000006001600160a01b03168152602090f35b9181601f8401121561040a5782359167ffffffffffffffff831161040a576020808501948460051b01011161040a57565b15610a4557565b60405162461bcd60e51b81526020600482015260096024820152682737ba1037bbb732b960b91b6044820152606490fd5b60a0810190811067ffffffffffffffff821117610a9257604052565b634e487b7160e01b600052604160045260246000fd5b67ffffffffffffffff8111610a9257604052565b90601f8019910116810190811067ffffffffffffffff821117610a9257604052565b9493929060018060a01b0380911686526020921682860152604085015260a060608501528151918260a086015260005b838110610b3557505050608060c082600082819588010152601f8019910116850101930152565b81810183015186820160c001528201610b0e565b9190808252602080920192916000805b838210610b6857505050505090565b9091929394853560018060a01b038116809103610424578152830194830193929160010190610b59565b519062ffffff8216820361040a57565b91908201809211610baf57565b634e487b7160e01b600052601160045260246000fd5b9081602091031261040a5751801515810361040a5790565b6040805163095ea7b360e01b81526001600160a01b03928316600482018190526024820188905291969493909216916020816044816000875af18015610d5157610d32575b5085519061010082019082821067ffffffffffffffff831117610a92579087529181526001600160a01b03928316602082810191825262ffffff9687168389019081523060608501908152426080860190815260a08601988952600060c0870181815260e088018281528d5163414bf38960e01b815298518b1660048a015296518a1660248901529351909a166044870152905187166064860152516084850152955160a4840152945160c48301525190921660e4830152909283916101049183915af1918215610d285750600091610cf9575090565b90506020813d602011610d20575b81610d1460209383610abc565b8101031261040a575190565b3d9150610d07565b513d6000823e3d90fd5b610d4a9060203d602011610398576103898183610abc565b5038610c22565b87513d6000823e3d90fdfea26469706673582212200aab13fd99e16b41f18c89db9ca23a0961f6034ffe728d82464fe4b851ee0e3664736f6c63430008140033","opcodes":"PUSH2 0x100 CALLVALUE PUSH2 0x101 JUMPI PUSH1 0x1F PUSH2 0xEC3 CODESIZE DUP2 SWAP1 SUB SWAP2 DUP3 ADD PUSH1 0x1F NOT AND DUP4 ADD SWAP2 PUSH1 0x1 PUSH1 0x1 PUSH1 0x40 SHL SUB DUP4 GT DUP5 DUP5 LT OR PUSH2 0x106 JUMPI DUP1 DUP5 SWAP3 PUSH1 0x80 SWAP5 PUSH1 0x40 MSTORE DUP4 CODECOPY DUP2 ADD SUB SLT PUSH2 0x101 JUMPI PUSH2 0x48 DUP2 PUSH2 0x11C JUMP JUMPDEST SWAP1 PUSH2 0x55 PUSH1 0x20 DUP3 ADD PUSH2 0x11C JUMP JUMPDEST SWAP2 PUSH2 0x6E PUSH1 0x60 PUSH2 0x67 PUSH1 0x40 DUP6 ADD PUSH2 0x11C JUMP JUMPDEST SWAP4 ADD PUSH2 0x11C JUMP JUMPDEST PUSH1 0x0 DUP1 SLOAD PUSH1 0x1 PUSH1 0x1 PUSH1 0xA0 SHL SUB NOT AND CALLER OR SWAP1 SSTORE PUSH1 0x1 PUSH1 0x1 PUSH1 0xA0 SHL SUB SWAP2 DUP3 AND PUSH1 0x80 MSTORE SWAP3 DUP2 AND PUSH1 0xA0 MSTORE SWAP1 DUP2 AND PUSH1 0xC0 MSTORE AND PUSH1 0xE0 MSTORE PUSH1 0x40 MLOAD PUSH2 0xD92 SWAP1 DUP2 PUSH2 0x131 DUP3 CODECOPY PUSH1 0x80 MLOAD DUP2 DUP2 DUP2 PUSH2 0x1A6 ADD MSTORE DUP2 DUP2 PUSH2 0x513 ADD MSTORE DUP2 DUP2 PUSH2 0x667 ADD MSTORE PUSH2 0x9DE ADD MSTORE PUSH1 0xA0 MLOAD DUP2 PUSH2 0x983 ADD MSTORE PUSH1 0xC0 MLOAD DUP2 DUP2 DUP2 PUSH2 0x26C ADD MSTORE DUP2 DUP2 PUSH2 0x75F ADD MSTORE PUSH2 0x884 ADD MSTORE PUSH1 0xE0 MLOAD DUP2 DUP2 DUP2 PUSH1 0xB2 ADD MSTORE DUP2 DUP2 PUSH2 0x79D ADD MSTORE PUSH2 0x8BB ADD MSTORE RETURN JUMPDEST PUSH1 0x0 DUP1 REVERT JUMPDEST PUSH4 0x4E487B71 PUSH1 0xE0 SHL PUSH1 0x0 MSTORE PUSH1 0x41 PUSH1 0x4 MSTORE PUSH1 0x24 PUSH1 0x0 REVERT JUMPDEST MLOAD SWAP1 PUSH1 0x1 PUSH1 0x1 PUSH1 0xA0 SHL SUB DUP3 AND DUP3 SUB PUSH2 0x101 JUMPI JUMP INVALID PUSH1 0x40 PUSH1 0x80 DUP2 MSTORE PUSH1 0x4 SWAP1 DUP2 CALLDATASIZE LT ISZERO PUSH2 0x15 JUMPI PUSH1 0x0 DUP1 REVERT JUMPDEST PUSH1 0x0 SWAP2 DUP3 CALLDATALOAD PUSH1 0xE0 SHR SWAP1 DUP2 PUSH4 0x542975C EQ PUSH2 0x96D JUMPI DUP2 PUSH4 0x1B11D0FF EQ PUSH2 0x5A3 JUMPI DUP2 PUSH4 0x3D973427 EQ PUSH2 0x428 JUMPI DUP2 PUSH4 0x51CFF8D9 EQ PUSH2 0x29B JUMPI DUP2 PUSH4 0x735DE9F7 EQ PUSH2 0x257 JUMPI DUP2 PUSH4 0x7535D246 EQ PUSH2 0xEA JUMPI DUP4 SWAP1 DUP3 PUSH4 0x8DA5CB5B EQ PUSH2 0x22F JUMPI DUP3 PUSH4 0x9A6ADA73 EQ PUSH2 0xEF JUMPI POP POP DUP1 PUSH4 0xA03E4BC3 EQ PUSH2 0xEA JUMPI DUP1 PUSH4 0xC72C4D10 EQ PUSH2 0xE5 JUMPI PUSH4 0xE9240C2D EQ PUSH2 0x9F JUMPI PUSH1 0x0 DUP1 REVERT JUMPDEST CALLVALUE PUSH2 0xE1 JUMPI DUP2 PUSH1 0x3 NOT CALLDATASIZE ADD SLT PUSH2 0xE1 JUMPI MLOAD PUSH32 0x0 PUSH1 0x1 PUSH1 0x1 PUSH1 0xA0 SHL SUB AND DUP2 MSTORE PUSH1 0x20 SWAP1 RETURN JUMPDEST POP DUP1 REVERT JUMPDEST PUSH2 0x96D JUMP JUMPDEST PUSH2 0x9C8 JUMP JUMPDEST SWAP2 POP SWAP2 CALLVALUE PUSH2 0x22B JUMPI PUSH1 0xA0 CALLDATASIZE PUSH1 0x3 NOT ADD SLT PUSH2 0x22B JUMPI PUSH2 0x10B PUSH2 0x9B2 JUMP JUMPDEST PUSH8 0xFFFFFFFFFFFFFFFF PUSH1 0x44 CALLDATALOAD DUP2 DUP2 GT PUSH2 0x223 JUMPI PUSH2 0x12B SWAP1 CALLDATASIZE SWAP1 DUP7 ADD PUSH2 0xA0D JUMP JUMPDEST SWAP1 SWAP2 PUSH1 0x64 CALLDATALOAD SWAP1 DUP2 GT PUSH2 0x227 JUMPI PUSH2 0x147 PUSH2 0x1A4 SWAP2 CALLDATASIZE SWAP1 DUP9 ADD PUSH2 0xA0D JUMP JUMPDEST DUP9 SLOAD PUSH1 0x1 PUSH1 0x1 PUSH1 0xA0 SHL SUB SWAP5 SWAP2 PUSH2 0x190 SWAP2 PUSH2 0x164 SWAP1 DUP8 AND CALLER EQ PUSH2 0xA3E JUMP JUMPDEST PUSH2 0x17D DUP10 MLOAD SWAP8 DUP9 SWAP5 PUSH1 0x60 PUSH1 0x20 DUP8 ADD MSTORE PUSH1 0x80 DUP7 ADD SWAP2 PUSH2 0xB49 JUMP JUMPDEST SWAP1 PUSH1 0x1F NOT SWAP5 DUP6 DUP6 DUP5 SUB ADD DUP12 DUP7 ADD MSTORE PUSH2 0xB49 JUMP JUMPDEST PUSH1 0x84 CALLDATALOAD PUSH1 0x60 DUP4 ADD MSTORE SUB SWAP1 DUP2 ADD DUP5 MSTORE DUP4 PUSH2 0xABC JUMP JUMPDEST PUSH32 0x0 AND DUP1 EXTCODESIZE ISZERO PUSH2 0x223 JUMPI PUSH2 0x1F4 SWAP5 DUP7 DUP1 SWAP5 DUP7 MLOAD SWAP8 DUP9 SWAP6 DUP7 SWAP5 DUP6 SWAP4 PUSH4 0x10AC2DDF PUSH1 0xE2 SHL DUP6 MSTORE PUSH1 0x24 CALLDATALOAD SWAP2 ADDRESS SWAP1 DUP7 ADD PUSH2 0xADE JUMP JUMPDEST SUB SWAP3 GAS CALL SWAP1 DUP2 ISZERO PUSH2 0x21A JUMPI POP PUSH2 0x207 JUMPI POP RETURN JUMPDEST PUSH2 0x210 SWAP1 PUSH2 0xAA8 JUMP JUMPDEST PUSH2 0x217 JUMPI DUP1 RETURN JUMPDEST DUP1 REVERT JUMPDEST MLOAD RETURNDATASIZE DUP5 DUP3 RETURNDATACOPY RETURNDATASIZE SWAP1 REVERT JUMPDEST DUP6 DUP1 REVERT JUMPDEST DUP7 DUP1 REVERT JUMPDEST POP POP REVERT JUMPDEST POP DUP3 CALLVALUE PUSH2 0xE1 JUMPI DUP2 PUSH1 0x3 NOT CALLDATASIZE ADD SLT PUSH2 0xE1 JUMPI SWAP1 SLOAD SWAP1 MLOAD PUSH1 0x1 PUSH1 0x1 PUSH1 0xA0 SHL SUB SWAP1 SWAP2 AND DUP2 MSTORE PUSH1 0x20 SWAP1 RETURN JUMPDEST POP POP CALLVALUE PUSH2 0xE1 JUMPI DUP2 PUSH1 0x3 NOT CALLDATASIZE ADD SLT PUSH2 0xE1 JUMPI MLOAD PUSH32 0x0 PUSH1 0x1 PUSH1 0x1 PUSH1 0xA0 SHL SUB AND DUP2 MSTORE PUSH1 0x20 SWAP1 RETURN JUMPDEST SWAP2 SWAP1 POP CALLVALUE PUSH2 0x424 JUMPI PUSH1 0x20 DUP1 PUSH1 0x3 NOT CALLDATASIZE ADD SLT PUSH2 0x420 JUMPI PUSH2 0x2B8 PUSH2 0x9B2 JUMP JUMPDEST DUP5 SLOAD PUSH1 0x1 PUSH1 0x1 PUSH1 0xA0 SHL SUB SWAP1 DUP2 AND SWAP4 SWAP2 PUSH2 0x2D2 CALLER DUP7 EQ PUSH2 0xA3E JUMP JUMPDEST AND SWAP3 DUP2 MLOAD SWAP5 PUSH4 0x70A08231 PUSH1 0xE0 SHL DUP7 MSTORE ADDRESS DUP2 DUP8 ADD MSTORE DUP4 DUP7 PUSH1 0x24 DUP2 DUP9 GAS STATICCALL SWAP6 DUP7 ISZERO PUSH2 0x416 JUMPI DUP8 SWAP7 PUSH2 0x3E2 JUMPI JUMPDEST POP DUP6 ISZERO PUSH2 0x3A9 JUMPI DUP3 MLOAD PUSH4 0xA9059CBB PUSH1 0xE0 SHL DUP2 MSTORE PUSH1 0x1 PUSH1 0x1 PUSH1 0xA0 SHL SUB SWAP1 SWAP3 AND SWAP1 DUP3 ADD SWAP1 DUP2 MSTORE PUSH1 0x20 DUP2 ADD DUP7 SWAP1 MSTORE SWAP1 SWAP5 SWAP2 SWAP1 DUP4 SWAP1 DUP7 SWAP1 DUP2 SWAP1 PUSH1 0x40 ADD SUB DUP2 DUP10 DUP9 GAS CALL SWAP5 DUP6 ISZERO PUSH2 0x39F JUMPI PUSH32 0x884EDAD9CE6FA2440D8A54CC123490EB96D2768479D49FF9C7366125A9424364 SWAP5 SWAP6 PUSH2 0x372 JUMPI JUMPDEST POP MLOAD SWAP1 DUP2 MSTORE LOG2 DUP1 RETURN JUMPDEST PUSH2 0x391 SWAP1 DUP5 RETURNDATASIZE DUP7 GT PUSH2 0x398 JUMPI JUMPDEST PUSH2 0x389 DUP2 DUP4 PUSH2 0xABC JUMP JUMPDEST DUP2 ADD SWAP1 PUSH2 0xBC5 JUMP JUMPDEST POP CODESIZE PUSH2 0x369 JUMP JUMPDEST POP RETURNDATASIZE PUSH2 0x37F JUMP JUMPDEST DUP2 MLOAD RETURNDATASIZE DUP9 DUP3 RETURNDATACOPY RETURNDATASIZE SWAP1 REVERT JUMPDEST DUP3 MLOAD PUSH3 0x461BCD PUSH1 0xE5 SHL DUP2 MSTORE SWAP1 DUP2 ADD DUP5 SWAP1 MSTORE PUSH1 0x13 PUSH1 0x24 DUP3 ADD MSTORE PUSH19 0x4E6F7468696E6720746F207769746864726177 PUSH1 0x68 SHL PUSH1 0x44 DUP3 ADD MSTORE PUSH1 0x64 SWAP1 REVERT JUMPDEST SWAP1 SWAP6 POP DUP4 DUP2 DUP2 RETURNDATASIZE DUP4 GT PUSH2 0x40F JUMPI JUMPDEST PUSH2 0x3FA DUP2 DUP4 PUSH2 0xABC JUMP JUMPDEST DUP2 ADD SUB SLT PUSH2 0x40A JUMPI MLOAD SWAP5 CODESIZE PUSH2 0x2FC JUMP JUMPDEST PUSH1 0x0 DUP1 REVERT JUMPDEST POP RETURNDATASIZE PUSH2 0x3F0 JUMP JUMPDEST DUP4 MLOAD RETURNDATASIZE DUP10 DUP3 RETURNDATACOPY RETURNDATASIZE SWAP1 REVERT JUMPDEST DUP4 DUP1 REVERT JUMPDEST DUP3 DUP1 REVERT JUMPDEST DUP4 DUP4 CALLVALUE PUSH2 0xE1 JUMPI PUSH1 0xE0 CALLDATASIZE PUSH1 0x3 NOT ADD SLT PUSH2 0xE1 JUMPI PUSH2 0x443 PUSH2 0x9B2 JUMP JUMPDEST PUSH1 0x1 PUSH1 0x1 PUSH1 0xA0 SHL SUB SWAP2 SWAP1 PUSH1 0x44 CALLDATALOAD DUP4 DUP2 AND SWAP2 SWAP1 DUP3 SWAP1 SUB PUSH2 0x59F JUMPI PUSH1 0x64 CALLDATALOAD PUSH3 0xFFFFFF SWAP1 DUP2 DUP2 AND DUP1 SWAP2 SUB PUSH2 0x227 JUMPI PUSH1 0x84 CALLDATALOAD SWAP2 DUP1 DUP4 AND DUP1 SWAP4 SUB PUSH2 0x59B JUMPI PUSH1 0xC4 CALLDATALOAD SWAP3 PUSH1 0xFF DUP5 AND DUP1 SWAP5 SUB PUSH2 0x597 JUMPI SWAP1 PUSH1 0xFF SWAP4 SWAP3 SWAP2 PUSH2 0x49F DUP10 DUP12 SLOAD AND CALLER EQ PUSH2 0xA3E JUMP JUMPDEST DUP2 DUP9 MLOAD SWAP4 PUSH2 0x4AC DUP6 PUSH2 0xA76 JUMP JUMPDEST DUP9 DUP6 MSTORE PUSH1 0x20 DUP6 ADD SWAP1 DUP2 MSTORE DUP10 DUP6 ADD SWAP3 DUP4 MSTORE PUSH1 0x80 PUSH1 0x60 DUP7 ADD SWAP6 PUSH1 0xA4 CALLDATALOAD DUP8 MSTORE ADD SWAP6 DUP7 MSTORE DUP10 MLOAD SWAP9 PUSH1 0x20 DUP11 ADD MSTORE MLOAD AND DUP9 DUP9 ADD MSTORE MLOAD AND PUSH1 0x60 DUP7 ADD MSTORE MLOAD PUSH1 0x80 DUP6 ADD MSTORE MLOAD AND PUSH1 0xA0 DUP4 ADD MSTORE PUSH1 0xA0 DUP3 MSTORE PUSH1 0xC0 DUP3 ADD SWAP4 DUP3 DUP6 LT PUSH8 0xFFFFFFFFFFFFFFFF DUP7 GT OR PUSH2 0x584 JUMPI SWAP1 DUP6 SWAP3 SWAP2 DUP6 DUP6 MSTORE PUSH32 0x0 AND SWAP1 DUP2 EXTCODESIZE ISZERO PUSH2 0x420 JUMPI PUSH4 0x10AC2DDF PUSH1 0xE2 SHL DUP7 MSTORE DUP6 SWAP3 DUP4 SWAP2 DUP6 SWAP2 PUSH1 0xBF NOT SWAP2 PUSH2 0x563 SWAP1 DUP3 SWAP1 PUSH1 0x24 CALLDATALOAD SWAP1 ADDRESS PUSH1 0xC4 DUP5 ADD PUSH2 0xADE JUMP JUMPDEST SUB ADD SWAP3 GAS CALL SWAP1 DUP2 ISZERO PUSH2 0x21A JUMPI POP PUSH2 0x578 JUMPI POP DUP1 RETURN JUMPDEST PUSH2 0x581 SWAP1 PUSH2 0xAA8 JUMP JUMPDEST DUP1 RETURN JUMPDEST PUSH4 0x4E487B71 PUSH1 0xE0 SHL DUP7 MSTORE PUSH1 0x41 DUP8 MSTORE PUSH1 0x24 DUP7 REVERT JUMPDEST DUP9 DUP1 REVERT JUMPDEST DUP8 DUP1 REVERT JUMPDEST DUP5 DUP1 REVERT JUMPDEST DUP3 DUP5 CALLVALUE PUSH2 0x217 JUMPI PUSH1 0xA0 CALLDATASIZE PUSH1 0x3 NOT ADD SLT PUSH2 0x217 JUMPI PUSH2 0x5BE PUSH2 0x9B2 JUMP JUMPDEST PUSH1 0x1 PUSH1 0x1 PUSH1 0xA0 SHL SUB SWAP4 PUSH1 0x64 CALLDATALOAD DUP6 DUP2 AND SWAP4 PUSH1 0x24 DUP1 CALLDATALOAD SWAP5 SWAP4 SWAP1 SWAP3 DUP7 SWAP1 SUB PUSH2 0xE1 JUMPI PUSH1 0x84 CALLDATALOAD SWAP8 PUSH8 0xFFFFFFFFFFFFFFFF SWAP1 DUP2 DUP11 GT PUSH2 0x420 JUMPI CALLDATASIZE PUSH1 0x23 DUP12 ADD SLT ISZERO PUSH2 0x420 JUMPI DUP10 DUP4 ADD CALLDATALOAD SWAP2 DUP3 GT PUSH2 0x420 JUMPI CALLDATASIZE DUP6 DUP4 DUP13 ADD ADD GT PUSH2 0x420 JUMPI PUSH1 0x16 SWAP10 PUSH32 0x7CDB51E9DBBC205231228146C3246E7F914AA6D4A33170E43ECC8E3593481D1A PUSH1 0x60 DUP12 MLOAD PUSH1 0x20 SWAP14 DUP15 DUP1 DUP4 MSTORE DUP3 ADD MSTORE PUSH22 0x29BA30B93A1032BC32B1BABA32A7B832B930BA34B7B7 PUSH1 0x51 SHL DUP14 DUP3 ADD MSTORE LOG1 DUP2 PUSH32 0x0 AND CALLER SUB PUSH2 0x92B JUMPI ADDRESS DUP10 SUB PUSH2 0x8E9 JUMPI DUP5 DUP12 DUP12 MLOAD SWAP5 PUSH2 0x6AC DUP3 PUSH1 0x1F NOT PUSH1 0x1F DUP5 ADD AND ADD DUP8 PUSH2 0xABC JUMP JUMPDEST DUP1 DUP7 MSTORE DUP1 DUP10 DUP4 DUP9 ADD SWAP6 ADD DUP6 CALLDATACOPY DUP6 ADD ADD MSTORE PUSH1 0xA0 DUP4 DUP1 MLOAD DUP2 ADD SUB SLT PUSH2 0x59F JUMPI DUP10 MLOAD SWAP1 PUSH2 0x6D5 DUP3 PUSH2 0xA76 JUMP JUMPDEST MLOAD SWAP1 DUP3 DUP3 AND SWAP2 DUP3 DUP2 SUB PUSH2 0x227 JUMPI DUP2 MSTORE PUSH2 0x6EF DUP12 DUP6 ADD PUSH2 0xB92 JUMP JUMPDEST SWAP1 DUP13 DUP2 ADD SWAP2 DUP3 MSTORE PUSH2 0x702 PUSH1 0x60 DUP7 ADD PUSH2 0xB92 JUMP JUMPDEST SWAP2 DUP13 DUP3 ADD SWAP3 DUP1 DUP5 MSTORE PUSH1 0xA0 PUSH1 0x80 DUP9 ADD MLOAD SWAP8 PUSH1 0x60 DUP6 ADD SWAP9 DUP10 MSTORE ADD MLOAD SWAP5 PUSH1 0xFF DUP7 AND DUP1 DUP8 SUB PUSH2 0x8E5 JUMPI SWAP3 PUSH1 0xFF DUP14 SWAP4 DUP16 DUP8 SWAP5 PUSH2 0x7D4 SWAP12 SWAP10 SWAP8 DUP16 PUSH1 0x80 PUSH2 0x7CC SWAP14 SWAP12 ADD SWAP11 DUP12 MSTORE POP ISZERO PUSH1 0x0 EQ PUSH2 0x8AE JUMPI POP PUSH2 0x783 SWAP2 POP DUP9 DUP6 MLOAD AND PUSH3 0xFFFFFF DUP6 MLOAD AND SWAP1 DUP8 PUSH32 0x0 PUSH2 0xBDD JUMP JUMPDEST SWAP6 JUMPDEST MLOAD AND PUSH2 0x871 JUMPI POP PUSH2 0x7C1 SWAP5 PUSH3 0xFFFFFF SWAP2 MLOAD AND SWAP3 MLOAD AND SWAP2 PUSH32 0x0 PUSH2 0xBDD JUMP JUMPDEST SWAP8 JUMPDEST PUSH1 0x44 CALLDATALOAD SWAP1 PUSH2 0xBA2 JUMP JUMPDEST SWAP2 MLOAD DUP3 PUSH2 0xBA2 JUMP JUMPDEST DUP7 LT PUSH2 0x83B JUMPI DUP6 SUB SWAP5 DUP6 GT PUSH2 0x82B JUMPI POP POP DUP5 MLOAD PUSH1 0x1 PUSH1 0x1 PUSH1 0xA0 SHL SUB SWAP3 SWAP1 SWAP3 AND DUP3 MSTORE POP PUSH1 0x20 DUP2 ADD SWAP2 SWAP1 SWAP2 MSTORE PUSH32 0x546205492CE144EDEBD2CC39035C50DBD9AEBFEC90CBCAE9C9AE2914D1E130F7 SWAP1 PUSH1 0x40 SWAP1 LOG2 MLOAD PUSH1 0x1 DUP2 MSTORE RETURN JUMPDEST PUSH4 0x4E487B71 PUSH1 0xE0 SHL DUP3 MSTORE PUSH1 0x11 SWAP1 MSTORE REVERT JUMPDEST DUP8 MLOAD PUSH3 0x461BCD PUSH1 0xE5 SHL DUP2 MSTORE DUP1 DUP4 ADD DUP11 SWAP1 MSTORE PUSH1 0x11 DUP2 DUP7 ADD MSTORE PUSH17 0x139BDD08195B9BDD59DA081C1C9BD99A5D PUSH1 0x7A SHL PUSH1 0x44 DUP3 ADD MSTORE PUSH1 0x64 SWAP1 REVERT JUMPDEST SWAP3 POP PUSH2 0x8A8 SWAP5 PUSH3 0xFFFFFF SWAP2 MLOAD AND SWAP3 MLOAD AND SWAP2 PUSH32 0x0 PUSH2 0xBDD JUMP JUMPDEST SWAP8 PUSH2 0x7C3 JUMP JUMPDEST PUSH3 0xFFFFFF PUSH2 0x8DF SWAP4 AND SWAP1 DUP8 PUSH32 0x0 PUSH2 0xBDD JUMP JUMPDEST SWAP6 PUSH2 0x785 JUMP JUMPDEST DUP11 DUP1 REVERT JUMPDEST DUP10 MLOAD PUSH3 0x461BCD PUSH1 0xE5 SHL DUP2 MSTORE DUP1 DUP6 ADD DUP13 SWAP1 MSTORE PUSH1 0x19 DUP2 DUP9 ADD MSTORE PUSH32 0x4E6F7420696E6974696174656420627920636F6E747261637400000000000000 PUSH1 0x44 DUP3 ADD MSTORE PUSH1 0x64 SWAP1 REVERT JUMPDEST DUP10 MLOAD PUSH3 0x461BCD PUSH1 0xE5 SHL DUP2 MSTORE DUP1 DUP6 ADD DUP13 SWAP1 MSTORE PUSH1 0x17 DUP2 DUP9 ADD MSTORE PUSH32 0x4F6E6C79204161766520706F6F6C2063616E2063616C6C000000000000000000 PUSH1 0x44 DUP3 ADD MSTORE PUSH1 0x64 SWAP1 REVERT JUMPDEST CALLVALUE PUSH2 0x40A JUMPI PUSH1 0x0 CALLDATASIZE PUSH1 0x3 NOT ADD SLT PUSH2 0x40A JUMPI PUSH1 0x40 MLOAD PUSH32 0x0 PUSH1 0x1 PUSH1 0x1 PUSH1 0xA0 SHL SUB AND DUP2 MSTORE PUSH1 0x20 SWAP1 RETURN JUMPDEST PUSH1 0x4 CALLDATALOAD SWAP1 PUSH1 0x1 PUSH1 0x1 PUSH1 0xA0 SHL SUB DUP3 AND DUP3 SUB PUSH2 0x40A JUMPI JUMP JUMPDEST CALLVALUE PUSH2 0x40A JUMPI PUSH1 0x0 CALLDATASIZE PUSH1 0x3 NOT ADD SLT PUSH2 0x40A JUMPI PUSH1 0x40 MLOAD PUSH32 0x0 PUSH1 0x1 PUSH1 0x1 PUSH1 0xA0 SHL SUB AND DUP2 MSTORE PUSH1 0x20 SWAP1 RETURN JUMPDEST SWAP2 DUP2 PUSH1 0x1F DUP5 ADD SLT ISZERO PUSH2 0x40A JUMPI DUP3 CALLDATALOAD SWAP2 PUSH8 0xFFFFFFFFFFFFFFFF DUP4 GT PUSH2 0x40A JUMPI PUSH1 0x20 DUP1 DUP6 ADD SWAP5 DUP5 PUSH1 0x5 SHL ADD ADD GT PUSH2 0x40A JUMPI JUMP JUMPDEST ISZERO PUSH2 0xA45 JUMPI JUMP JUMPDEST PUSH1 0x40 MLOAD PUSH3 0x461BCD PUSH1 0xE5 SHL DUP2 MSTORE PUSH1 0x20 PUSH1 0x4 DUP3 ADD MSTORE PUSH1 0x9 PUSH1 0x24 DUP3 ADD MSTORE PUSH9 0x2737BA1037BBB732B9 PUSH1 0xB9 SHL PUSH1 0x44 DUP3 ADD MSTORE PUSH1 0x64 SWAP1 REVERT JUMPDEST PUSH1 0xA0 DUP2 ADD SWAP1 DUP2 LT PUSH8 0xFFFFFFFFFFFFFFFF DUP3 GT OR PUSH2 0xA92 JUMPI PUSH1 0x40 MSTORE JUMP JUMPDEST PUSH4 0x4E487B71 PUSH1 0xE0 SHL PUSH1 0x0 MSTORE PUSH1 0x41 PUSH1 0x4 MSTORE PUSH1 0x24 PUSH1 0x0 REVERT JUMPDEST PUSH8 0xFFFFFFFFFFFFFFFF DUP2 GT PUSH2 0xA92 JUMPI PUSH1 0x40 MSTORE JUMP JUMPDEST SWAP1 PUSH1 0x1F DUP1 NOT SWAP2 ADD AND DUP2 ADD SWAP1 DUP2 LT PUSH8 0xFFFFFFFFFFFFFFFF DUP3 GT OR PUSH2 0xA92 JUMPI PUSH1 0x40 MSTORE JUMP JUMPDEST SWAP5 SWAP4 SWAP3 SWAP1 PUSH1 0x1 DUP1 PUSH1 0xA0 SHL SUB DUP1 SWAP2 AND DUP7 MSTORE PUSH1 0x20 SWAP3 AND DUP3 DUP7 ADD MSTORE PUSH1 0x40 DUP6 ADD MSTORE PUSH1 0xA0 PUSH1 0x60 DUP6 ADD MSTORE DUP2 MLOAD SWAP2 DUP3 PUSH1 0xA0 DUP7 ADD MSTORE PUSH1 0x0 JUMPDEST DUP4 DUP2 LT PUSH2 0xB35 JUMPI POP POP POP PUSH1 0x80 PUSH1 0xC0 DUP3 PUSH1 0x0 DUP3 DUP2 SWAP6 DUP9 ADD ADD MSTORE PUSH1 0x1F DUP1 NOT SWAP2 ADD AND DUP6 ADD ADD SWAP4 ADD MSTORE JUMP JUMPDEST DUP2 DUP2 ADD DUP4 ADD MLOAD DUP7 DUP3 ADD PUSH1 0xC0 ADD MSTORE DUP3 ADD PUSH2 0xB0E JUMP JUMPDEST SWAP2 SWAP1 DUP1 DUP3 MSTORE PUSH1 0x20 DUP1 SWAP3 ADD SWAP3 SWAP2 PUSH1 0x0 DUP1 JUMPDEST DUP4 DUP3 LT PUSH2 0xB68 JUMPI POP POP POP POP POP SWAP1 JUMP JUMPDEST SWAP1 SWAP2 SWAP3 SWAP4 SWAP5 DUP6 CALLDATALOAD PUSH1 0x1 DUP1 PUSH1 0xA0 SHL SUB DUP2 AND DUP1 SWAP2 SUB PUSH2 0x424 JUMPI DUP2 MSTORE DUP4 ADD SWAP5 DUP4 ADD SWAP4 SWAP3 SWAP2 PUSH1 0x1 ADD SWAP1 PUSH2 0xB59 JUMP JUMPDEST MLOAD SWAP1 PUSH3 0xFFFFFF DUP3 AND DUP3 SUB PUSH2 0x40A JUMPI JUMP JUMPDEST SWAP2 SWAP1 DUP3 ADD DUP1 SWAP3 GT PUSH2 0xBAF JUMPI JUMP JUMPDEST PUSH4 0x4E487B71 PUSH1 0xE0 SHL PUSH1 0x0 MSTORE PUSH1 0x11 PUSH1 0x4 MSTORE PUSH1 0x24 PUSH1 0x0 REVERT JUMPDEST SWAP1 DUP2 PUSH1 0x20 SWAP2 SUB SLT PUSH2 0x40A JUMPI MLOAD DUP1 ISZERO ISZERO DUP2 SUB PUSH2 0x40A JUMPI SWAP1 JUMP JUMPDEST PUSH1 0x40 DUP1 MLOAD PUSH4 0x95EA7B3 PUSH1 0xE0 SHL DUP2 MSTORE PUSH1 0x1 PUSH1 0x1 PUSH1 0xA0 SHL SUB SWAP3 DUP4 AND PUSH1 0x4 DUP3 ADD DUP2 SWAP1 MSTORE PUSH1 0x24 DUP3 ADD DUP9 SWAP1 MSTORE SWAP2 SWAP7 SWAP5 SWAP4 SWAP1 SWAP3 AND SWAP2 PUSH1 0x20 DUP2 PUSH1 0x44 DUP2 PUSH1 0x0 DUP8 GAS CALL DUP1 ISZERO PUSH2 0xD51 JUMPI PUSH2 0xD32 JUMPI JUMPDEST POP DUP6 MLOAD SWAP1 PUSH2 0x100 DUP3 ADD SWAP1 DUP3 DUP3 LT PUSH8 0xFFFFFFFFFFFFFFFF DUP4 GT OR PUSH2 0xA92 JUMPI SWAP1 DUP8 MSTORE SWAP2 DUP2 MSTORE PUSH1 0x1 PUSH1 0x1 PUSH1 0xA0 SHL SUB SWAP3 DUP4 AND PUSH1 0x20 DUP3 DUP2 ADD SWAP2 DUP3 MSTORE PUSH3 0xFFFFFF SWAP7 DUP8 AND DUP4 DUP10 ADD SWAP1 DUP2 MSTORE ADDRESS PUSH1 0x60 DUP6 ADD SWAP1 DUP2 MSTORE TIMESTAMP PUSH1 0x80 DUP7 ADD SWAP1 DUP2 MSTORE PUSH1 0xA0 DUP7 ADD SWAP9 DUP10 MSTORE PUSH1 0x0 PUSH1 0xC0 DUP8 ADD DUP2 DUP2 MSTORE PUSH1 0xE0 DUP9 ADD DUP3 DUP2 MSTORE DUP14 MLOAD PUSH4 0x414BF389 PUSH1 0xE0 SHL DUP2 MSTORE SWAP9 MLOAD DUP12 AND PUSH1 0x4 DUP11 ADD MSTORE SWAP7 MLOAD DUP11 AND PUSH1 0x24 DUP10 ADD MSTORE SWAP4 MLOAD SWAP1 SWAP11 AND PUSH1 0x44 DUP8 ADD MSTORE SWAP1 MLOAD DUP8 AND PUSH1 0x64 DUP7 ADD MSTORE MLOAD PUSH1 0x84 DUP6 ADD MSTORE SWAP6 MLOAD PUSH1 0xA4 DUP5 ADD MSTORE SWAP5 MLOAD PUSH1 0xC4 DUP4 ADD MSTORE MLOAD SWAP1 SWAP3 AND PUSH1 0xE4 DUP4 ADD MSTORE SWAP1 SWAP3 DUP4 SWAP2 PUSH2 0x104 SWAP2 DUP4 SWAP2 GAS CALL SWAP2 DUP3 ISZERO PUSH2 0xD28 JUMPI POP PUSH1 0x0 SWAP2 PUSH2 0xCF9 JUMPI POP SWAP1 JUMP JUMPDEST SWAP1 POP PUSH1 0x20 DUP2 RETURNDATASIZE PUSH1 0x20 GT PUSH2 0xD20 JUMPI JUMPDEST DUP2 PUSH2 0xD14 PUSH1 0x20 SWAP4 DUP4 PUSH2 0xABC JUMP JUMPDEST DUP2 ADD SUB SLT PUSH2 0x40A JUMPI MLOAD SWAP1 JUMP JUMPDEST RETURNDATASIZE SWAP2 POP PUSH2 0xD07 JUMP JUMPDEST MLOAD RETURNDATASIZE PUSH1 0x0 DUP3 RETURNDATACOPY RETURNDATASIZE SWAP1 REVERT JUMPDEST PUSH2 0xD4A SWAP1 PUSH1 0x20 RETURNDATASIZE PUSH1 0x20 GT PUSH2 0x398 JUMPI PUSH2 0x389 DUP2 DUP4 PUSH2 0xABC JUMP JUMPDEST POP CODESIZE PUSH2 0xC22 JUMP JUMPDEST DUP8 MLOAD RETURNDATASIZE PUSH1 0x0 DUP3 RETURNDATACOPY RETURNDATASIZE SWAP1 REVERT INVALID LOG2 PUSH5 0x6970667358 0x22 SLT KECCAK256 EXP 0xAB SGT REVERT SWAP10 0xE1 PUSH12 0x41F18C89DB9CA23A0961F603 0x4F INVALID PUSH19 0x8D82464FE4B851EE0E3664736F6C6343000814 STOP CALLER "},"methodIdentifiers":{"ADDRESSES_PROVIDER()":"0542975c","POOL()":"7535d246","aavePool()":"a03e4bc3","addressesProvider()":"c72c4d10","executeArbitrage(address,uint256,address,uint24,uint24,uint256,uint8)":"3d973427","executeArbitrage(address,uint256,address[],address[],uint256)":"9a6ada73","executeOperation(address,uint256,uint256,address,bytes)":"1b11d0ff","owner()":"8da5cb5b","sushiswapRouter()":"e9240c2d","uniswapRouter()":"735de9f7","withdraw(address)":"51cff8d9"}}}}}