{"contracts/FlashLoanArbitrageur.sol":{"FlashLoanArbitrageur":{"abi":[{"inputs":[],"stateMutability":"nonpayable","type":"constructor"},{"anonymous":false,"inputs":[{"indexed":true,"internalType":"address","name":"initiator","type":"address"},{"indexed":false,"internalType":"address","name":"asset","type":"address"},{"indexed":false,"internalType":"uint256","name":"profit","type":"uint256"}],"name":"ArbitrageExecuted","type":"event"},{"anonymous":false,"inputs":[{"indexed":false,"internalType":"string","name":"message","type":"string"}],"name":"Debug","type":"event"},{"inputs":[],"name":"owner","outputs":[{"internalType":"address","name":"","type":"address"}],"stateMutability":"view","type":"function"},{"inputs":[{"internalType":"address","name":"pool","type":"address"},{"internalType":"uint256","name":"amount0","type":"uint256"},{"internalType":"uint256","name":"amount1","type":"uint256"},{"internalType":"address","name":"tokenMid","type":"address"},{"internalType":"uint24","name":"fee1","type":"uint24"},{"internalType":"uint24","name":"fee2","type":"uint24"},{"internalType":"uint256","name":"minProfit","type":"uint256"},{"internalType":"uint8","name":"direction","type":"uint8"},{"internalType":"address","name":"uniswapRouter","type":"address"},{"internalType":"address","name":"sushiswapRouter","type":"address"}],"name":"startUniswapV3Flash","outputs":[],"stateMutability":"nonpayable","type":"function"},{"inputs":[{"internalType":"uint256","name":"fee0","type":"uint256"},{"internalType":"uint256","name":"fee1","type":"uint256"},{"internalType":"bytes","name":"data","type":"bytes"}],"name":"uniswapV3FlashCallback","outputs":[],"stateMutability":"nonpayable","type":"function"},{"inputs":[{"internalType":"address","name":"token","type":"address"}],"name":"withdraw","outputs":[],"stateMutability":"nonpayable","type":"function"}],"evm":{"bytecode":{"linkReferences":{},"object":"6080806040523461002857600080546001600160a01b031916331790556119c5908161002e8239f35b600080fdfe6080604052600436101561001257600080fd5b6000803560e01c806351cff8d914610da857806385d8609d14610a4a5780638da5cb5b14610a235763e9cbafb01461004957600080fd5b34610a20576060366003190112610a205760443567ffffffffffffffff808211610a1c5736602383011215610a1c578160040135908111610a1c578101366024820111610a1c578161014091600080516020611970833981519152606060405160208152601c60208201527f537461727420756e69737761705633466c61736843616c6c6261636b000000006040820152a10312610a1857604051906100ee82610f48565b6100fa60248201610eec565b825261010860448201610eec565b602083015261011960648201610eec565b604083015261012a60848201610f00565b606083015261013b60a48201610f00565b608083015260c481013560a083015260e481013560ff8116810361069b57610191916101449160c08501526101736101048201610eec565b60e08501526101856101248201610eec565b61010085015201610eec565b610120820152604051630dfe168160e01b8152602081600481335afa8391816109e7575b506101f65760405162461bcd60e51b8152602060048201526014602482015273496e76616c696420706f6f6c206164647265737360601b6044820152606490fd5b81516001600160a01b039081169116036109ac5780516040516370a0823160e01b815230600482015290602090829060249082906001600160a01b03165afa9081156109a157839161096f575b506020828101516040516370a0823160e01b81523060048201529190829060249082906001600160a01b03165afa9081156106a857849161093d575b50811561093657815b82156108f857826000805160206119708339815191526103126102ab8896611084565b6102fe603760405180937f526563656976656420666c61736820616d6f756e743a2000000000000000000060208301526102ee8151809260208686019101610fd8565b8101036017810184520182610f97565b604051918291602083526020830190610ffb565b0390a18451600080516020611970833981519152906103bd9061033d906001600160a01b0316611890565b60208801516102fe9060319061035b906001600160a01b0316611890565b926040519384916702a37b5b2b7181d160c51b6020840152610387815180926020602887019101610fd8565b8201680102a37b5b2b7189d160bd1b60288201526103ae8251809360208785019101610fd8565b01036011810184520182610f97565b0390a160c085015160ff166108ab576000805160206119708339815191526104566040516103ea81610f7b565b601881527f546f6b656e302d3e546f6b656e4d69642d3e546f6b656e31000000000000000060208201525b6102fe602b60405180936a02234b932b1ba34b7b71d160ad1b60208301526104468151809260208686019101610fd8565b810103600b810184520182610f97565b0390a160c085015160ff1661083b5760e08501518551604087015160608801516104cf9462ffffff9461049e949193928616926001600160a01b03908116928116911661128e565b6101008701516040880151602089015160808a01519394909316926001600160a01b0390811692918116911661128e565b505b8015610832576104e4815b60043561103c565b821561082857836104f8845b60243561103c565b91806107c2575b505080610739575b5060c08401516024935060ff166106b357506020838101516040516370a0823160e01b815230600482015293849182906001600160a01b03165afa9182156106a857849261066d575b50906105626105679260243592611077565b611077565b60a082015181106106345761012082015160c08301516001600160a01b03909116927f546205492ce144edebd2cc39035c50dbd9aebfec90cbcae9c9ae2914d1e130f7929160ff1661062557602001516001600160a01b03165b604080516001600160a01b039290921682526020820192909252a2600080516020611970833981519152606060405160208152601f60208201527f4172626974726167652066696e6973686564207375636365737366756c6c79006040820152a180f35b516001600160a01b03166105c1565b60405162461bcd60e51b8152602060048201526011602482015270139bdd08195b9bdd59da081c1c9bd99a5d607a1b6044820152606490fd5b91506020823d6020116106a0575b8161068860209383610f97565b8101031261069b57905190610562610550565b600080fd5b3d915061067b565b6040513d86823e3d90fd5b83516040516370a0823160e01b815230600482015293919250602091849182906001600160a01b03165afa9182156106a8578492610703575b50906105626106fe9260043592611077565b610567565b91506020823d602011610731575b8161071e60209383610f97565b8101031261069b579051906105626106ec565b3d9150610711565b60208581015160405163a9059cbb60e01b815233600482015260248101939093529194909185916044918391906001600160a01b03165af19283156107b757602493610788575b859350610507565b6107a99060203d6020116107b0575b6107a18183610f97565b81019061105f565b5038610780565b503d610797565b6040513d87823e3d90fd5b865160405163a9059cbb60e01b81523360048201526024810192909252909160209183916044918391906001600160a01b03165af180156107b757610809575b84906104ff565b6108219060203d6020116107b0576107a18183610f97565b5038610802565b836104f8816104f0565b6104e4836104dc565b60e08501516020860151604087015160608801516108a59462ffffff94610877949193928616926001600160a01b03908116928116911661128e565b6101008701516040880151885160808a01519394909316926001600160a01b0390811692918116911661128e565b506104d1565b6000805160206119708339815191526104566040516108c981610f7b565b601881527f546f6b656e312d3e546f6b656e4d69642d3e546f6b656e3000000000000000006020820152610415565b60405162461bcd60e51b8152602060048201526016602482015275139bc8199b185cda081b1bd85b881c9958d95a5d995960521b6044820152606490fd5b8091610288565b90506020813d602011610967575b8161095860209383610f97565b8101031261069b57513861027f565b3d915061094b565b90506020813d602011610999575b8161098a60209383610f97565b8101031261069b575138610243565b3d915061097d565b6040513d85823e3d90fd5b60405162461bcd60e51b81526020600482015260136024820152720496e76616c696420706f6f6c20746f6b656e3606c1b6044820152606490fd5b610a0a91925060203d602011610a11575b610a028183610f97565b810190610fb9565b90386101b5565b503d6109f8565b5080fd5b8280fd5b80fd5b5034610a205780600319360112610a2057546040516001600160a01b039091168152602090f35b5034610a2057610140366003190112610a2057610a65610ed6565b606435906001600160a01b0382168203610a1c576084359162ffffff83168303610da45760a43562ffffff81168103610da05760e43560ff81168103610d9c5761010435906001600160a01b0382168203610d985761012435926001600160a01b0384168403610d9457610ae360018060a01b038954163314610f10565b604051630dfe168160e01b8152966020886004816001600160a01b038b165afa978815610d89578998610d68575b5060405163d21220a760e01b8152956020876004816001600160a01b038c165afa968715610d5d578a97610d2c575b509162ffffff809260ff959460405199610b598b610f48565b60018060a01b038d168b5260018060a01b031660208b015260018060a01b031660408a015216606088015216608086015260c43560a08601521660c084015260018060a01b031660e083015260018060a01b0316610100820152336101208201526040519260018060a01b0316602084015260018060a01b03602082015116604084015260018060a01b03604082015116606084015262ffffff606082015116608084015262ffffff60808201511660a084015260a081015160c084015260ff60c08201511660e084015260018060a01b0360e08201511661010084015260018060a01b036101008201511661012084015261012060018060a01b0391015116610140830152610140825261016082019167ffffffffffffffff8311918184108317610d185760408490528491906001600160a01b0381163b15610a1c576312439b2f60e21b8552306101648301526024356101848301526044356101a483015260806101c483015284918290849061015f1990610cdb6101e4820182610ffb565b0301926001600160a01b03165af180156109a157610cf7578280f35b610d045760405238808280f35b634e487b7160e01b82526041600452602482fd5b634e487b7160e01b85526041600452602485fd5b60ff949391975062ffffff92610d51849260203d602011610a1157610a028183610f97565b98929495509250610b40565b6040513d8c823e3d90fd5b610d8291985060203d602011610a1157610a028183610f97565b9638610b11565b6040513d8b823e3d90fd5b8780fd5b8680fd5b8580fd5b8480fd5b8380fd5b5034610a2057602080600319360112610a1857610dc3610ed6565b82546001600160a01b0390811691610ddc338414610f10565b16604051916370a0823160e01b83523060048401528383602481855afa9283156107b7578593610ea7575b508215610e6c5760405163a9059cbb60e01b81526001600160a01b03919091166004820152602481019290925282908290604490829087905af180156109a157610e4f578280f35b81610e6592903d106107b0576107a18183610f97565b5038808280f35b60405162461bcd60e51b81526004810185905260136024820152724e6f7468696e6720746f20776974686472617760681b6044820152606490fd5b9092508381813d8311610ecf575b610ebf8183610f97565b81010312610da057519138610e07565b503d610eb5565b600435906001600160a01b038216820361069b57565b35906001600160a01b038216820361069b57565b359062ffffff8216820361069b57565b15610f1757565b60405162461bcd60e51b81526020600482015260096024820152682737ba1037bbb732b960b91b6044820152606490fd5b610140810190811067ffffffffffffffff821117610f6557604052565b634e487b7160e01b600052604160045260246000fd5b6040810190811067ffffffffffffffff821117610f6557604052565b90601f8019910116810190811067ffffffffffffffff821117610f6557604052565b9081602091031261069b57516001600160a01b038116810361069b5790565b60005b838110610feb5750506000910152565b8181015183820152602001610fdb565b9060209161101481518092818552858086019101610fd8565b601f01601f1916010190565b67ffffffffffffffff8111610f6557601f01601f191660200190565b9190820180921161104957565b634e487b7160e01b600052601160045260246000fd5b9081602091031261069b5751801515810361069b5790565b9190820391821161104957565b806000917a184f03e93ff9f4daa797ed6e38ed64bf6a1f010000000000000000808210156111de575b506d04ee2d6d415b85acef8100000000808310156111cf575b50662386f26fc10000808310156111c0575b506305f5e100808310156111b1575b50612710808310156111a2575b506064821015611192575b600a80921015611188575b6001908160218186019561111d87611020565b9661112b6040519889610f97565b80885261113a601f1991611020565b01366020890137860101905b611152575b5050505090565b600019019083906f181899199a1a9b1b9c1cb0b131b232b360811b8282061a83530491821561118357919082611146565b61114b565b916001019161110a565b91906064600291049101916110ff565b600491939204910191386110f4565b600891939204910191386110e7565b601091939204910191386110d8565b602091939204910191386110c6565b6040935081049150386110ad565b600060443d1061124a57604051600319913d83016004833e815167ffffffffffffffff918282113d60248401111761124d57818401948551938411611255573d8501016020848701011161124d575061124a92910160200190610f97565b90565b949350505050565b50949350505050565b3d15611289573d9061126f82611020565b9161127d6040519384610f97565b82523d6000602084013e565b606090565b909192841561184b576040516370a0823160e01b81523060048201526020816024816001600160a01b0388165afa80156117b9578691600091611816575b50106117c55760405163095ea7b360e01b81526001600160a01b0383166004820152602481018690526020818060448101038160006001600160a01b0389165af180156117b95761179a575b506103e38581810204036110495760008051602061197083398151915261141961134187611084565b6102fe603b61134f88611890565b926113598a611890565b61136762ffffff8916611084565b906040519586936d029bbb0b81030ba3a32b6b83a1d160951b6020860152611399815180926020602e89019101610fd8565b8401600160fd1b602e8201526113b9825180936020602f85019101610fd8565b0163010169f160e51b602f8201526113db825180936020603385019101610fd8565b0166010143332b29d160cd1b6033820152611400825180936020603a85019101610fd8565b01602960f81b603a82015203601b810184520182610f97565b0390a161038442014211611049576040518061010081011067ffffffffffffffff61010083011117610f6557610100810160409081526001600160a01b039485168252858516602083810191825262ffffff948516838501908152306060860190815242610384016080870190815260a087019b8c52600060c0880181815260e08901828152975163414bf38960e01b815298518c1660048a015295518b16602489015292519097166044870152518816606486015294516084850152975160a48401525160c483015251841660e4820152949285926101049284929091166207a120f160009281611766575b5061168357600060033d11611675575b6308c379a0146115c5575b61152961125e565b50600080516020611970833981519152604051806115798160609060208152601e60208201527f53776170206661696c6564207769746820756e6b6e6f776e206572726f72000060408201520190565b0390a160405162461bcd60e51b815260206004820152601e60248201527f53776170206661696c6564207769746820756e6b6e6f776e206572726f7200006044820152606490fd5b0390fd5b6115cd6111ec565b806115d85750611521565b6115c190611655602d6040516c029bbb0b8103330b4b632b21d1609d1b908160208201526000805160206119708339815191526116388651926102fe868260208b0196611628818484018a610fd8565b810103600d810184520182610f97565b0390a1611628604051958693602085015251809285850190610fd8565b60405162461bcd60e51b8152602060048201529182916024830190610ffb565b600481803e5160e01c611516565b81156117215761171b600080516020611970833981519152916102fe60376116b36116ad87611084565b93611890565b9260405193849175029bbb0b81039bab1b1b2b9b9b33ab6171027baba1d160551b60208401526116ed815180926020603687019101610fd8565b8201600160fd1b603682015261170c8251809360208785019101610fd8565b01036017810184520182610f97565b0390a190565b60405162461bcd60e51b815260206004820152601b60248201527f5265636569766564207a65726f206f757470757420616d6f756e7400000000006044820152606490fd5b90926020823d602011611792575b8161178160209383610f97565b81010312610a205750519138611506565b3d9150611774565b6117b29060203d6020116107b0576107a18183610f97565b5038611318565b6040513d6000823e3d90fd5b60405162461bcd60e51b815260206004820152602360248201527f496e73756666696369656e7420746f6b656e2062616c616e636520666f72207360448201526207761760ec1b6064820152608490fd5b91506020823d602011611843575b8161183160209383610f97565b81010312610a205750859051386112cc565b3d9150611824565b60405162461bcd60e51b815260206004820152601d60248201527f416d6f756e74206d7573742062652067726561746572207468616e20300000006044820152606490fd5b6040516395d89b4160e01b60208083019182526004835292916118b281610f7b565b6000928392839251915afa906118c661125e565b9180611965575b6118f5575050662aa725a727aba760c91b604051916118eb83610f7b565b6007835282015290565b909182518301928181818601950312610a1c57818101519067ffffffffffffffff8211610da457019083603f83011215610a1c57808201519261193784611020565b946119456040519687610f97565b84865260408585010111610a20575090604061124a939285019101610fd8565b50815115156118cd56fe7cdb51e9dbbc205231228146c3246e7f914aa6d4a33170e43ecc8e3593481d1aa2646970667358221220352bd87b5860b1cfc5509b96c3fffc96b44a43f1aff054d64b8ae1efad86862664736f6c63430008140033","opcodes":"PUSH1 0x80 DUP1 PUSH1 0x40 MSTORE CALLVALUE PUSH2 0x28 JUMPI PUSH1 0x0 DUP1 SLOAD PUSH1 0x1 PUSH1 0x1 PUSH1 0xA0 SHL SUB NOT AND CALLER OR SWAP1 SSTORE PUSH2 0x19C5 SWAP1 DUP2 PUSH2 0x2E DUP3 CODECOPY RETURN JUMPDEST PUSH1 0x0 DUP1 REVERT INVALID PUSH1 0x80 PUSH1 0x40 MSTORE PUSH1 0x4 CALLDATASIZE LT ISZERO PUSH2 0x12 JUMPI PUSH1 0x0 DUP1 REVERT JUMPDEST PUSH1 0x0 DUP1 CALLDATALOAD PUSH1 0xE0 SHR DUP1 PUSH4 0x51CFF8D9 EQ PUSH2 0xDA8 JUMPI DUP1 PUSH4 0x85D8609D EQ PUSH2 0xA4A JUMPI DUP1 PUSH4 0x8DA5CB5B EQ PUSH2 0xA23 JUMPI PUSH4 0xE9CBAFB0 EQ PUSH2 0x49 JUMPI PUSH1 0x0 DUP1 REVERT JUMPDEST CALLVALUE PUSH2 0xA20 JUMPI PUSH1 0x60 CALLDATASIZE PUSH1 0x3 NOT ADD SLT PUSH2 0xA20 JUMPI PUSH1 0x44 CALLDATALOAD PUSH8 0xFFFFFFFFFFFFFFFF DUP1 DUP3 GT PUSH2 0xA1C JUMPI CALLDATASIZE PUSH1 0x23 DUP4 ADD SLT ISZERO PUSH2 0xA1C JUMPI DUP2 PUSH1 0x4 ADD CALLDATALOAD SWAP1 DUP2 GT PUSH2 0xA1C JUMPI DUP2 ADD CALLDATASIZE PUSH1 0x24 DUP3 ADD GT PUSH2 0xA1C JUMPI DUP2 PUSH2 0x140 SWAP2 PUSH1 0x0 DUP1 MLOAD PUSH1 0x20 PUSH2 0x1970 DUP4 CODECOPY DUP2 MLOAD SWAP2 MSTORE PUSH1 0x60 PUSH1 0x40 MLOAD PUSH1 0x20 DUP2 MSTORE PUSH1 0x1C PUSH1 0x20 DUP3 ADD MSTORE PUSH32 0x537461727420756E69737761705633466C61736843616C6C6261636B00000000 PUSH1 0x40 DUP3 ADD MSTORE LOG1 SUB SLT PUSH2 0xA18 JUMPI PUSH1 0x40 MLOAD SWAP1 PUSH2 0xEE DUP3 PUSH2 0xF48 JUMP JUMPDEST PUSH2 0xFA PUSH1 0x24 DUP3 ADD PUSH2 0xEEC JUMP JUMPDEST DUP3 MSTORE PUSH2 0x108 PUSH1 0x44 DUP3 ADD PUSH2 0xEEC JUMP JUMPDEST PUSH1 0x20 DUP4 ADD MSTORE PUSH2 0x119 PUSH1 0x64 DUP3 ADD PUSH2 0xEEC JUMP JUMPDEST PUSH1 0x40 DUP4 ADD MSTORE PUSH2 0x12A PUSH1 0x84 DUP3 ADD PUSH2 0xF00 JUMP JUMPDEST PUSH1 0x60 DUP4 ADD MSTORE PUSH2 0x13B PUSH1 0xA4 DUP3 ADD PUSH2 0xF00 JUMP JUMPDEST PUSH1 0x80 DUP4 ADD MSTORE PUSH1 0xC4 DUP2 ADD CALLDATALOAD PUSH1 0xA0 DUP4 ADD MSTORE PUSH1 0xE4 DUP2 ADD CALLDATALOAD PUSH1 0xFF DUP2 AND DUP2 SUB PUSH2 0x69B JUMPI PUSH2 0x191 SWAP2 PUSH2 0x144 SWAP2 PUSH1 0xC0 DUP6 ADD MSTORE PUSH2 0x173 PUSH2 0x104 DUP3 ADD PUSH2 0xEEC JUMP JUMPDEST PUSH1 0xE0 DUP6 ADD MSTORE PUSH2 0x185 PUSH2 0x124 DUP3 ADD PUSH2 0xEEC JUMP JUMPDEST PUSH2 0x100 DUP6 ADD MSTORE ADD PUSH2 0xEEC JUMP JUMPDEST PUSH2 0x120 DUP3 ADD MSTORE PUSH1 0x40 MLOAD PUSH4 0xDFE1681 PUSH1 0xE0 SHL DUP2 MSTORE PUSH1 0x20 DUP2 PUSH1 0x4 DUP2 CALLER GAS STATICCALL DUP4 SWAP2 DUP2 PUSH2 0x9E7 JUMPI JUMPDEST POP PUSH2 0x1F6 JUMPI PUSH1 0x40 MLOAD PUSH3 0x461BCD PUSH1 0xE5 SHL DUP2 MSTORE PUSH1 0x20 PUSH1 0x4 DUP3 ADD MSTORE PUSH1 0x14 PUSH1 0x24 DUP3 ADD MSTORE PUSH20 0x496E76616C696420706F6F6C2061646472657373 PUSH1 0x60 SHL PUSH1 0x44 DUP3 ADD MSTORE PUSH1 0x64 SWAP1 REVERT JUMPDEST DUP2 MLOAD PUSH1 0x1 PUSH1 0x1 PUSH1 0xA0 SHL SUB SWAP1 DUP2 AND SWAP2 AND SUB PUSH2 0x9AC JUMPI DUP1 MLOAD PUSH1 0x40 MLOAD PUSH4 0x70A08231 PUSH1 0xE0 SHL DUP2 MSTORE ADDRESS PUSH1 0x4 DUP3 ADD MSTORE SWAP1 PUSH1 0x20 SWAP1 DUP3 SWAP1 PUSH1 0x24 SWAP1 DUP3 SWAP1 PUSH1 0x1 PUSH1 0x1 PUSH1 0xA0 SHL SUB AND GAS STATICCALL SWAP1 DUP2 ISZERO PUSH2 0x9A1 JUMPI DUP4 SWAP2 PUSH2 0x96F JUMPI JUMPDEST POP PUSH1 0x20 DUP3 DUP2 ADD MLOAD PUSH1 0x40 MLOAD PUSH4 0x70A08231 PUSH1 0xE0 SHL DUP2 MSTORE ADDRESS PUSH1 0x4 DUP3 ADD MSTORE SWAP2 SWAP1 DUP3 SWAP1 PUSH1 0x24 SWAP1 DUP3 SWAP1 PUSH1 0x1 PUSH1 0x1 PUSH1 0xA0 SHL SUB AND GAS STATICCALL SWAP1 DUP2 ISZERO PUSH2 0x6A8 JUMPI DUP5 SWAP2 PUSH2 0x93D JUMPI JUMPDEST POP DUP2 ISZERO PUSH2 0x936 JUMPI DUP2 JUMPDEST DUP3 ISZERO PUSH2 0x8F8 JUMPI DUP3 PUSH1 0x0 DUP1 MLOAD PUSH1 0x20 PUSH2 0x1970 DUP4 CODECOPY DUP2 MLOAD SWAP2 MSTORE PUSH2 0x312 PUSH2 0x2AB DUP9 SWAP7 PUSH2 0x1084 JUMP JUMPDEST PUSH2 0x2FE PUSH1 0x37 PUSH1 0x40 MLOAD DUP1 SWAP4 PUSH32 0x526563656976656420666C61736820616D6F756E743A20000000000000000000 PUSH1 0x20 DUP4 ADD MSTORE PUSH2 0x2EE DUP2 MLOAD DUP1 SWAP3 PUSH1 0x20 DUP7 DUP7 ADD SWAP2 ADD PUSH2 0xFD8 JUMP JUMPDEST DUP2 ADD SUB PUSH1 0x17 DUP2 ADD DUP5 MSTORE ADD DUP3 PUSH2 0xF97 JUMP JUMPDEST PUSH1 0x40 MLOAD SWAP2 DUP3 SWAP2 PUSH1 0x20 DUP4 MSTORE PUSH1 0x20 DUP4 ADD SWAP1 PUSH2 0xFFB JUMP JUMPDEST SUB SWAP1 LOG1 DUP5 MLOAD PUSH1 0x0 DUP1 MLOAD PUSH1 0x20 PUSH2 0x1970 DUP4 CODECOPY DUP2 MLOAD SWAP2 MSTORE SWAP1 PUSH2 0x3BD SWAP1 PUSH2 0x33D SWAP1 PUSH1 0x1 PUSH1 0x1 PUSH1 0xA0 SHL SUB AND PUSH2 0x1890 JUMP JUMPDEST PUSH1 0x20 DUP9 ADD MLOAD PUSH2 0x2FE SWAP1 PUSH1 0x31 SWAP1 PUSH2 0x35B SWAP1 PUSH1 0x1 PUSH1 0x1 PUSH1 0xA0 SHL SUB AND PUSH2 0x1890 JUMP JUMPDEST SWAP3 PUSH1 0x40 MLOAD SWAP4 DUP5 SWAP2 PUSH8 0x2A37B5B2B7181D1 PUSH1 0xC5 SHL PUSH1 0x20 DUP5 ADD MSTORE PUSH2 0x387 DUP2 MLOAD DUP1 SWAP3 PUSH1 0x20 PUSH1 0x28 DUP8 ADD SWAP2 ADD PUSH2 0xFD8 JUMP JUMPDEST DUP3 ADD PUSH9 0x102A37B5B2B7189D1 PUSH1 0xBD SHL PUSH1 0x28 DUP3 ADD MSTORE PUSH2 0x3AE DUP3 MLOAD DUP1 SWAP4 PUSH1 0x20 DUP8 DUP6 ADD SWAP2 ADD PUSH2 0xFD8 JUMP JUMPDEST ADD SUB PUSH1 0x11 DUP2 ADD DUP5 MSTORE ADD DUP3 PUSH2 0xF97 JUMP JUMPDEST SUB SWAP1 LOG1 PUSH1 0xC0 DUP6 ADD MLOAD PUSH1 0xFF AND PUSH2 0x8AB JUMPI PUSH1 0x0 DUP1 MLOAD PUSH1 0x20 PUSH2 0x1970 DUP4 CODECOPY DUP2 MLOAD SWAP2 MSTORE PUSH2 0x456 PUSH1 0x40 MLOAD PUSH2 0x3EA DUP2 PUSH2 0xF7B JUMP JUMPDEST PUSH1 0x18 DUP2 MSTORE PUSH32 0x546F6B656E302D3E546F6B656E4D69642D3E546F6B656E310000000000000000 PUSH1 0x20 DUP3 ADD MSTORE JUMPDEST PUSH2 0x2FE PUSH1 0x2B PUSH1 0x40 MLOAD DUP1 SWAP4 PUSH11 0x2234B932B1BA34B7B71D1 PUSH1 0xAD SHL PUSH1 0x20 DUP4 ADD MSTORE PUSH2 0x446 DUP2 MLOAD DUP1 SWAP3 PUSH1 0x20 DUP7 DUP7 ADD SWAP2 ADD PUSH2 0xFD8 JUMP JUMPDEST DUP2 ADD SUB PUSH1 0xB DUP2 ADD DUP5 MSTORE ADD DUP3 PUSH2 0xF97 JUMP JUMPDEST SUB SWAP1 LOG1 PUSH1 0xC0 DUP6 ADD MLOAD PUSH1 0xFF AND PUSH2 0x83B JUMPI PUSH1 0xE0 DUP6 ADD MLOAD DUP6 MLOAD PUSH1 0x40 DUP8 ADD MLOAD PUSH1 0x60 DUP9 ADD MLOAD PUSH2 0x4CF SWAP5 PUSH3 0xFFFFFF SWAP5 PUSH2 0x49E SWAP5 SWAP2 SWAP4 SWAP3 DUP7 AND SWAP3 PUSH1 0x1 PUSH1 0x1 PUSH1 0xA0 SHL SUB SWAP1 DUP2 AND SWAP3 DUP2 AND SWAP2 AND PUSH2 0x128E JUMP JUMPDEST PUSH2 0x100 DUP8 ADD MLOAD PUSH1 0x40 DUP9 ADD MLOAD PUSH1 0x20 DUP10 ADD MLOAD PUSH1 0x80 DUP11 ADD MLOAD SWAP4 SWAP5 SWAP1 SWAP4 AND SWAP3 PUSH1 0x1 PUSH1 0x1 PUSH1 0xA0 SHL SUB SWAP1 DUP2 AND SWAP3 SWAP2 DUP2 AND SWAP2 AND PUSH2 0x128E JUMP JUMPDEST POP JUMPDEST DUP1 ISZERO PUSH2 0x832 JUMPI PUSH2 0x4E4 DUP2 JUMPDEST PUSH1 0x4 CALLDATALOAD PUSH2 0x103C JUMP JUMPDEST DUP3 ISZERO PUSH2 0x828 JUMPI DUP4 PUSH2 0x4F8 DUP5 JUMPDEST PUSH1 0x24 CALLDATALOAD PUSH2 0x103C JUMP JUMPDEST SWAP2 DUP1 PUSH2 0x7C2 JUMPI JUMPDEST POP POP DUP1 PUSH2 0x739 JUMPI JUMPDEST POP PUSH1 0xC0 DUP5 ADD MLOAD PUSH1 0x24 SWAP4 POP PUSH1 0xFF AND PUSH2 0x6B3 JUMPI POP PUSH1 0x20 DUP4 DUP2 ADD MLOAD PUSH1 0x40 MLOAD PUSH4 0x70A08231 PUSH1 0xE0 SHL DUP2 MSTORE ADDRESS PUSH1 0x4 DUP3 ADD MSTORE SWAP4 DUP5 SWAP2 DUP3 SWAP1 PUSH1 0x1 PUSH1 0x1 PUSH1 0xA0 SHL SUB AND GAS STATICCALL SWAP2 DUP3 ISZERO PUSH2 0x6A8 JUMPI DUP5 SWAP3 PUSH2 0x66D JUMPI JUMPDEST POP SWAP1 PUSH2 0x562 PUSH2 0x567 SWAP3 PUSH1 0x24 CALLDATALOAD SWAP3 PUSH2 0x1077 JUMP JUMPDEST PUSH2 0x1077 JUMP JUMPDEST PUSH1 0xA0 DUP3 ADD MLOAD DUP2 LT PUSH2 0x634 JUMPI PUSH2 0x120 DUP3 ADD MLOAD PUSH1 0xC0 DUP4 ADD MLOAD PUSH1 0x1 PUSH1 0x1 PUSH1 0xA0 SHL SUB SWAP1 SWAP2 AND SWAP3 PUSH32 0x546205492CE144EDEBD2CC39035C50DBD9AEBFEC90CBCAE9C9AE2914D1E130F7 SWAP3 SWAP2 PUSH1 0xFF AND PUSH2 0x625 JUMPI PUSH1 0x20 ADD MLOAD PUSH1 0x1 PUSH1 0x1 PUSH1 0xA0 SHL SUB AND JUMPDEST PUSH1 0x40 DUP1 MLOAD PUSH1 0x1 PUSH1 0x1 PUSH1 0xA0 SHL SUB SWAP3 SWAP1 SWAP3 AND DUP3 MSTORE PUSH1 0x20 DUP3 ADD SWAP3 SWAP1 SWAP3 MSTORE LOG2 PUSH1 0x0 DUP1 MLOAD PUSH1 0x20 PUSH2 0x1970 DUP4 CODECOPY DUP2 MLOAD SWAP2 MSTORE PUSH1 0x60 PUSH1 0x40 MLOAD PUSH1 0x20 DUP2 MSTORE PUSH1 0x1F PUSH1 0x20 DUP3 ADD MSTORE PUSH32 0x4172626974726167652066696E6973686564207375636365737366756C6C7900 PUSH1 0x40 DUP3 ADD MSTORE LOG1 DUP1 RETURN JUMPDEST MLOAD PUSH1 0x1 PUSH1 0x1 PUSH1 0xA0 SHL SUB AND PUSH2 0x5C1 JUMP JUMPDEST PUSH1 0x40 MLOAD PUSH3 0x461BCD PUSH1 0xE5 SHL DUP2 MSTORE PUSH1 0x20 PUSH1 0x4 DUP3 ADD MSTORE PUSH1 0x11 PUSH1 0x24 DUP3 ADD MSTORE PUSH17 0x139BDD08195B9BDD59DA081C1C9BD99A5D PUSH1 0x7A SHL PUSH1 0x44 DUP3 ADD MSTORE PUSH1 0x64 SWAP1 REVERT JUMPDEST SWAP2 POP PUSH1 0x20 DUP3 RETURNDATASIZE PUSH1 0x20 GT PUSH2 0x6A0 JUMPI JUMPDEST DUP2 PUSH2 0x688 PUSH1 0x20 SWAP4 DUP4 PUSH2 0xF97 JUMP JUMPDEST DUP2 ADD SUB SLT PUSH2 0x69B JUMPI SWAP1 MLOAD SWAP1 PUSH2 0x562 PUSH2 0x550 JUMP JUMPDEST PUSH1 0x0 DUP1 REVERT JUMPDEST RETURNDATASIZE SWAP2 POP PUSH2 0x67B JUMP JUMPDEST PUSH1 0x40 MLOAD RETURNDATASIZE DUP7 DUP3 RETURNDATACOPY RETURNDATASIZE SWAP1 REVERT JUMPDEST DUP4 MLOAD PUSH1 0x40 MLOAD PUSH4 0x70A08231 PUSH1 0xE0 SHL DUP2 MSTORE ADDRESS PUSH1 0x4 DUP3 ADD MSTORE SWAP4 SWAP2 SWAP3 POP PUSH1 0x20 SWAP2 DUP5 SWAP2 DUP3 SWAP1 PUSH1 0x1 PUSH1 0x1 PUSH1 0xA0 SHL SUB AND GAS STATICCALL SWAP2 DUP3 ISZERO PUSH2 0x6A8 JUMPI DUP5 SWAP3 PUSH2 0x703 JUMPI JUMPDEST POP SWAP1 PUSH2 0x562 PUSH2 0x6FE SWAP3 PUSH1 0x4 CALLDATALOAD SWAP3 PUSH2 0x1077 JUMP JUMPDEST PUSH2 0x567 JUMP JUMPDEST SWAP2 POP PUSH1 0x20 DUP3 RETURNDATASIZE PUSH1 0x20 GT PUSH2 0x731 JUMPI JUMPDEST DUP2 PUSH2 0x71E PUSH1 0x20 SWAP4 DUP4 PUSH2 0xF97 JUMP JUMPDEST DUP2 ADD SUB SLT PUSH2 0x69B JUMPI SWAP1 MLOAD SWAP1 PUSH2 0x562 PUSH2 0x6EC JUMP JUMPDEST RETURNDATASIZE SWAP2 POP PUSH2 0x711 JUMP JUMPDEST PUSH1 0x20 DUP6 DUP2 ADD MLOAD PUSH1 0x40 MLOAD PUSH4 0xA9059CBB PUSH1 0xE0 SHL DUP2 MSTORE CALLER PUSH1 0x4 DUP3 ADD MSTORE PUSH1 0x24 DUP2 ADD SWAP4 SWAP1 SWAP4 MSTORE SWAP2 SWAP5 SWAP1 SWAP2 DUP6 SWAP2 PUSH1 0x44 SWAP2 DUP4 SWAP2 SWAP1 PUSH1 0x1 PUSH1 0x1 PUSH1 0xA0 SHL SUB AND GAS CALL SWAP3 DUP4 ISZERO PUSH2 0x7B7 JUMPI PUSH1 0x24 SWAP4 PUSH2 0x788 JUMPI JUMPDEST DUP6 SWAP4 POP PUSH2 0x507 JUMP JUMPDEST PUSH2 0x7A9 SWAP1 PUSH1 0x20 RETURNDATASIZE PUSH1 0x20 GT PUSH2 0x7B0 JUMPI JUMPDEST PUSH2 0x7A1 DUP2 DUP4 PUSH2 0xF97 JUMP JUMPDEST DUP2 ADD SWAP1 PUSH2 0x105F JUMP JUMPDEST POP CODESIZE PUSH2 0x780 JUMP JUMPDEST POP RETURNDATASIZE PUSH2 0x797 JUMP JUMPDEST PUSH1 0x40 MLOAD RETURNDATASIZE DUP8 DUP3 RETURNDATACOPY RETURNDATASIZE SWAP1 REVERT JUMPDEST DUP7 MLOAD PUSH1 0x40 MLOAD PUSH4 0xA9059CBB PUSH1 0xE0 SHL DUP2 MSTORE CALLER PUSH1 0x4 DUP3 ADD MSTORE PUSH1 0x24 DUP2 ADD SWAP3 SWAP1 SWAP3 MSTORE SWAP1 SWAP2 PUSH1 0x20 SWAP2 DUP4 SWAP2 PUSH1 0x44 SWAP2 DUP4 SWAP2 SWAP1 PUSH1 0x1 PUSH1 0x1 PUSH1 0xA0 SHL SUB AND GAS CALL DUP1 ISZERO PUSH2 0x7B7 JUMPI PUSH2 0x809 JUMPI JUMPDEST DUP5 SWAP1 PUSH2 0x4FF JUMP JUMPDEST PUSH2 0x821 SWAP1 PUSH1 0x20 RETURNDATASIZE PUSH1 0x20 GT PUSH2 0x7B0 JUMPI PUSH2 0x7A1 DUP2 DUP4 PUSH2 0xF97 JUMP JUMPDEST POP CODESIZE PUSH2 0x802 JUMP JUMPDEST DUP4 PUSH2 0x4F8 DUP2 PUSH2 0x4F0 JUMP JUMPDEST PUSH2 0x4E4 DUP4 PUSH2 0x4DC JUMP JUMPDEST PUSH1 0xE0 DUP6 ADD MLOAD PUSH1 0x20 DUP7 ADD MLOAD PUSH1 0x40 DUP8 ADD MLOAD PUSH1 0x60 DUP9 ADD MLOAD PUSH2 0x8A5 SWAP5 PUSH3 0xFFFFFF SWAP5 PUSH2 0x877 SWAP5 SWAP2 SWAP4 SWAP3 DUP7 AND SWAP3 PUSH1 0x1 PUSH1 0x1 PUSH1 0xA0 SHL SUB SWAP1 DUP2 AND SWAP3 DUP2 AND SWAP2 AND PUSH2 0x128E JUMP JUMPDEST PUSH2 0x100 DUP8 ADD MLOAD PUSH1 0x40 DUP9 ADD MLOAD DUP9 MLOAD PUSH1 0x80 DUP11 ADD MLOAD SWAP4 SWAP5 SWAP1 SWAP4 AND SWAP3 PUSH1 0x1 PUSH1 0x1 PUSH1 0xA0 SHL SUB SWAP1 DUP2 AND SWAP3 SWAP2 DUP2 AND SWAP2 AND PUSH2 0x128E JUMP JUMPDEST POP PUSH2 0x4D1 JUMP JUMPDEST PUSH1 0x0 DUP1 MLOAD PUSH1 0x20 PUSH2 0x1970 DUP4 CODECOPY DUP2 MLOAD SWAP2 MSTORE PUSH2 0x456 PUSH1 0x40 MLOAD PUSH2 0x8C9 DUP2 PUSH2 0xF7B JUMP JUMPDEST PUSH1 0x18 DUP2 MSTORE PUSH32 0x546F6B656E312D3E546F6B656E4D69642D3E546F6B656E300000000000000000 PUSH1 0x20 DUP3 ADD MSTORE PUSH2 0x415 JUMP JUMPDEST PUSH1 0x40 MLOAD PUSH3 0x461BCD PUSH1 0xE5 SHL DUP2 MSTORE PUSH1 0x20 PUSH1 0x4 DUP3 ADD MSTORE PUSH1 0x16 PUSH1 0x24 DUP3 ADD MSTORE PUSH22 0x139BC8199B185CDA081B1BD85B881C9958D95A5D9959 PUSH1 0x52 SHL PUSH1 0x44 DUP3 ADD MSTORE PUSH1 0x64 SWAP1 REVERT JUMPDEST DUP1 SWAP2 PUSH2 0x288 JUMP JUMPDEST SWAP1 POP PUSH1 0x20 DUP2 RETURNDATASIZE PUSH1 0x20 GT PUSH2 0x967 JUMPI JUMPDEST DUP2 PUSH2 0x958 PUSH1 0x20 SWAP4 DUP4 PUSH2 0xF97 JUMP JUMPDEST DUP2 ADD SUB SLT PUSH2 0x69B JUMPI MLOAD CODESIZE PUSH2 0x27F JUMP JUMPDEST RETURNDATASIZE SWAP2 POP PUSH2 0x94B JUMP JUMPDEST SWAP1 POP PUSH1 0x20 DUP2 RETURNDATASIZE PUSH1 0x20 GT PUSH2 0x999 JUMPI JUMPDEST DUP2 PUSH2 0x98A PUSH1 0x20 SWAP4 DUP4 PUSH2 0xF97 JUMP JUMPDEST DUP2 ADD SUB SLT PUSH2 0x69B JUMPI MLOAD CODESIZE PUSH2 0x243 JUMP JUMPDEST RETURNDATASIZE SWAP2 POP PUSH2 0x97D JUMP JUMPDEST PUSH1 0x40 MLOAD RETURNDATASIZE DUP6 DUP3 RETURNDATACOPY RETURNDATASIZE SWAP1 REVERT JUMPDEST PUSH1 0x40 MLOAD PUSH3 0x461BCD PUSH1 0xE5 SHL DUP2 MSTORE PUSH1 0x20 PUSH1 0x4 DUP3 ADD MSTORE PUSH1 0x13 PUSH1 0x24 DUP3 ADD MSTORE PUSH19 0x496E76616C696420706F6F6C20746F6B656E3 PUSH1 0x6C SHL PUSH1 0x44 DUP3 ADD MSTORE PUSH1 0x64 SWAP1 REVERT JUMPDEST PUSH2 0xA0A SWAP2 SWAP3 POP PUSH1 0x20 RETURNDATASIZE PUSH1 0x20 GT PUSH2 0xA11 JUMPI JUMPDEST PUSH2 0xA02 DUP2 DUP4 PUSH2 0xF97 JUMP JUMPDEST DUP2 ADD SWAP1 PUSH2 0xFB9 JUMP JUMPDEST SWAP1 CODESIZE PUSH2 0x1B5 JUMP JUMPDEST POP RETURNDATASIZE PUSH2 0x9F8 JUMP JUMPDEST POP DUP1 REVERT JUMPDEST DUP3 DUP1 REVERT JUMPDEST DUP1 REVERT JUMPDEST POP CALLVALUE PUSH2 0xA20 JUMPI DUP1 PUSH1 0x3 NOT CALLDATASIZE ADD SLT PUSH2 0xA20 JUMPI SLOAD PUSH1 0x40 MLOAD PUSH1 0x1 PUSH1 0x1 PUSH1 0xA0 SHL SUB SWAP1 SWAP2 AND DUP2 MSTORE PUSH1 0x20 SWAP1 RETURN JUMPDEST POP CALLVALUE PUSH2 0xA20 JUMPI PUSH2 0x140 CALLDATASIZE PUSH1 0x3 NOT ADD SLT PUSH2 0xA20 JUMPI PUSH2 0xA65 PUSH2 0xED6 JUMP JUMPDEST PUSH1 0x64 CALLDATALOAD SWAP1 PUSH1 0x1 PUSH1 0x1 PUSH1 0xA0 SHL SUB DUP3 AND DUP3 SUB PUSH2 0xA1C JUMPI PUSH1 0x84 CALLDATALOAD SWAP2 PUSH3 0xFFFFFF DUP4 AND DUP4 SUB PUSH2 0xDA4 JUMPI PUSH1 0xA4 CALLDATALOAD PUSH3 0xFFFFFF DUP2 AND DUP2 SUB PUSH2 0xDA0 JUMPI PUSH1 0xE4 CALLDATALOAD PUSH1 0xFF DUP2 AND DUP2 SUB PUSH2 0xD9C JUMPI PUSH2 0x104 CALLDATALOAD SWAP1 PUSH1 0x1 PUSH1 0x1 PUSH1 0xA0 SHL SUB DUP3 AND DUP3 SUB PUSH2 0xD98 JUMPI PUSH2 0x124 CALLDATALOAD SWAP3 PUSH1 0x1 PUSH1 0x1 PUSH1 0xA0 SHL SUB DUP5 AND DUP5 SUB PUSH2 0xD94 JUMPI PUSH2 0xAE3 PUSH1 0x1 DUP1 PUSH1 0xA0 SHL SUB DUP10 SLOAD AND CALLER EQ PUSH2 0xF10 JUMP JUMPDEST PUSH1 0x40 MLOAD PUSH4 0xDFE1681 PUSH1 0xE0 SHL DUP2 MSTORE SWAP7 PUSH1 0x20 DUP9 PUSH1 0x4 DUP2 PUSH1 0x1 PUSH1 0x1 PUSH1 0xA0 SHL SUB DUP12 AND GAS STATICCALL SWAP8 DUP9 ISZERO PUSH2 0xD89 JUMPI DUP10 SWAP9 PUSH2 0xD68 JUMPI JUMPDEST POP PUSH1 0x40 MLOAD PUSH4 0xD21220A7 PUSH1 0xE0 SHL DUP2 MSTORE SWAP6 PUSH1 0x20 DUP8 PUSH1 0x4 DUP2 PUSH1 0x1 PUSH1 0x1 PUSH1 0xA0 SHL SUB DUP13 AND GAS STATICCALL SWAP7 DUP8 ISZERO PUSH2 0xD5D JUMPI DUP11 SWAP8 PUSH2 0xD2C JUMPI JUMPDEST POP SWAP2 PUSH3 0xFFFFFF DUP1 SWAP3 PUSH1 0xFF SWAP6 SWAP5 PUSH1 0x40 MLOAD SWAP10 PUSH2 0xB59 DUP12 PUSH2 0xF48 JUMP JUMPDEST PUSH1 0x1 DUP1 PUSH1 0xA0 SHL SUB DUP14 AND DUP12 MSTORE PUSH1 0x1 DUP1 PUSH1 0xA0 SHL SUB AND PUSH1 0x20 DUP12 ADD MSTORE PUSH1 0x1 DUP1 PUSH1 0xA0 SHL SUB AND PUSH1 0x40 DUP11 ADD MSTORE AND PUSH1 0x60 DUP9 ADD MSTORE AND PUSH1 0x80 DUP7 ADD MSTORE PUSH1 0xC4 CALLDATALOAD PUSH1 0xA0 DUP7 ADD MSTORE AND PUSH1 0xC0 DUP5 ADD MSTORE PUSH1 0x1 DUP1 PUSH1 0xA0 SHL SUB AND PUSH1 0xE0 DUP4 ADD MSTORE PUSH1 0x1 DUP1 PUSH1 0xA0 SHL SUB AND PUSH2 0x100 DUP3 ADD MSTORE CALLER PUSH2 0x120 DUP3 ADD MSTORE PUSH1 0x40 MLOAD SWAP3 PUSH1 0x1 DUP1 PUSH1 0xA0 SHL SUB AND PUSH1 0x20 DUP5 ADD MSTORE PUSH1 0x1 DUP1 PUSH1 0xA0 SHL SUB PUSH1 0x20 DUP3 ADD MLOAD AND PUSH1 0x40 DUP5 ADD MSTORE PUSH1 0x1 DUP1 PUSH1 0xA0 SHL SUB PUSH1 0x40 DUP3 ADD MLOAD AND PUSH1 0x60 DUP5 ADD MSTORE PUSH3 0xFFFFFF PUSH1 0x60 DUP3 ADD MLOAD AND PUSH1 0x80 DUP5 ADD MSTORE PUSH3 0xFFFFFF PUSH1 0x80 DUP3 ADD MLOAD AND PUSH1 0xA0 DUP5 ADD MSTORE PUSH1 0xA0 DUP2 ADD MLOAD PUSH1 0xC0 DUP5 ADD MSTORE PUSH1 0xFF PUSH1 0xC0 DUP3 ADD MLOAD AND PUSH1 0xE0 DUP5 ADD MSTORE PUSH1 0x1 DUP1 PUSH1 0xA0 SHL SUB PUSH1 0xE0 DUP3 ADD MLOAD AND PUSH2 0x100 DUP5 ADD MSTORE PUSH1 0x1 DUP1 PUSH1 0xA0 SHL SUB PUSH2 0x100 DUP3 ADD MLOAD AND PUSH2 0x120 DUP5 ADD MSTORE PUSH2 0x120 PUSH1 0x1 DUP1 PUSH1 0xA0 SHL SUB SWAP2 ADD MLOAD AND PUSH2 0x140 DUP4 ADD MSTORE PUSH2 0x140 DUP3 MSTORE PUSH2 0x160 DUP3 ADD SWAP2 PUSH8 0xFFFFFFFFFFFFFFFF DUP4 GT SWAP2 DUP2 DUP5 LT DUP4 OR PUSH2 0xD18 JUMPI PUSH1 0x40 DUP5 SWAP1 MSTORE DUP5 SWAP2 SWAP1 PUSH1 0x1 PUSH1 0x1 PUSH1 0xA0 SHL SUB DUP2 AND EXTCODESIZE ISZERO PUSH2 0xA1C JUMPI PUSH4 0x12439B2F PUSH1 0xE2 SHL DUP6 MSTORE ADDRESS PUSH2 0x164 DUP4 ADD MSTORE PUSH1 0x24 CALLDATALOAD PUSH2 0x184 DUP4 ADD MSTORE PUSH1 0x44 CALLDATALOAD PUSH2 0x1A4 DUP4 ADD MSTORE PUSH1 0x80 PUSH2 0x1C4 DUP4 ADD MSTORE DUP5 SWAP2 DUP3 SWAP1 DUP5 SWAP1 PUSH2 0x15F NOT SWAP1 PUSH2 0xCDB PUSH2 0x1E4 DUP3 ADD DUP3 PUSH2 0xFFB JUMP JUMPDEST SUB ADD SWAP3 PUSH1 0x1 PUSH1 0x1 PUSH1 0xA0 SHL SUB AND GAS CALL DUP1 ISZERO PUSH2 0x9A1 JUMPI PUSH2 0xCF7 JUMPI DUP3 DUP1 RETURN JUMPDEST PUSH2 0xD04 JUMPI PUSH1 0x40 MSTORE CODESIZE DUP1 DUP3 DUP1 RETURN JUMPDEST PUSH4 0x4E487B71 PUSH1 0xE0 SHL DUP3 MSTORE PUSH1 0x41 PUSH1 0x4 MSTORE PUSH1 0x24 DUP3 REVERT JUMPDEST PUSH4 0x4E487B71 PUSH1 0xE0 SHL DUP6 MSTORE PUSH1 0x41 PUSH1 0x4 MSTORE PUSH1 0x24 DUP6 REVERT JUMPDEST PUSH1 0xFF SWAP5 SWAP4 SWAP2 SWAP8 POP PUSH3 0xFFFFFF SWAP3 PUSH2 0xD51 DUP5 SWAP3 PUSH1 0x20 RETURNDATASIZE PUSH1 0x20 GT PUSH2 0xA11 JUMPI PUSH2 0xA02 DUP2 DUP4 PUSH2 0xF97 JUMP JUMPDEST SWAP9 SWAP3 SWAP5 SWAP6 POP SWAP3 POP PUSH2 0xB40 JUMP JUMPDEST PUSH1 0x40 MLOAD RETURNDATASIZE DUP13 DUP3 RETURNDATACOPY RETURNDATASIZE SWAP1 REVERT JUMPDEST PUSH2 0xD82 SWAP2 SWAP9 POP PUSH1 0x20 RETURNDATASIZE PUSH1 0x20 GT PUSH2 0xA11 JUMPI PUSH2 0xA02 DUP2 DUP4 PUSH2 0xF97 JUMP JUMPDEST SWAP7 CODESIZE PUSH2 0xB11 JUMP JUMPDEST PUSH1 0x40 MLOAD RETURNDATASIZE DUP12 DUP3 RETURNDATACOPY RETURNDATASIZE SWAP1 REVERT JUMPDEST DUP8 DUP1 REVERT JUMPDEST DUP7 DUP1 REVERT JUMPDEST DUP6 DUP1 REVERT JUMPDEST DUP5 DUP1 REVERT JUMPDEST DUP4 DUP1 REVERT JUMPDEST POP CALLVALUE PUSH2 0xA20 JUMPI PUSH1 0x20 DUP1 PUSH1 0x3 NOT CALLDATASIZE ADD SLT PUSH2 0xA18 JUMPI PUSH2 0xDC3 PUSH2 0xED6 JUMP JUMPDEST DUP3 SLOAD PUSH1 0x1 PUSH1 0x1 PUSH1 0xA0 SHL SUB SWAP1 DUP2 AND SWAP2 PUSH2 0xDDC CALLER DUP5 EQ PUSH2 0xF10 JUMP JUMPDEST AND PUSH1 0x40 MLOAD SWAP2 PUSH4 0x70A08231 PUSH1 0xE0 SHL DUP4 MSTORE ADDRESS PUSH1 0x4 DUP5 ADD MSTORE DUP4 DUP4 PUSH1 0x24 DUP2 DUP6 GAS STATICCALL SWAP3 DUP4 ISZERO PUSH2 0x7B7 JUMPI DUP6 SWAP4 PUSH2 0xEA7 JUMPI JUMPDEST POP DUP3 ISZERO PUSH2 0xE6C JUMPI PUSH1 0x40 MLOAD PUSH4 0xA9059CBB PUSH1 0xE0 SHL DUP2 MSTORE PUSH1 0x1 PUSH1 0x1 PUSH1 0xA0 SHL SUB SWAP2 SWAP1 SWAP2 AND PUSH1 0x4 DUP3 ADD MSTORE PUSH1 0x24 DUP2 ADD SWAP3 SWAP1 SWAP3 MSTORE DUP3 SWAP1 DUP3 SWAP1 PUSH1 0x44 SWAP1 DUP3 SWAP1 DUP8 SWAP1 GAS CALL DUP1 ISZERO PUSH2 0x9A1 JUMPI PUSH2 0xE4F JUMPI DUP3 DUP1 RETURN JUMPDEST DUP2 PUSH2 0xE65 SWAP3 SWAP1 RETURNDATASIZE LT PUSH2 0x7B0 JUMPI PUSH2 0x7A1 DUP2 DUP4 PUSH2 0xF97 JUMP JUMPDEST POP CODESIZE DUP1 DUP3 DUP1 RETURN JUMPDEST PUSH1 0x40 MLOAD PUSH3 0x461BCD PUSH1 0xE5 SHL DUP2 MSTORE PUSH1 0x4 DUP2 ADD DUP6 SWAP1 MSTORE PUSH1 0x13 PUSH1 0x24 DUP3 ADD MSTORE PUSH19 0x4E6F7468696E6720746F207769746864726177 PUSH1 0x68 SHL PUSH1 0x44 DUP3 ADD MSTORE PUSH1 0x64 SWAP1 REVERT JUMPDEST SWAP1 SWAP3 POP DUP4 DUP2 DUP2 RETURNDATASIZE DUP4 GT PUSH2 0xECF JUMPI JUMPDEST PUSH2 0xEBF DUP2 DUP4 PUSH2 0xF97 JUMP JUMPDEST DUP2 ADD SUB SLT PUSH2 0xDA0 JUMPI MLOAD SWAP2 CODESIZE PUSH2 0xE07 JUMP JUMPDEST POP RETURNDATASIZE PUSH2 0xEB5 JUMP JUMPDEST PUSH1 0x4 CALLDATALOAD SWAP1 PUSH1 0x1 PUSH1 0x1 PUSH1 0xA0 SHL SUB DUP3 AND DUP3 SUB PUSH2 0x69B JUMPI JUMP JUMPDEST CALLDATALOAD SWAP1 PUSH1 0x1 PUSH1 0x1 PUSH1 0xA0 SHL SUB DUP3 AND DUP3 SUB PUSH2 0x69B JUMPI JUMP JUMPDEST CALLDATALOAD SWAP1 PUSH3 0xFFFFFF DUP3 AND DUP3 SUB PUSH2 0x69B JUMPI JUMP JUMPDEST ISZERO PUSH2 0xF17 JUMPI JUMP JUMPDEST PUSH1 0x40 MLOAD PUSH3 0x461BCD PUSH1 0xE5 SHL DUP2 MSTORE PUSH1 0x20 PUSH1 0x4 DUP3 ADD MSTORE PUSH1 0x9 PUSH1 0x24 DUP3 ADD MSTORE PUSH9 0x2737BA1037BBB732B9 PUSH1 0xB9 SHL PUSH1 0x44 DUP3 ADD MSTORE PUSH1 0x64 SWAP1 REVERT JUMPDEST PUSH2 0x140 DUP2 ADD SWAP1 DUP2 LT PUSH8 0xFFFFFFFFFFFFFFFF DUP3 GT OR PUSH2 0xF65 JUMPI PUSH1 0x40 MSTORE JUMP JUMPDEST PUSH4 0x4E487B71 PUSH1 0xE0 SHL PUSH1 0x0 MSTORE PUSH1 0x41 PUSH1 0x4 MSTORE PUSH1 0x24 PUSH1 0x0 REVERT JUMPDEST PUSH1 0x40 DUP2 ADD SWAP1 DUP2 LT PUSH8 0xFFFFFFFFFFFFFFFF DUP3 GT OR PUSH2 0xF65 JUMPI PUSH1 0x40 MSTORE JUMP JUMPDEST SWAP1 PUSH1 0x1F DUP1 NOT SWAP2 ADD AND DUP2 ADD SWAP1 DUP2 LT PUSH8 0xFFFFFFFFFFFFFFFF DUP3 GT OR PUSH2 0xF65 JUMPI PUSH1 0x40 MSTORE JUMP JUMPDEST SWAP1 DUP2 PUSH1 0x20 SWAP2 SUB SLT PUSH2 0x69B JUMPI MLOAD PUSH1 0x1 PUSH1 0x1 PUSH1 0xA0 SHL SUB DUP2 AND DUP2 SUB PUSH2 0x69B JUMPI SWAP1 JUMP JUMPDEST PUSH1 0x0 JUMPDEST DUP4 DUP2 LT PUSH2 0xFEB JUMPI POP POP PUSH1 0x0 SWAP2 ADD MSTORE JUMP JUMPDEST DUP2 DUP2 ADD MLOAD DUP4 DUP3 ADD MSTORE PUSH1 0x20 ADD PUSH2 0xFDB JUMP JUMPDEST SWAP1 PUSH1 0x20 SWAP2 PUSH2 0x1014 DUP2 MLOAD DUP1 SWAP3 DUP2 DUP6 MSTORE DUP6 DUP1 DUP7 ADD SWAP2 ADD PUSH2 0xFD8 JUMP JUMPDEST PUSH1 0x1F ADD PUSH1 0x1F NOT AND ADD ADD SWAP1 JUMP JUMPDEST PUSH8 0xFFFFFFFFFFFFFFFF DUP2 GT PUSH2 0xF65 JUMPI PUSH1 0x1F ADD PUSH1 0x1F NOT AND PUSH1 0x20 ADD SWAP1 JUMP JUMPDEST SWAP2 SWAP1 DUP3 ADD DUP1 SWAP3 GT PUSH2 0x1049 JUMPI JUMP JUMPDEST PUSH4 0x4E487B71 PUSH1 0xE0 SHL PUSH1 0x0 MSTORE PUSH1 0x11 PUSH1 0x4 MSTORE PUSH1 0x24 PUSH1 0x0 REVERT JUMPDEST SWAP1 DUP2 PUSH1 0x20 SWAP2 SUB SLT PUSH2 0x69B JUMPI MLOAD DUP1 ISZERO ISZERO DUP2 SUB PUSH2 0x69B JUMPI SWAP1 JUMP JUMPDEST SWAP2 SWAP1 DUP3 SUB SWAP2 DUP3 GT PUSH2 0x1049 JUMPI JUMP JUMPDEST DUP1 PUSH1 0x0 SWAP2 PUSH27 0x184F03E93FF9F4DAA797ED6E38ED64BF6A1F010000000000000000 DUP1 DUP3 LT ISZERO PUSH2 0x11DE JUMPI JUMPDEST POP PUSH14 0x4EE2D6D415B85ACEF8100000000 DUP1 DUP4 LT ISZERO PUSH2 0x11CF JUMPI JUMPDEST POP PUSH7 0x2386F26FC10000 DUP1 DUP4 LT ISZERO PUSH2 0x11C0 JUMPI JUMPDEST POP PUSH4 0x5F5E100 DUP1 DUP4 LT ISZERO PUSH2 0x11B1 JUMPI JUMPDEST POP PUSH2 0x2710 DUP1 DUP4 LT ISZERO PUSH2 0x11A2 JUMPI JUMPDEST POP PUSH1 0x64 DUP3 LT ISZERO PUSH2 0x1192 JUMPI JUMPDEST PUSH1 0xA DUP1 SWAP3 LT ISZERO PUSH2 0x1188 JUMPI JUMPDEST PUSH1 0x1 SWAP1 DUP2 PUSH1 0x21 DUP2 DUP7 ADD SWAP6 PUSH2 0x111D DUP8 PUSH2 0x1020 JUMP JUMPDEST SWAP7 PUSH2 0x112B PUSH1 0x40 MLOAD SWAP9 DUP10 PUSH2 0xF97 JUMP JUMPDEST DUP1 DUP9 MSTORE PUSH2 0x113A PUSH1 0x1F NOT SWAP2 PUSH2 0x1020 JUMP JUMPDEST ADD CALLDATASIZE PUSH1 0x20 DUP10 ADD CALLDATACOPY DUP7 ADD ADD SWAP1 JUMPDEST PUSH2 0x1152 JUMPI JUMPDEST POP POP POP POP SWAP1 JUMP JUMPDEST PUSH1 0x0 NOT ADD SWAP1 DUP4 SWAP1 PUSH16 0x181899199A1A9B1B9C1CB0B131B232B3 PUSH1 0x81 SHL DUP3 DUP3 MOD BYTE DUP4 MSTORE8 DIV SWAP2 DUP3 ISZERO PUSH2 0x1183 JUMPI SWAP2 SWAP1 DUP3 PUSH2 0x1146 JUMP JUMPDEST PUSH2 0x114B JUMP JUMPDEST SWAP2 PUSH1 0x1 ADD SWAP2 PUSH2 0x110A JUMP JUMPDEST SWAP2 SWAP1 PUSH1 0x64 PUSH1 0x2 SWAP2 DIV SWAP2 ADD SWAP2 PUSH2 0x10FF JUMP JUMPDEST PUSH1 0x4 SWAP2 SWAP4 SWAP3 DIV SWAP2 ADD SWAP2 CODESIZE PUSH2 0x10F4 JUMP JUMPDEST PUSH1 0x8 SWAP2 SWAP4 SWAP3 DIV SWAP2 ADD SWAP2 CODESIZE PUSH2 0x10E7 JUMP JUMPDEST PUSH1 0x10 SWAP2 SWAP4 SWAP3 DIV SWAP2 ADD SWAP2 CODESIZE PUSH2 0x10D8 JUMP JUMPDEST PUSH1 0x20 SWAP2 SWAP4 SWAP3 DIV SWAP2 ADD SWAP2 CODESIZE PUSH2 0x10C6 JUMP JUMPDEST PUSH1 0x40 SWAP4 POP DUP2 DIV SWAP2 POP CODESIZE PUSH2 0x10AD JUMP JUMPDEST PUSH1 0x0 PUSH1 0x44 RETURNDATASIZE LT PUSH2 0x124A JUMPI PUSH1 0x40 MLOAD PUSH1 0x3 NOT SWAP2 RETURNDATASIZE DUP4 ADD PUSH1 0x4 DUP4 RETURNDATACOPY DUP2 MLOAD PUSH8 0xFFFFFFFFFFFFFFFF SWAP2 DUP3 DUP3 GT RETURNDATASIZE PUSH1 0x24 DUP5 ADD GT OR PUSH2 0x124D JUMPI DUP2 DUP5 ADD SWAP5 DUP6 MLOAD SWAP4 DUP5 GT PUSH2 0x1255 JUMPI RETURNDATASIZE DUP6 ADD ADD PUSH1 0x20 DUP5 DUP8 ADD ADD GT PUSH2 0x124D JUMPI POP PUSH2 0x124A SWAP3 SWAP2 ADD PUSH1 0x20 ADD SWAP1 PUSH2 0xF97 JUMP JUMPDEST SWAP1 JUMP JUMPDEST SWAP5 SWAP4 POP POP POP POP JUMP JUMPDEST POP SWAP5 SWAP4 POP POP POP POP JUMP JUMPDEST RETURNDATASIZE ISZERO PUSH2 0x1289 JUMPI RETURNDATASIZE SWAP1 PUSH2 0x126F DUP3 PUSH2 0x1020 JUMP JUMPDEST SWAP2 PUSH2 0x127D PUSH1 0x40 MLOAD SWAP4 DUP5 PUSH2 0xF97 JUMP JUMPDEST DUP3 MSTORE RETURNDATASIZE PUSH1 0x0 PUSH1 0x20 DUP5 ADD RETURNDATACOPY JUMP JUMPDEST PUSH1 0x60 SWAP1 JUMP JUMPDEST SWAP1 SWAP2 SWAP3 DUP5 ISZERO PUSH2 0x184B JUMPI PUSH1 0x40 MLOAD PUSH4 0x70A08231 PUSH1 0xE0 SHL DUP2 MSTORE ADDRESS PUSH1 0x4 DUP3 ADD MSTORE PUSH1 0x20 DUP2 PUSH1 0x24 DUP2 PUSH1 0x1 PUSH1 0x1 PUSH1 0xA0 SHL SUB DUP9 AND GAS STATICCALL DUP1 ISZERO PUSH2 0x17B9 JUMPI DUP7 SWAP2 PUSH1 0x0 SWAP2 PUSH2 0x1816 JUMPI JUMPDEST POP LT PUSH2 0x17C5 JUMPI PUSH1 0x40 MLOAD PUSH4 0x95EA7B3 PUSH1 0xE0 SHL DUP2 MSTORE PUSH1 0x1 PUSH1 0x1 PUSH1 0xA0 SHL SUB DUP4 AND PUSH1 0x4 DUP3 ADD MSTORE PUSH1 0x24 DUP2 ADD DUP7 SWAP1 MSTORE PUSH1 0x20 DUP2 DUP1 PUSH1 0x44 DUP2 ADD SUB DUP2 PUSH1 0x0 PUSH1 0x1 PUSH1 0x1 PUSH1 0xA0 SHL SUB DUP10 AND GAS CALL DUP1 ISZERO PUSH2 0x17B9 JUMPI PUSH2 0x179A JUMPI JUMPDEST POP PUSH2 0x3E3 DUP6 DUP2 DUP2 MUL DIV SUB PUSH2 0x1049 JUMPI PUSH1 0x0 DUP1 MLOAD PUSH1 0x20 PUSH2 0x1970 DUP4 CODECOPY DUP2 MLOAD SWAP2 MSTORE PUSH2 0x1419 PUSH2 0x1341 DUP8 PUSH2 0x1084 JUMP JUMPDEST PUSH2 0x2FE PUSH1 0x3B PUSH2 0x134F DUP9 PUSH2 0x1890 JUMP JUMPDEST SWAP3 PUSH2 0x1359 DUP11 PUSH2 0x1890 JUMP JUMPDEST PUSH2 0x1367 PUSH3 0xFFFFFF DUP10 AND PUSH2 0x1084 JUMP JUMPDEST SWAP1 PUSH1 0x40 MLOAD SWAP6 DUP7 SWAP4 PUSH14 0x29BBB0B81030BA3A32B6B83A1D1 PUSH1 0x95 SHL PUSH1 0x20 DUP7 ADD MSTORE PUSH2 0x1399 DUP2 MLOAD DUP1 SWAP3 PUSH1 0x20 PUSH1 0x2E DUP10 ADD SWAP2 ADD PUSH2 0xFD8 JUMP JUMPDEST DUP5 ADD PUSH1 0x1 PUSH1 0xFD SHL PUSH1 0x2E DUP3 ADD MSTORE PUSH2 0x13B9 DUP3 MLOAD DUP1 SWAP4 PUSH1 0x20 PUSH1 0x2F DUP6 ADD SWAP2 ADD PUSH2 0xFD8 JUMP JUMPDEST ADD PUSH4 0x10169F1 PUSH1 0xE5 SHL PUSH1 0x2F DUP3 ADD MSTORE PUSH2 0x13DB DUP3 MLOAD DUP1 SWAP4 PUSH1 0x20 PUSH1 0x33 DUP6 ADD SWAP2 ADD PUSH2 0xFD8 JUMP JUMPDEST ADD PUSH7 0x10143332B29D1 PUSH1 0xCD SHL PUSH1 0x33 DUP3 ADD MSTORE PUSH2 0x1400 DUP3 MLOAD DUP1 SWAP4 PUSH1 0x20 PUSH1 0x3A DUP6 ADD SWAP2 ADD PUSH2 0xFD8 JUMP JUMPDEST ADD PUSH1 0x29 PUSH1 0xF8 SHL PUSH1 0x3A DUP3 ADD MSTORE SUB PUSH1 0x1B DUP2 ADD DUP5 MSTORE ADD DUP3 PUSH2 0xF97 JUMP JUMPDEST SUB SWAP1 LOG1 PUSH2 0x384 TIMESTAMP ADD TIMESTAMP GT PUSH2 0x1049 JUMPI PUSH1 0x40 MLOAD DUP1 PUSH2 0x100 DUP2 ADD LT PUSH8 0xFFFFFFFFFFFFFFFF PUSH2 0x100 DUP4 ADD GT OR PUSH2 0xF65 JUMPI PUSH2 0x100 DUP2 ADD PUSH1 0x40 SWAP1 DUP2 MSTORE PUSH1 0x1 PUSH1 0x1 PUSH1 0xA0 SHL SUB SWAP5 DUP6 AND DUP3 MSTORE DUP6 DUP6 AND PUSH1 0x20 DUP4 DUP2 ADD SWAP2 DUP3 MSTORE PUSH3 0xFFFFFF SWAP5 DUP6 AND DUP4 DUP6 ADD SWAP1 DUP2 MSTORE ADDRESS PUSH1 0x60 DUP7 ADD SWAP1 DUP2 MSTORE TIMESTAMP PUSH2 0x384 ADD PUSH1 0x80 DUP8 ADD SWAP1 DUP2 MSTORE PUSH1 0xA0 DUP8 ADD SWAP12 DUP13 MSTORE PUSH1 0x0 PUSH1 0xC0 DUP9 ADD DUP2 DUP2 MSTORE PUSH1 0xE0 DUP10 ADD DUP3 DUP2 MSTORE SWAP8 MLOAD PUSH4 0x414BF389 PUSH1 0xE0 SHL DUP2 MSTORE SWAP9 MLOAD DUP13 AND PUSH1 0x4 DUP11 ADD MSTORE SWAP6 MLOAD DUP12 AND PUSH1 0x24 DUP10 ADD MSTORE SWAP3 MLOAD SWAP1 SWAP8 AND PUSH1 0x44 DUP8 ADD MSTORE MLOAD DUP9 AND PUSH1 0x64 DUP7 ADD MSTORE SWAP5 MLOAD PUSH1 0x84 DUP6 ADD MSTORE SWAP8 MLOAD PUSH1 0xA4 DUP5 ADD MSTORE MLOAD PUSH1 0xC4 DUP4 ADD MSTORE MLOAD DUP5 AND PUSH1 0xE4 DUP3 ADD MSTORE SWAP5 SWAP3 DUP6 SWAP3 PUSH2 0x104 SWAP3 DUP5 SWAP3 SWAP1 SWAP2 AND PUSH3 0x7A120 CALL PUSH1 0x0 SWAP3 DUP2 PUSH2 0x1766 JUMPI JUMPDEST POP PUSH2 0x1683 JUMPI PUSH1 0x0 PUSH1 0x3 RETURNDATASIZE GT PUSH2 0x1675 JUMPI JUMPDEST PUSH4 0x8C379A0 EQ PUSH2 0x15C5 JUMPI JUMPDEST PUSH2 0x1529 PUSH2 0x125E JUMP JUMPDEST POP PUSH1 0x0 DUP1 MLOAD PUSH1 0x20 PUSH2 0x1970 DUP4 CODECOPY DUP2 MLOAD SWAP2 MSTORE PUSH1 0x40 MLOAD DUP1 PUSH2 0x1579 DUP2 PUSH1 0x60 SWAP1 PUSH1 0x20 DUP2 MSTORE PUSH1 0x1E PUSH1 0x20 DUP3 ADD MSTORE PUSH32 0x53776170206661696C6564207769746820756E6B6E6F776E206572726F720000 PUSH1 0x40 DUP3 ADD MSTORE ADD SWAP1 JUMP JUMPDEST SUB SWAP1 LOG1 PUSH1 0x40 MLOAD PUSH3 0x461BCD PUSH1 0xE5 SHL DUP2 MSTORE PUSH1 0x20 PUSH1 0x4 DUP3 ADD MSTORE PUSH1 0x1E PUSH1 0x24 DUP3 ADD MSTORE PUSH32 0x53776170206661696C6564207769746820756E6B6E6F776E206572726F720000 PUSH1 0x44 DUP3 ADD MSTORE PUSH1 0x64 SWAP1 REVERT JUMPDEST SUB SWAP1 REVERT JUMPDEST PUSH2 0x15CD PUSH2 0x11EC JUMP JUMPDEST DUP1 PUSH2 0x15D8 JUMPI POP PUSH2 0x1521 JUMP JUMPDEST PUSH2 0x15C1 SWAP1 PUSH2 0x1655 PUSH1 0x2D PUSH1 0x40 MLOAD PUSH13 0x29BBB0B8103330B4B632B21D1 PUSH1 0x9D SHL SWAP1 DUP2 PUSH1 0x20 DUP3 ADD MSTORE PUSH1 0x0 DUP1 MLOAD PUSH1 0x20 PUSH2 0x1970 DUP4 CODECOPY DUP2 MLOAD SWAP2 MSTORE PUSH2 0x1638 DUP7 MLOAD SWAP3 PUSH2 0x2FE DUP7 DUP3 PUSH1 0x20 DUP12 ADD SWAP7 PUSH2 0x1628 DUP2 DUP5 DUP5 ADD DUP11 PUSH2 0xFD8 JUMP JUMPDEST DUP2 ADD SUB PUSH1 0xD DUP2 ADD DUP5 MSTORE ADD DUP3 PUSH2 0xF97 JUMP JUMPDEST SUB SWAP1 LOG1 PUSH2 0x1628 PUSH1 0x40 MLOAD SWAP6 DUP7 SWAP4 PUSH1 0x20 DUP6 ADD MSTORE MLOAD DUP1 SWAP3 DUP6 DUP6 ADD SWAP1 PUSH2 0xFD8 JUMP JUMPDEST PUSH1 0x40 MLOAD PUSH3 0x461BCD PUSH1 0xE5 SHL DUP2 MSTORE PUSH1 0x20 PUSH1 0x4 DUP3 ADD MSTORE SWAP2 DUP3 SWAP2 PUSH1 0x24 DUP4 ADD SWAP1 PUSH2 0xFFB JUMP JUMPDEST PUSH1 0x4 DUP2 DUP1 RETURNDATACOPY MLOAD PUSH1 0xE0 SHR PUSH2 0x1516 JUMP JUMPDEST DUP2 ISZERO PUSH2 0x1721 JUMPI PUSH2 0x171B PUSH1 0x0 DUP1 MLOAD PUSH1 0x20 PUSH2 0x1970 DUP4 CODECOPY DUP2 MLOAD SWAP2 MSTORE SWAP2 PUSH2 0x2FE PUSH1 0x37 PUSH2 0x16B3 PUSH2 0x16AD DUP8 PUSH2 0x1084 JUMP JUMPDEST SWAP4 PUSH2 0x1890 JUMP JUMPDEST SWAP3 PUSH1 0x40 MLOAD SWAP4 DUP5 SWAP2 PUSH22 0x29BBB0B81039BAB1B1B2B9B9B33AB6171027BABA1D1 PUSH1 0x55 SHL PUSH1 0x20 DUP5 ADD MSTORE PUSH2 0x16ED DUP2 MLOAD DUP1 SWAP3 PUSH1 0x20 PUSH1 0x36 DUP8 ADD SWAP2 ADD PUSH2 0xFD8 JUMP JUMPDEST DUP3 ADD PUSH1 0x1 PUSH1 0xFD SHL PUSH1 0x36 DUP3 ADD MSTORE PUSH2 0x170C DUP3 MLOAD DUP1 SWAP4 PUSH1 0x20 DUP8 DUP6 ADD SWAP2 ADD PUSH2 0xFD8 JUMP JUMPDEST ADD SUB PUSH1 0x17 DUP2 ADD DUP5 MSTORE ADD DUP3 PUSH2 0xF97 JUMP JUMPDEST SUB SWAP1 LOG1 SWAP1 JUMP JUMPDEST PUSH1 0x40 MLOAD PUSH3 0x461BCD PUSH1 0xE5 SHL DUP2 MSTORE PUSH1 0x20 PUSH1 0x4 DUP3 ADD MSTORE PUSH1 0x1B PUSH1 0x24 DUP3 ADD MSTORE PUSH32 0x5265636569766564207A65726F206F757470757420616D6F756E740000000000 PUSH1 0x44 DUP3 ADD MSTORE PUSH1 0x64 SWAP1 REVERT JUMPDEST SWAP1 SWAP3 PUSH1 0x20 DUP3 RETURNDATASIZE PUSH1 0x20 GT PUSH2 0x1792 JUMPI JUMPDEST DUP2 PUSH2 0x1781 PUSH1 0x20 SWAP4 DUP4 PUSH2 0xF97 JUMP JUMPDEST DUP2 ADD SUB SLT PUSH2 0xA20 JUMPI POP MLOAD SWAP2 CODESIZE PUSH2 0x1506 JUMP JUMPDEST RETURNDATASIZE SWAP2 POP PUSH2 0x1774 JUMP JUMPDEST PUSH2 0x17B2 SWAP1 PUSH1 0x20 RETURNDATASIZE PUSH1 0x20 GT PUSH2 0x7B0 JUMPI PUSH2 0x7A1 DUP2 DUP4 PUSH2 0xF97 JUMP JUMPDEST POP CODESIZE PUSH2 0x1318 JUMP JUMPDEST PUSH1 0x40 MLOAD RETURNDATASIZE PUSH1 0x0 DUP3 RETURNDATACOPY RETURNDATASIZE SWAP1 REVERT JUMPDEST PUSH1 0x40 MLOAD PUSH3 0x461BCD PUSH1 0xE5 SHL DUP2 MSTORE PUSH1 0x20 PUSH1 0x4 DUP3 ADD MSTORE PUSH1 0x23 PUSH1 0x24 DUP3 ADD MSTORE PUSH32 0x496E73756666696369656E7420746F6B656E2062616C616E636520666F722073 PUSH1 0x44 DUP3 ADD MSTORE PUSH3 0x77617 PUSH1 0xEC SHL PUSH1 0x64 DUP3 ADD MSTORE PUSH1 0x84 SWAP1 REVERT JUMPDEST SWAP2 POP PUSH1 0x20 DUP3 RETURNDATASIZE PUSH1 0x20 GT PUSH2 0x1843 JUMPI JUMPDEST DUP2 PUSH2 0x1831 PUSH1 0x20 SWAP4 DUP4 PUSH2 0xF97 JUMP JUMPDEST DUP2 ADD SUB SLT PUSH2 0xA20 JUMPI POP DUP6 SWAP1 MLOAD CODESIZE PUSH2 0x12CC JUMP JUMPDEST RETURNDATASIZE SWAP2 POP PUSH2 0x1824 JUMP JUMPDEST PUSH1 0x40 MLOAD PUSH3 0x461BCD PUSH1 0xE5 SHL DUP2 MSTORE PUSH1 0x20 PUSH1 0x4 DUP3 ADD MSTORE PUSH1 0x1D PUSH1 0x24 DUP3 ADD MSTORE PUSH32 0x416D6F756E74206D7573742062652067726561746572207468616E2030000000 PUSH1 0x44 DUP3 ADD MSTORE PUSH1 0x64 SWAP1 REVERT JUMPDEST PUSH1 0x40 MLOAD PUSH4 0x95D89B41 PUSH1 0xE0 SHL PUSH1 0x20 DUP1 DUP4 ADD SWAP2 DUP3 MSTORE PUSH1 0x4 DUP4 MSTORE SWAP3 SWAP2 PUSH2 0x18B2 DUP2 PUSH2 0xF7B JUMP JUMPDEST PUSH1 0x0 SWAP3 DUP4 SWAP3 DUP4 SWAP3 MLOAD SWAP2 GAS STATICCALL SWAP1 PUSH2 0x18C6 PUSH2 0x125E JUMP JUMPDEST SWAP2 DUP1 PUSH2 0x1965 JUMPI JUMPDEST PUSH2 0x18F5 JUMPI POP POP PUSH7 0x2AA725A727ABA7 PUSH1 0xC9 SHL PUSH1 0x40 MLOAD SWAP2 PUSH2 0x18EB DUP4 PUSH2 0xF7B JUMP JUMPDEST PUSH1 0x7 DUP4 MSTORE DUP3 ADD MSTORE SWAP1 JUMP JUMPDEST SWAP1 SWAP2 DUP3 MLOAD DUP4 ADD SWAP3 DUP2 DUP2 DUP2 DUP7 ADD SWAP6 SUB SLT PUSH2 0xA1C JUMPI DUP2 DUP2 ADD MLOAD SWAP1 PUSH8 0xFFFFFFFFFFFFFFFF DUP3 GT PUSH2 0xDA4 JUMPI ADD SWAP1 DUP4 PUSH1 0x3F DUP4 ADD SLT ISZERO PUSH2 0xA1C JUMPI DUP1 DUP3 ADD MLOAD SWAP3 PUSH2 0x1937 DUP5 PUSH2 0x1020 JUMP JUMPDEST SWAP5 PUSH2 0x1945 PUSH1 0x40 MLOAD SWAP7 DUP8 PUSH2 0xF97 JUMP JUMPDEST DUP5 DUP7 MSTORE PUSH1 0x40 DUP6 DUP6 ADD ADD GT PUSH2 0xA20 JUMPI POP SWAP1 PUSH1 0x40 PUSH2 0x124A SWAP4 SWAP3 DUP6 ADD SWAP2 ADD PUSH2 0xFD8 JUMP JUMPDEST POP DUP2 MLOAD ISZERO ISZERO PUSH2 0x18CD JUMP INVALID PUSH29 0xDB51E9DBBC205231228146C3246E7F914AA6D4A33170E43ECC8E359348 SAR BYTE LOG2 PUSH5 0x6970667358 0x22 SLT KECCAK256 CALLDATALOAD 0x2B 0xD8 PUSH28 0x5860B1CFC5509B96C3FFFC96B44A43F1AFF054D64B8AE1EFAD868626 PUSH5 0x736F6C6343 STOP ADDMOD EQ STOP CALLER "},"methodIdentifiers":{"owner()":"8da5cb5b","startUniswapV3Flash(address,uint256,uint256,address,uint24,uint24,uint256,uint8,address,address)":"85d8609d","uniswapV3FlashCallback(uint256,uint256,bytes)":"e9cbafb0","withdraw(address)":"51cff8d9"}}}}}