{"contracts/FlashLoanArbitrageur.sol":{"FlashLoanArbitrageur":{"abi":[{"inputs":[{"internalType":"address","name":"_aavePool","type":"address"},{"internalType":"address","name":"_addressesProvider","type":"address"},{"internalType":"address","name":"_uniswapRouter","type":"address"},{"internalType":"address","name":"_sushiswapRouter","type":"address"}],"stateMutability":"nonpayable","type":"constructor"},{"anonymous":false,"inputs":[{"indexed":true,"internalType":"address","name":"initiator","type":"address"},{"indexed":false,"internalType":"address","name":"asset","type":"address"},{"indexed":false,"internalType":"uint256","name":"profit","type":"uint256"}],"name":"ArbitrageExecuted","type":"event"},{"anonymous":false,"inputs":[{"indexed":false,"internalType":"string","name":"message","type":"string"}],"name":"Debug","type":"event"},{"anonymous":false,"inputs":[{"indexed":true,"internalType":"address","name":"token","type":"address"},{"indexed":false,"internalType":"uint256","name":"amount","type":"uint256"}],"name":"Withdraw","type":"event"},{"inputs":[],"name":"ADDRESSES_PROVIDER","outputs":[{"internalType":"contract IPoolAddressesProvider","name":"","type":"address"}],"stateMutability":"view","type":"function"},{"inputs":[],"name":"POOL","outputs":[{"internalType":"contract IPool","name":"","type":"address"}],"stateMutability":"view","type":"function"},{"inputs":[],"name":"aavePool","outputs":[{"internalType":"contract IPool","name":"","type":"address"}],"stateMutability":"view","type":"function"},{"inputs":[],"name":"addressesProvider","outputs":[{"internalType":"contract IPoolAddressesProvider","name":"","type":"address"}],"stateMutability":"view","type":"function"},{"inputs":[{"internalType":"address","name":"asset","type":"address"},{"internalType":"uint256","name":"amount","type":"uint256"},{"internalType":"address","name":"tokenMid","type":"address"},{"internalType":"uint24","name":"fee1","type":"uint24"},{"internalType":"uint24","name":"fee2","type":"uint24"},{"internalType":"uint256","name":"minProfit","type":"uint256"},{"internalType":"uint8","name":"direction","type":"uint8"}],"name":"executeArbitrage","outputs":[],"stateMutability":"nonpayable","type":"function"},{"inputs":[{"internalType":"address","name":"asset","type":"address"},{"internalType":"uint256","name":"amount","type":"uint256"},{"internalType":"uint256","name":"premium","type":"uint256"},{"internalType":"address","name":"initiator","type":"address"},{"internalType":"bytes","name":"params","type":"bytes"}],"name":"executeOperation","outputs":[{"internalType":"bool","name":"","type":"bool"}],"stateMutability":"nonpayable","type":"function"},{"inputs":[],"name":"owner","outputs":[{"internalType":"address","name":"","type":"address"}],"stateMutability":"view","type":"function"},{"inputs":[],"name":"sushiswapRouter","outputs":[{"internalType":"contract ISwapRouter","name":"","type":"address"}],"stateMutability":"view","type":"function"},{"inputs":[],"name":"uniswapRouter","outputs":[{"internalType":"contract ISwapRouter","name":"","type":"address"}],"stateMutability":"view","type":"function"},{"inputs":[{"internalType":"address","name":"token","type":"address"}],"name":"withdraw","outputs":[],"stateMutability":"nonpayable","type":"function"}],"evm":{"bytecode":{"linkReferences":{},"object":"610100346100fa57601f610f0338819003918201601f19168301916001600160401b038311848410176100ff578084926080946040528339810103126100fa5761004881610115565b9061005560208201610115565b9161006e606061006760408501610115565b9301610115565b600080546001600160a01b031916331790556001600160a01b0391821660805292811660a05290811660c0521660e052604051610dd9908161012a823960805181818161040f015281816105e20152610b1e015260a05181610ac3015260c05181818161011c015281816107900152610949015260e05181818160a4015281816107e101526109850152f35b600080fd5b634e487b7160e01b600052604160045260246000fd5b51906001600160a01b03821682036100fa5756fe6040608081526004908136101561001557600080fd5b600091823560e01c9081630542975c14610aad5781631b11d0ff146105155781633d973427146102d857816351cff8d91461014b57508063735de9f7146101085780637535d246146100dc5780638da5cb5b146100e1578063a03e4bc3146100dc578063c72c4d10146100d75763e9240c2d1461009157600080fd5b346100d357816003193601126100d357517f00000000000000000000000000000000000000000000000000000000000000006001600160a01b03168152602090f35b5080fd5b610aad565b610b08565b50346100d357816003193601126100d357905490516001600160a01b039091168152602090f35b50346100d357816003193601126100d357517f00000000000000000000000000000000000000000000000000000000000000006001600160a01b03168152602090f35b919050346102d4576020806003193601126102d057610168610af2565b84546001600160a01b039081169391610182338614610b4d565b16928151946370a0823160e01b865230818701528386602481885afa9586156102c6578796610292575b50851561025957825163a9059cbb60e01b81526001600160a01b039092169082019081526020810186905290949190839086908190604001038189885af194851561024f577f884edad9ce6fa2440d8a54cc123490eb96d2768479d49ff9c7366125a94243649495610222575b5051908152a280f35b61024190843d8611610248575b6102398183610bb7565b810190610c0c565b5038610219565b503d61022f565b81513d88823e3d90fd5b825162461bcd60e51b815290810184905260136024820152724e6f7468696e6720746f20776974686472617760681b6044820152606490fd5b9095508381813d83116102bf575b6102aa8183610bb7565b810103126102ba575194386101ac565b600080fd5b503d6102a0565b83513d89823e3d90fd5b8380fd5b8280fd5b919050346102d45760e03660031901126102d4576102f4610af2565b6001600160a01b03604435818116949290859003610511576064359462ffffff9586811680910361050d57608435908782168092036105095760c4359060ff82168092036104f25760169860ff93610350888d54163314610b4d565b7f7cdb51e9dbbc205231228146c3246e7f914aa6d4a33170e43ecc8e3593481d1a60608b5160209d8e808352820152755374617274206578656375746541726269747261676560501b8d820152a1818a51936103ab85610b85565b8785528c85019081528b85019283526080606086019560a4358752019586528b51978d89015251168a87015251166060850152516080840152511660a082015260a0815260c081019567ffffffffffffffff87119382881085176104f657878752807f00000000000000000000000000000000000000000000000000000000000000001693843b156104f257918893918a95936310ac2ddf60e21b86523060c48501521660e483015260243561010483015260a061012483015281519081610164840152855b8281106104d757505060c48282876101848195899701015283610144830152601f801991011681010301925af180156104cd576104ac578480f35b6104ba575052388080808480f35b634e487b7160e01b845260419052602483fd5b83513d87823e3d90fd5b80840180830151610184909101528b96508a95508101610471565b8980fd5b634e487b7160e01b895260418652602489fd5b8880fd5b8780fd5b8580fd5b9050346102d45760a03660031901126102d457610530610af2565b6001600160a01b03919060643583811691602480359284900361050d576084359767ffffffffffffffff95868a116100d3573660238b0112156100d357898101359687116100d3573683888c0101116100d35788519760209a8b98898b5260168a8c01527529ba30b93a1032bc32b1baba32a7b832b930ba34b7b760511b8c8c01528b7f7cdb51e9dbbc205231228146c3246e7f914aa6d4a33170e43ecc8e3593481d1a809c819c60609d8e8093a1867f0000000000000000000000000000000000000000000000000000000000000000163314159384610a73575b50505050610a3057308914158b8b8f8f846109f6575b505050506109b357908a8a8e715374617274205f646f41726269747261676560701b8f89838c999887878551848152601285820152714176616e74205f646f41726269747261676560701b87820152a183519a819061068a601f8301601f191685018e610bb7565b818d52838d019a018a378a0101526012815193808552840152820152a160a0838051810103126109af578b51906106c082610b85565b5182811681036105115781526106d78c8401610bd9565b908d81019182526106e98b8501610bd9565b918d820192835260a06080860151958d8401968752015160ff8116810361050d578f908f9694958f948f94978d8f9261082e9a8e60ff610810988f978c8c8f928c7104265666f7265207365636f6e6420737761760741b9185858f60808e01998a527004265666f7265206669727374207377617607c1b815191888352601189840152820152a18c888851161560001461097357506107b4918b511662ffffff8b5116908d7f0000000000000000000000000000000000000000000000000000000000000000610c24565b9b5b6012815193808552840152820152a151161515905061093657506108059462ffffff915116925116917f0000000000000000000000000000000000000000000000000000000000000000610c24565b9b5b60443590610be9565b9561081c855188610be9565b8c106108fc575b505050505182610be9565b86106108c65785039485116108b657505086516001600160a01b039290921682525060208101919091527f546205492ce144edebd2cc39035c50dbd9aebfec90cbcae9c9ae2914d1e130f790604090a28251848152601f858201527f4172626974726167652066696e6973686564207375636365737366756c6c790084820152a15160018152f35b634e487b7160e01b825260119052fd5b895162461bcd60e51b81528083018c905260118186015270139bdd08195b9bdd59da081c1c9bd99a5d607a1b6044820152606490fd5b8060177f4641494c3a204e6f7420656e6f7567682070726f666974000000000000000000925193808552840152820152a18a8a8e8e610823565b925061096d9462ffffff915116925116917f0000000000000000000000000000000000000000000000000000000000000000610c24565b9b610807565b62ffffff6109a9938d5116915116908d7f0000000000000000000000000000000000000000000000000000000000000000610c24565b9b6107b6565b8480fd5b508a5162461bcd60e51b81528084018d90526019818701527f4e6f7420696e6974696174656420627920636f6e7472616374000000000000006044820152606490fd5b80601f7f4641494c3a204e6f7420696e6974696174656420627920636f6e747261637400925193808552840152820152a18b8b8f8f610622565b508a5162461bcd60e51b81528084018d90526017818701527f4f6e6c79204161766520706f6f6c2063616e2063616c6c0000000000000000006044820152606490fd5b80601d7f4641494c3a204e6f742063616c6c6564206279204161766520706f6f6c000000925193808552840152820152a18b8b8f8f61060c565b346102ba5760003660031901126102ba576040517f00000000000000000000000000000000000000000000000000000000000000006001600160a01b03168152602090f35b600435906001600160a01b03821682036102ba57565b346102ba5760003660031901126102ba576040517f00000000000000000000000000000000000000000000000000000000000000006001600160a01b03168152602090f35b15610b5457565b60405162461bcd60e51b81526020600482015260096024820152682737ba1037bbb732b960b91b6044820152606490fd5b60a0810190811067ffffffffffffffff821117610ba157604052565b634e487b7160e01b600052604160045260246000fd5b90601f8019910116810190811067ffffffffffffffff821117610ba157604052565b519062ffffff821682036102ba57565b91908201809211610bf657565b634e487b7160e01b600052601160045260246000fd5b908160209103126102ba575180151581036102ba5790565b6040805163095ea7b360e01b81526001600160a01b03928316600482018190526024820188905291969493909216916020816044816000875af18015610d9857610d79575b5085519061010082019082821067ffffffffffffffff831117610ba1579087529181526001600160a01b03928316602082810191825262ffffff9687168389019081523060608501908152426080860190815260a08601988952600060c0870181815260e088018281528d5163414bf38960e01b815298518b1660048a015296518a1660248901529351909a166044870152905187166064860152516084850152955160a4840152945160c48301525190921660e4830152909283916101049183915af1918215610d6f5750600091610d40575090565b90506020813d602011610d67575b81610d5b60209383610bb7565b810103126102ba575190565b3d9150610d4e565b513d6000823e3d90fd5b610d919060203d602011610248576102398183610bb7565b5038610c69565b87513d6000823e3d90fdfea264697066735822122071e13de060742f024c44f55f5ee6d7a33c44b84fdb8607d5f299c8e0c572148664736f6c63430008140033","opcodes":"PUSH2 0x100 CALLVALUE PUSH2 0xFA JUMPI PUSH1 0x1F PUSH2 0xF03 CODESIZE DUP2 SWAP1 SUB SWAP2 DUP3 ADD PUSH1 0x1F NOT AND DUP4 ADD SWAP2 PUSH1 0x1 PUSH1 0x1 PUSH1 0x40 SHL SUB DUP4 GT DUP5 DUP5 LT OR PUSH2 0xFF JUMPI DUP1 DUP5 SWAP3 PUSH1 0x80 SWAP5 PUSH1 0x40 MSTORE DUP4 CODECOPY DUP2 ADD SUB SLT PUSH2 0xFA JUMPI PUSH2 0x48 DUP2 PUSH2 0x115 JUMP JUMPDEST SWAP1 PUSH2 0x55 PUSH1 0x20 DUP3 ADD PUSH2 0x115 JUMP JUMPDEST SWAP2 PUSH2 0x6E PUSH1 0x60 PUSH2 0x67 PUSH1 0x40 DUP6 ADD PUSH2 0x115 JUMP JUMPDEST SWAP4 ADD PUSH2 0x115 JUMP JUMPDEST PUSH1 0x0 DUP1 SLOAD PUSH1 0x1 PUSH1 0x1 PUSH1 0xA0 SHL SUB NOT AND CALLER OR SWAP1 SSTORE PUSH1 0x1 PUSH1 0x1 PUSH1 0xA0 SHL SUB SWAP2 DUP3 AND PUSH1 0x80 MSTORE SWAP3 DUP2 AND PUSH1 0xA0 MSTORE SWAP1 DUP2 AND PUSH1 0xC0 MSTORE AND PUSH1 0xE0 MSTORE PUSH1 0x40 MLOAD PUSH2 0xDD9 SWAP1 DUP2 PUSH2 0x12A DUP3 CODECOPY PUSH1 0x80 MLOAD DUP2 DUP2 DUP2 PUSH2 0x40F ADD MSTORE DUP2 DUP2 PUSH2 0x5E2 ADD MSTORE PUSH2 0xB1E ADD MSTORE PUSH1 0xA0 MLOAD DUP2 PUSH2 0xAC3 ADD MSTORE PUSH1 0xC0 MLOAD DUP2 DUP2 DUP2 PUSH2 0x11C ADD MSTORE DUP2 DUP2 PUSH2 0x790 ADD MSTORE PUSH2 0x949 ADD MSTORE PUSH1 0xE0 MLOAD DUP2 DUP2 DUP2 PUSH1 0xA4 ADD MSTORE DUP2 DUP2 PUSH2 0x7E1 ADD MSTORE PUSH2 0x985 ADD MSTORE RETURN JUMPDEST PUSH1 0x0 DUP1 REVERT JUMPDEST PUSH4 0x4E487B71 PUSH1 0xE0 SHL PUSH1 0x0 MSTORE PUSH1 0x41 PUSH1 0x4 MSTORE PUSH1 0x24 PUSH1 0x0 REVERT JUMPDEST MLOAD SWAP1 PUSH1 0x1 PUSH1 0x1 PUSH1 0xA0 SHL SUB DUP3 AND DUP3 SUB PUSH2 0xFA JUMPI JUMP INVALID PUSH1 0x40 PUSH1 0x80 DUP2 MSTORE PUSH1 0x4 SWAP1 DUP2 CALLDATASIZE LT ISZERO PUSH2 0x15 JUMPI PUSH1 0x0 DUP1 REVERT JUMPDEST PUSH1 0x0 SWAP2 DUP3 CALLDATALOAD PUSH1 0xE0 SHR SWAP1 DUP2 PUSH4 0x542975C EQ PUSH2 0xAAD JUMPI DUP2 PUSH4 0x1B11D0FF EQ PUSH2 0x515 JUMPI DUP2 PUSH4 0x3D973427 EQ PUSH2 0x2D8 JUMPI DUP2 PUSH4 0x51CFF8D9 EQ PUSH2 0x14B JUMPI POP DUP1 PUSH4 0x735DE9F7 EQ PUSH2 0x108 JUMPI DUP1 PUSH4 0x7535D246 EQ PUSH2 0xDC JUMPI DUP1 PUSH4 0x8DA5CB5B EQ PUSH2 0xE1 JUMPI DUP1 PUSH4 0xA03E4BC3 EQ PUSH2 0xDC JUMPI DUP1 PUSH4 0xC72C4D10 EQ PUSH2 0xD7 JUMPI PUSH4 0xE9240C2D EQ PUSH2 0x91 JUMPI PUSH1 0x0 DUP1 REVERT JUMPDEST CALLVALUE PUSH2 0xD3 JUMPI DUP2 PUSH1 0x3 NOT CALLDATASIZE ADD SLT PUSH2 0xD3 JUMPI MLOAD PUSH32 0x0 PUSH1 0x1 PUSH1 0x1 PUSH1 0xA0 SHL SUB AND DUP2 MSTORE PUSH1 0x20 SWAP1 RETURN JUMPDEST POP DUP1 REVERT JUMPDEST PUSH2 0xAAD JUMP JUMPDEST PUSH2 0xB08 JUMP JUMPDEST POP CALLVALUE PUSH2 0xD3 JUMPI DUP2 PUSH1 0x3 NOT CALLDATASIZE ADD SLT PUSH2 0xD3 JUMPI SWAP1 SLOAD SWAP1 MLOAD PUSH1 0x1 PUSH1 0x1 PUSH1 0xA0 SHL SUB SWAP1 SWAP2 AND DUP2 MSTORE PUSH1 0x20 SWAP1 RETURN JUMPDEST POP CALLVALUE PUSH2 0xD3 JUMPI DUP2 PUSH1 0x3 NOT CALLDATASIZE ADD SLT PUSH2 0xD3 JUMPI MLOAD PUSH32 0x0 PUSH1 0x1 PUSH1 0x1 PUSH1 0xA0 SHL SUB AND DUP2 MSTORE PUSH1 0x20 SWAP1 RETURN JUMPDEST SWAP2 SWAP1 POP CALLVALUE PUSH2 0x2D4 JUMPI PUSH1 0x20 DUP1 PUSH1 0x3 NOT CALLDATASIZE ADD SLT PUSH2 0x2D0 JUMPI PUSH2 0x168 PUSH2 0xAF2 JUMP JUMPDEST DUP5 SLOAD PUSH1 0x1 PUSH1 0x1 PUSH1 0xA0 SHL SUB SWAP1 DUP2 AND SWAP4 SWAP2 PUSH2 0x182 CALLER DUP7 EQ PUSH2 0xB4D JUMP JUMPDEST AND SWAP3 DUP2 MLOAD SWAP5 PUSH4 0x70A08231 PUSH1 0xE0 SHL DUP7 MSTORE ADDRESS DUP2 DUP8 ADD MSTORE DUP4 DUP7 PUSH1 0x24 DUP2 DUP9 GAS STATICCALL SWAP6 DUP7 ISZERO PUSH2 0x2C6 JUMPI DUP8 SWAP7 PUSH2 0x292 JUMPI JUMPDEST POP DUP6 ISZERO PUSH2 0x259 JUMPI DUP3 MLOAD PUSH4 0xA9059CBB PUSH1 0xE0 SHL DUP2 MSTORE PUSH1 0x1 PUSH1 0x1 PUSH1 0xA0 SHL SUB SWAP1 SWAP3 AND SWAP1 DUP3 ADD SWAP1 DUP2 MSTORE PUSH1 0x20 DUP2 ADD DUP7 SWAP1 MSTORE SWAP1 SWAP5 SWAP2 SWAP1 DUP4 SWAP1 DUP7 SWAP1 DUP2 SWAP1 PUSH1 0x40 ADD SUB DUP2 DUP10 DUP9 GAS CALL SWAP5 DUP6 ISZERO PUSH2 0x24F JUMPI PUSH32 0x884EDAD9CE6FA2440D8A54CC123490EB96D2768479D49FF9C7366125A9424364 SWAP5 SWAP6 PUSH2 0x222 JUMPI JUMPDEST POP MLOAD SWAP1 DUP2 MSTORE LOG2 DUP1 RETURN JUMPDEST PUSH2 0x241 SWAP1 DUP5 RETURNDATASIZE DUP7 GT PUSH2 0x248 JUMPI JUMPDEST PUSH2 0x239 DUP2 DUP4 PUSH2 0xBB7 JUMP JUMPDEST DUP2 ADD SWAP1 PUSH2 0xC0C JUMP JUMPDEST POP CODESIZE PUSH2 0x219 JUMP JUMPDEST POP RETURNDATASIZE PUSH2 0x22F JUMP JUMPDEST DUP2 MLOAD RETURNDATASIZE DUP9 DUP3 RETURNDATACOPY RETURNDATASIZE SWAP1 REVERT JUMPDEST DUP3 MLOAD PUSH3 0x461BCD PUSH1 0xE5 SHL DUP2 MSTORE SWAP1 DUP2 ADD DUP5 SWAP1 MSTORE PUSH1 0x13 PUSH1 0x24 DUP3 ADD MSTORE PUSH19 0x4E6F7468696E6720746F207769746864726177 PUSH1 0x68 SHL PUSH1 0x44 DUP3 ADD MSTORE PUSH1 0x64 SWAP1 REVERT JUMPDEST SWAP1 SWAP6 POP DUP4 DUP2 DUP2 RETURNDATASIZE DUP4 GT PUSH2 0x2BF JUMPI JUMPDEST PUSH2 0x2AA DUP2 DUP4 PUSH2 0xBB7 JUMP JUMPDEST DUP2 ADD SUB SLT PUSH2 0x2BA JUMPI MLOAD SWAP5 CODESIZE PUSH2 0x1AC JUMP JUMPDEST PUSH1 0x0 DUP1 REVERT JUMPDEST POP RETURNDATASIZE PUSH2 0x2A0 JUMP JUMPDEST DUP4 MLOAD RETURNDATASIZE DUP10 DUP3 RETURNDATACOPY RETURNDATASIZE SWAP1 REVERT JUMPDEST DUP4 DUP1 REVERT JUMPDEST DUP3 DUP1 REVERT JUMPDEST SWAP2 SWAP1 POP CALLVALUE PUSH2 0x2D4 JUMPI PUSH1 0xE0 CALLDATASIZE PUSH1 0x3 NOT ADD SLT PUSH2 0x2D4 JUMPI PUSH2 0x2F4 PUSH2 0xAF2 JUMP JUMPDEST PUSH1 0x1 PUSH1 0x1 PUSH1 0xA0 SHL SUB PUSH1 0x44 CALLDATALOAD DUP2 DUP2 AND SWAP5 SWAP3 SWAP1 DUP6 SWAP1 SUB PUSH2 0x511 JUMPI PUSH1 0x64 CALLDATALOAD SWAP5 PUSH3 0xFFFFFF SWAP6 DUP7 DUP2 AND DUP1 SWAP2 SUB PUSH2 0x50D JUMPI PUSH1 0x84 CALLDATALOAD SWAP1 DUP8 DUP3 AND DUP1 SWAP3 SUB PUSH2 0x509 JUMPI PUSH1 0xC4 CALLDATALOAD SWAP1 PUSH1 0xFF DUP3 AND DUP1 SWAP3 SUB PUSH2 0x4F2 JUMPI PUSH1 0x16 SWAP9 PUSH1 0xFF SWAP4 PUSH2 0x350 DUP9 DUP14 SLOAD AND CALLER EQ PUSH2 0xB4D JUMP JUMPDEST PUSH32 0x7CDB51E9DBBC205231228146C3246E7F914AA6D4A33170E43ECC8E3593481D1A PUSH1 0x60 DUP12 MLOAD PUSH1 0x20 SWAP14 DUP15 DUP1 DUP4 MSTORE DUP3 ADD MSTORE PUSH22 0x53746172742065786563757465417262697472616765 PUSH1 0x50 SHL DUP14 DUP3 ADD MSTORE LOG1 DUP2 DUP11 MLOAD SWAP4 PUSH2 0x3AB DUP6 PUSH2 0xB85 JUMP JUMPDEST DUP8 DUP6 MSTORE DUP13 DUP6 ADD SWAP1 DUP2 MSTORE DUP12 DUP6 ADD SWAP3 DUP4 MSTORE PUSH1 0x80 PUSH1 0x60 DUP7 ADD SWAP6 PUSH1 0xA4 CALLDATALOAD DUP8 MSTORE ADD SWAP6 DUP7 MSTORE DUP12 MLOAD SWAP8 DUP14 DUP10 ADD MSTORE MLOAD AND DUP11 DUP8 ADD MSTORE MLOAD AND PUSH1 0x60 DUP6 ADD MSTORE MLOAD PUSH1 0x80 DUP5 ADD MSTORE MLOAD AND PUSH1 0xA0 DUP3 ADD MSTORE PUSH1 0xA0 DUP2 MSTORE PUSH1 0xC0 DUP2 ADD SWAP6 PUSH8 0xFFFFFFFFFFFFFFFF DUP8 GT SWAP4 DUP3 DUP9 LT DUP6 OR PUSH2 0x4F6 JUMPI DUP8 DUP8 MSTORE DUP1 PUSH32 0x0 AND SWAP4 DUP5 EXTCODESIZE ISZERO PUSH2 0x4F2 JUMPI SWAP2 DUP9 SWAP4 SWAP2 DUP11 SWAP6 SWAP4 PUSH4 0x10AC2DDF PUSH1 0xE2 SHL DUP7 MSTORE ADDRESS PUSH1 0xC4 DUP6 ADD MSTORE AND PUSH1 0xE4 DUP4 ADD MSTORE PUSH1 0x24 CALLDATALOAD PUSH2 0x104 DUP4 ADD MSTORE PUSH1 0xA0 PUSH2 0x124 DUP4 ADD MSTORE DUP2 MLOAD SWAP1 DUP2 PUSH2 0x164 DUP5 ADD MSTORE DUP6 JUMPDEST DUP3 DUP2 LT PUSH2 0x4D7 JUMPI POP POP PUSH1 0xC4 DUP3 DUP3 DUP8 PUSH2 0x184 DUP2 SWAP6 DUP10 SWAP8 ADD ADD MSTORE DUP4 PUSH2 0x144 DUP4 ADD MSTORE PUSH1 0x1F DUP1 NOT SWAP2 ADD AND DUP2 ADD SUB ADD SWAP3 GAS CALL DUP1 ISZERO PUSH2 0x4CD JUMPI PUSH2 0x4AC JUMPI DUP5 DUP1 RETURN JUMPDEST PUSH2 0x4BA JUMPI POP MSTORE CODESIZE DUP1 DUP1 DUP1 DUP5 DUP1 RETURN JUMPDEST PUSH4 0x4E487B71 PUSH1 0xE0 SHL DUP5 MSTORE PUSH1 0x41 SWAP1 MSTORE PUSH1 0x24 DUP4 REVERT JUMPDEST DUP4 MLOAD RETURNDATASIZE DUP8 DUP3 RETURNDATACOPY RETURNDATASIZE SWAP1 REVERT JUMPDEST DUP1 DUP5 ADD DUP1 DUP4 ADD MLOAD PUSH2 0x184 SWAP1 SWAP2 ADD MSTORE DUP12 SWAP7 POP DUP11 SWAP6 POP DUP2 ADD PUSH2 0x471 JUMP JUMPDEST DUP10 DUP1 REVERT JUMPDEST PUSH4 0x4E487B71 PUSH1 0xE0 SHL DUP10 MSTORE PUSH1 0x41 DUP7 MSTORE PUSH1 0x24 DUP10 REVERT JUMPDEST DUP9 DUP1 REVERT JUMPDEST DUP8 DUP1 REVERT JUMPDEST DUP6 DUP1 REVERT JUMPDEST SWAP1 POP CALLVALUE PUSH2 0x2D4 JUMPI PUSH1 0xA0 CALLDATASIZE PUSH1 0x3 NOT ADD SLT PUSH2 0x2D4 JUMPI PUSH2 0x530 PUSH2 0xAF2 JUMP JUMPDEST PUSH1 0x1 PUSH1 0x1 PUSH1 0xA0 SHL SUB SWAP2 SWAP1 PUSH1 0x64 CALLDATALOAD DUP4 DUP2 AND SWAP2 PUSH1 0x24 DUP1 CALLDATALOAD SWAP3 DUP5 SWAP1 SUB PUSH2 0x50D JUMPI PUSH1 0x84 CALLDATALOAD SWAP8 PUSH8 0xFFFFFFFFFFFFFFFF SWAP6 DUP7 DUP11 GT PUSH2 0xD3 JUMPI CALLDATASIZE PUSH1 0x23 DUP12 ADD SLT ISZERO PUSH2 0xD3 JUMPI DUP10 DUP2 ADD CALLDATALOAD SWAP7 DUP8 GT PUSH2 0xD3 JUMPI CALLDATASIZE DUP4 DUP9 DUP13 ADD ADD GT PUSH2 0xD3 JUMPI DUP9 MLOAD SWAP8 PUSH1 0x20 SWAP11 DUP12 SWAP9 DUP10 DUP12 MSTORE PUSH1 0x16 DUP11 DUP13 ADD MSTORE PUSH22 0x29BA30B93A1032BC32B1BABA32A7B832B930BA34B7B7 PUSH1 0x51 SHL DUP13 DUP13 ADD MSTORE DUP12 PUSH32 0x7CDB51E9DBBC205231228146C3246E7F914AA6D4A33170E43ECC8E3593481D1A DUP1 SWAP13 DUP2 SWAP13 PUSH1 0x60 SWAP14 DUP15 DUP1 SWAP4 LOG1 DUP7 PUSH32 0x0 AND CALLER EQ ISZERO SWAP4 DUP5 PUSH2 0xA73 JUMPI JUMPDEST POP POP POP POP PUSH2 0xA30 JUMPI ADDRESS DUP10 EQ ISZERO DUP12 DUP12 DUP16 DUP16 DUP5 PUSH2 0x9F6 JUMPI JUMPDEST POP POP POP POP PUSH2 0x9B3 JUMPI SWAP1 DUP11 DUP11 DUP15 PUSH18 0x5374617274205F646F417262697472616765 PUSH1 0x70 SHL DUP16 DUP10 DUP4 DUP13 SWAP10 SWAP9 DUP8 DUP8 DUP6 MLOAD DUP5 DUP2 MSTORE PUSH1 0x12 DUP6 DUP3 ADD MSTORE PUSH18 0x4176616E74205F646F417262697472616765 PUSH1 0x70 SHL DUP8 DUP3 ADD MSTORE LOG1 DUP4 MLOAD SWAP11 DUP2 SWAP1 PUSH2 0x68A PUSH1 0x1F DUP4 ADD PUSH1 0x1F NOT AND DUP6 ADD DUP15 PUSH2 0xBB7 JUMP JUMPDEST DUP2 DUP14 MSTORE DUP4 DUP14 ADD SWAP11 ADD DUP11 CALLDATACOPY DUP11 ADD ADD MSTORE PUSH1 0x12 DUP2 MLOAD SWAP4 DUP1 DUP6 MSTORE DUP5 ADD MSTORE DUP3 ADD MSTORE LOG1 PUSH1 0xA0 DUP4 DUP1 MLOAD DUP2 ADD SUB SLT PUSH2 0x9AF JUMPI DUP12 MLOAD SWAP1 PUSH2 0x6C0 DUP3 PUSH2 0xB85 JUMP JUMPDEST MLOAD DUP3 DUP2 AND DUP2 SUB PUSH2 0x511 JUMPI DUP2 MSTORE PUSH2 0x6D7 DUP13 DUP5 ADD PUSH2 0xBD9 JUMP JUMPDEST SWAP1 DUP14 DUP2 ADD SWAP2 DUP3 MSTORE PUSH2 0x6E9 DUP12 DUP6 ADD PUSH2 0xBD9 JUMP JUMPDEST SWAP2 DUP14 DUP3 ADD SWAP3 DUP4 MSTORE PUSH1 0xA0 PUSH1 0x80 DUP7 ADD MLOAD SWAP6 DUP14 DUP5 ADD SWAP7 DUP8 MSTORE ADD MLOAD PUSH1 0xFF DUP2 AND DUP2 SUB PUSH2 0x50D JUMPI DUP16 SWAP1 DUP16 SWAP7 SWAP5 SWAP6 DUP16 SWAP5 DUP16 SWAP5 SWAP8 DUP14 DUP16 SWAP3 PUSH2 0x82E SWAP11 DUP15 PUSH1 0xFF PUSH2 0x810 SWAP9 DUP16 SWAP8 DUP13 DUP13 DUP16 SWAP3 DUP13 PUSH18 0x4265666F7265207365636F6E64207377617 PUSH1 0x74 SHL SWAP2 DUP6 DUP6 DUP16 PUSH1 0x80 DUP15 ADD SWAP10 DUP11 MSTORE PUSH17 0x4265666F7265206669727374207377617 PUSH1 0x7C SHL DUP2 MLOAD SWAP2 DUP9 DUP4 MSTORE PUSH1 0x11 DUP10 DUP5 ADD MSTORE DUP3 ADD MSTORE LOG1 DUP13 DUP9 DUP9 MLOAD AND ISZERO PUSH1 0x0 EQ PUSH2 0x973 JUMPI POP PUSH2 0x7B4 SWAP2 DUP12 MLOAD AND PUSH3 0xFFFFFF DUP12 MLOAD AND SWAP1 DUP14 PUSH32 0x0 PUSH2 0xC24 JUMP JUMPDEST SWAP12 JUMPDEST PUSH1 0x12 DUP2 MLOAD SWAP4 DUP1 DUP6 MSTORE DUP5 ADD MSTORE DUP3 ADD MSTORE LOG1 MLOAD AND ISZERO ISZERO SWAP1 POP PUSH2 0x936 JUMPI POP PUSH2 0x805 SWAP5 PUSH3 0xFFFFFF SWAP2 MLOAD AND SWAP3 MLOAD AND SWAP2 PUSH32 0x0 PUSH2 0xC24 JUMP JUMPDEST SWAP12 JUMPDEST PUSH1 0x44 CALLDATALOAD SWAP1 PUSH2 0xBE9 JUMP JUMPDEST SWAP6 PUSH2 0x81C DUP6 MLOAD DUP9 PUSH2 0xBE9 JUMP JUMPDEST DUP13 LT PUSH2 0x8FC JUMPI JUMPDEST POP POP POP POP MLOAD DUP3 PUSH2 0xBE9 JUMP JUMPDEST DUP7 LT PUSH2 0x8C6 JUMPI DUP6 SUB SWAP5 DUP6 GT PUSH2 0x8B6 JUMPI POP POP DUP7 MLOAD PUSH1 0x1 PUSH1 0x1 PUSH1 0xA0 SHL SUB SWAP3 SWAP1 SWAP3 AND DUP3 MSTORE POP PUSH1 0x20 DUP2 ADD SWAP2 SWAP1 SWAP2 MSTORE PUSH32 0x546205492CE144EDEBD2CC39035C50DBD9AEBFEC90CBCAE9C9AE2914D1E130F7 SWAP1 PUSH1 0x40 SWAP1 LOG2 DUP3 MLOAD DUP5 DUP2 MSTORE PUSH1 0x1F DUP6 DUP3 ADD MSTORE PUSH32 0x4172626974726167652066696E6973686564207375636365737366756C6C7900 DUP5 DUP3 ADD MSTORE LOG1 MLOAD PUSH1 0x1 DUP2 MSTORE RETURN JUMPDEST PUSH4 0x4E487B71 PUSH1 0xE0 SHL DUP3 MSTORE PUSH1 0x11 SWAP1 MSTORE REVERT JUMPDEST DUP10 MLOAD PUSH3 0x461BCD PUSH1 0xE5 SHL DUP2 MSTORE DUP1 DUP4 ADD DUP13 SWAP1 MSTORE PUSH1 0x11 DUP2 DUP7 ADD MSTORE PUSH17 0x139BDD08195B9BDD59DA081C1C9BD99A5D PUSH1 0x7A SHL PUSH1 0x44 DUP3 ADD MSTORE PUSH1 0x64 SWAP1 REVERT JUMPDEST DUP1 PUSH1 0x17 PUSH32 0x4641494C3A204E6F7420656E6F7567682070726F666974000000000000000000 SWAP3 MLOAD SWAP4 DUP1 DUP6 MSTORE DUP5 ADD MSTORE DUP3 ADD MSTORE LOG1 DUP11 DUP11 DUP15 DUP15 PUSH2 0x823 JUMP JUMPDEST SWAP3 POP PUSH2 0x96D SWAP5 PUSH3 0xFFFFFF SWAP2 MLOAD AND SWAP3 MLOAD AND SWAP2 PUSH32 0x0 PUSH2 0xC24 JUMP JUMPDEST SWAP12 PUSH2 0x807 JUMP JUMPDEST PUSH3 0xFFFFFF PUSH2 0x9A9 SWAP4 DUP14 MLOAD AND SWAP2 MLOAD AND SWAP1 DUP14 PUSH32 0x0 PUSH2 0xC24 JUMP JUMPDEST SWAP12 PUSH2 0x7B6 JUMP JUMPDEST DUP5 DUP1 REVERT JUMPDEST POP DUP11 MLOAD PUSH3 0x461BCD PUSH1 0xE5 SHL DUP2 MSTORE DUP1 DUP5 ADD DUP14 SWAP1 MSTORE PUSH1 0x19 DUP2 DUP8 ADD MSTORE PUSH32 0x4E6F7420696E6974696174656420627920636F6E747261637400000000000000 PUSH1 0x44 DUP3 ADD MSTORE PUSH1 0x64 SWAP1 REVERT JUMPDEST DUP1 PUSH1 0x1F PUSH32 0x4641494C3A204E6F7420696E6974696174656420627920636F6E747261637400 SWAP3 MLOAD SWAP4 DUP1 DUP6 MSTORE DUP5 ADD MSTORE DUP3 ADD MSTORE LOG1 DUP12 DUP12 DUP16 DUP16 PUSH2 0x622 JUMP JUMPDEST POP DUP11 MLOAD PUSH3 0x461BCD PUSH1 0xE5 SHL DUP2 MSTORE DUP1 DUP5 ADD DUP14 SWAP1 MSTORE PUSH1 0x17 DUP2 DUP8 ADD MSTORE PUSH32 0x4F6E6C79204161766520706F6F6C2063616E2063616C6C000000000000000000 PUSH1 0x44 DUP3 ADD MSTORE PUSH1 0x64 SWAP1 REVERT JUMPDEST DUP1 PUSH1 0x1D PUSH32 0x4641494C3A204E6F742063616C6C6564206279204161766520706F6F6C000000 SWAP3 MLOAD SWAP4 DUP1 DUP6 MSTORE DUP5 ADD MSTORE DUP3 ADD MSTORE LOG1 DUP12 DUP12 DUP16 DUP16 PUSH2 0x60C JUMP JUMPDEST CALLVALUE PUSH2 0x2BA JUMPI PUSH1 0x0 CALLDATASIZE PUSH1 0x3 NOT ADD SLT PUSH2 0x2BA JUMPI PUSH1 0x40 MLOAD PUSH32 0x0 PUSH1 0x1 PUSH1 0x1 PUSH1 0xA0 SHL SUB AND DUP2 MSTORE PUSH1 0x20 SWAP1 RETURN JUMPDEST PUSH1 0x4 CALLDATALOAD SWAP1 PUSH1 0x1 PUSH1 0x1 PUSH1 0xA0 SHL SUB DUP3 AND DUP3 SUB PUSH2 0x2BA JUMPI JUMP JUMPDEST CALLVALUE PUSH2 0x2BA JUMPI PUSH1 0x0 CALLDATASIZE PUSH1 0x3 NOT ADD SLT PUSH2 0x2BA JUMPI PUSH1 0x40 MLOAD PUSH32 0x0 PUSH1 0x1 PUSH1 0x1 PUSH1 0xA0 SHL SUB AND DUP2 MSTORE PUSH1 0x20 SWAP1 RETURN JUMPDEST ISZERO PUSH2 0xB54 JUMPI JUMP JUMPDEST PUSH1 0x40 MLOAD PUSH3 0x461BCD PUSH1 0xE5 SHL DUP2 MSTORE PUSH1 0x20 PUSH1 0x4 DUP3 ADD MSTORE PUSH1 0x9 PUSH1 0x24 DUP3 ADD MSTORE PUSH9 0x2737BA1037BBB732B9 PUSH1 0xB9 SHL PUSH1 0x44 DUP3 ADD MSTORE PUSH1 0x64 SWAP1 REVERT JUMPDEST PUSH1 0xA0 DUP2 ADD SWAP1 DUP2 LT PUSH8 0xFFFFFFFFFFFFFFFF DUP3 GT OR PUSH2 0xBA1 JUMPI PUSH1 0x40 MSTORE JUMP JUMPDEST PUSH4 0x4E487B71 PUSH1 0xE0 SHL PUSH1 0x0 MSTORE PUSH1 0x41 PUSH1 0x4 MSTORE PUSH1 0x24 PUSH1 0x0 REVERT JUMPDEST SWAP1 PUSH1 0x1F DUP1 NOT SWAP2 ADD AND DUP2 ADD SWAP1 DUP2 LT PUSH8 0xFFFFFFFFFFFFFFFF DUP3 GT OR PUSH2 0xBA1 JUMPI PUSH1 0x40 MSTORE JUMP JUMPDEST MLOAD SWAP1 PUSH3 0xFFFFFF DUP3 AND DUP3 SUB PUSH2 0x2BA JUMPI JUMP JUMPDEST SWAP2 SWAP1 DUP3 ADD DUP1 SWAP3 GT PUSH2 0xBF6 JUMPI JUMP JUMPDEST PUSH4 0x4E487B71 PUSH1 0xE0 SHL PUSH1 0x0 MSTORE PUSH1 0x11 PUSH1 0x4 MSTORE PUSH1 0x24 PUSH1 0x0 REVERT JUMPDEST SWAP1 DUP2 PUSH1 0x20 SWAP2 SUB SLT PUSH2 0x2BA JUMPI MLOAD DUP1 ISZERO ISZERO DUP2 SUB PUSH2 0x2BA JUMPI SWAP1 JUMP JUMPDEST PUSH1 0x40 DUP1 MLOAD PUSH4 0x95EA7B3 PUSH1 0xE0 SHL DUP2 MSTORE PUSH1 0x1 PUSH1 0x1 PUSH1 0xA0 SHL SUB SWAP3 DUP4 AND PUSH1 0x4 DUP3 ADD DUP2 SWAP1 MSTORE PUSH1 0x24 DUP3 ADD DUP9 SWAP1 MSTORE SWAP2 SWAP7 SWAP5 SWAP4 SWAP1 SWAP3 AND SWAP2 PUSH1 0x20 DUP2 PUSH1 0x44 DUP2 PUSH1 0x0 DUP8 GAS CALL DUP1 ISZERO PUSH2 0xD98 JUMPI PUSH2 0xD79 JUMPI JUMPDEST POP DUP6 MLOAD SWAP1 PUSH2 0x100 DUP3 ADD SWAP1 DUP3 DUP3 LT PUSH8 0xFFFFFFFFFFFFFFFF DUP4 GT OR PUSH2 0xBA1 JUMPI SWAP1 DUP8 MSTORE SWAP2 DUP2 MSTORE PUSH1 0x1 PUSH1 0x1 PUSH1 0xA0 SHL SUB SWAP3 DUP4 AND PUSH1 0x20 DUP3 DUP2 ADD SWAP2 DUP3 MSTORE PUSH3 0xFFFFFF SWAP7 DUP8 AND DUP4 DUP10 ADD SWAP1 DUP2 MSTORE ADDRESS PUSH1 0x60 DUP6 ADD SWAP1 DUP2 MSTORE TIMESTAMP PUSH1 0x80 DUP7 ADD SWAP1 DUP2 MSTORE PUSH1 0xA0 DUP7 ADD SWAP9 DUP10 MSTORE PUSH1 0x0 PUSH1 0xC0 DUP8 ADD DUP2 DUP2 MSTORE PUSH1 0xE0 DUP9 ADD DUP3 DUP2 MSTORE DUP14 MLOAD PUSH4 0x414BF389 PUSH1 0xE0 SHL DUP2 MSTORE SWAP9 MLOAD DUP12 AND PUSH1 0x4 DUP11 ADD MSTORE SWAP7 MLOAD DUP11 AND PUSH1 0x24 DUP10 ADD MSTORE SWAP4 MLOAD SWAP1 SWAP11 AND PUSH1 0x44 DUP8 ADD MSTORE SWAP1 MLOAD DUP8 AND PUSH1 0x64 DUP7 ADD MSTORE MLOAD PUSH1 0x84 DUP6 ADD MSTORE SWAP6 MLOAD PUSH1 0xA4 DUP5 ADD MSTORE SWAP5 MLOAD PUSH1 0xC4 DUP4 ADD MSTORE MLOAD SWAP1 SWAP3 AND PUSH1 0xE4 DUP4 ADD MSTORE SWAP1 SWAP3 DUP4 SWAP2 PUSH2 0x104 SWAP2 DUP4 SWAP2 GAS CALL SWAP2 DUP3 ISZERO PUSH2 0xD6F JUMPI POP PUSH1 0x0 SWAP2 PUSH2 0xD40 JUMPI POP SWAP1 JUMP JUMPDEST SWAP1 POP PUSH1 0x20 DUP2 RETURNDATASIZE PUSH1 0x20 GT PUSH2 0xD67 JUMPI JUMPDEST DUP2 PUSH2 0xD5B PUSH1 0x20 SWAP4 DUP4 PUSH2 0xBB7 JUMP JUMPDEST DUP2 ADD SUB SLT PUSH2 0x2BA JUMPI MLOAD SWAP1 JUMP JUMPDEST RETURNDATASIZE SWAP2 POP PUSH2 0xD4E JUMP JUMPDEST MLOAD RETURNDATASIZE PUSH1 0x0 DUP3 RETURNDATACOPY RETURNDATASIZE SWAP1 REVERT JUMPDEST PUSH2 0xD91 SWAP1 PUSH1 0x20 RETURNDATASIZE PUSH1 0x20 GT PUSH2 0x248 JUMPI PUSH2 0x239 DUP2 DUP4 PUSH2 0xBB7 JUMP JUMPDEST POP CODESIZE PUSH2 0xC69 JUMP JUMPDEST DUP8 MLOAD RETURNDATASIZE PUSH1 0x0 DUP3 RETURNDATACOPY RETURNDATASIZE SWAP1 REVERT INVALID LOG2 PUSH5 0x6970667358 0x22 SLT KECCAK256 PUSH18 0xE13DE060742F024C44F55F5EE6D7A33C44B8 0x4F 0xDB DUP7 SMOD 0xD5 CALLCODE SWAP10 0xC8 0xE0 0xC5 PUSH19 0x148664736F6C63430008140033000000000000 "},"methodIdentifiers":{"ADDRESSES_PROVIDER()":"0542975c","POOL()":"7535d246","aavePool()":"a03e4bc3","addressesProvider()":"c72c4d10","executeArbitrage(address,uint256,address,uint24,uint24,uint256,uint8)":"3d973427","executeOperation(address,uint256,uint256,address,bytes)":"1b11d0ff","owner()":"8da5cb5b","sushiswapRouter()":"e9240c2d","uniswapRouter()":"735de9f7","withdraw(address)":"51cff8d9"}}}}}