{
  "_format": "hh-sol-artifact-1",
  "contractName": "FlashLoanArbitrageur",
  "sourceName": "contracts/FlashLoanArbitrageur.sol",
  "abi": [
    {
      "inputs": [],
      "stateMutability": "nonpayable",
      "type": "constructor"
    },
    {
      "anonymous": false,
      "inputs": [
        {
          "indexed": true,
          "internalType": "address",
          "name": "initiator",
          "type": "address"
        },
        {
          "indexed": false,
          "internalType": "address",
          "name": "asset",
          "type": "address"
        },
        {
          "indexed": false,
          "internalType": "uint256",
          "name": "profit",
          "type": "uint256"
        }
      ],
      "name": "ArbitrageExecuted",
      "type": "event"
    },
    {
      "anonymous": false,
      "inputs": [
        {
          "indexed": false,
          "internalType": "string",
          "name": "message",
          "type": "string"
        }
      ],
      "name": "Debug",
      "type": "event"
    },
    {
      "inputs": [],
      "name": "owner",
      "outputs": [
        {
          "internalType": "address",
          "name": "",
          "type": "address"
        }
      ],
      "stateMutability": "view",
      "type": "function"
    },
    {
      "inputs": [
        {
          "internalType": "address",
          "name": "pool",
          "type": "address"
        },
        {
          "internalType": "uint256",
          "name": "amount0",
          "type": "uint256"
        },
        {
          "internalType": "uint256",
          "name": "amount1",
          "type": "uint256"
        },
        {
          "internalType": "address",
          "name": "tokenMid",
          "type": "address"
        },
        {
          "internalType": "uint24",
          "name": "fee1",
          "type": "uint24"
        },
        {
          "internalType": "uint24",
          "name": "fee2",
          "type": "uint24"
        },
        {
          "internalType": "uint256",
          "name": "minProfit",
          "type": "uint256"
        },
        {
          "internalType": "uint8",
          "name": "direction",
          "type": "uint8"
        },
        {
          "internalType": "address",
          "name": "uniswapRouter",
          "type": "address"
        },
        {
          "internalType": "address",
          "name": "sushiswapRouter",
          "type": "address"
        }
      ],
      "name": "startUniswapV3Flash",
      "outputs": [],
      "stateMutability": "nonpayable",
      "type": "function"
    },
    {
      "inputs": [
        {
          "internalType": "uint256",
          "name": "fee0",
          "type": "uint256"
        },
        {
          "internalType": "uint256",
          "name": "fee1",
          "type": "uint256"
        },
        {
          "internalType": "bytes",
          "name": "data",
          "type": "bytes"
        }
      ],
      "name": "uniswapV3FlashCallback",
      "outputs": [],
      "stateMutability": "nonpayable",
      "type": "function"
    },
    {
      "inputs": [
        {
          "internalType": "address",
          "name": "token",
          "type": "address"
        }
      ],
      "name": "withdraw",
      "outputs": [],
      "stateMutability": "nonpayable",
      "type": "function"
    }
  ],
  "bytecode": "0x6080806040523461002857600080546001600160a01b031916331790556111f3908161002e8239f35b600080fdfe6080604052600436101561001257600080fd5b6000803560e01c806351cff8d914610b1857806385d8609d146107aa5780638da5cb5b146107835763e9cbafb01461004957600080fd5b346107805760603660031901126107805760443567ffffffffffffffff80821161077c573660238301121561077c57816004013590811161077c57810136602482011161077c57816101409160008051602061119e833981519152606060405160208152601c60208201527f537461727420756e69737761705633466c61736843616c6c6261636b000000006040820152a1031261077857604051906100ee82610cb8565b6100fa60248201610c5c565b9081835261010a60448201610c5c565b602084015261011b60648201610c5c565b604084015261012c60848201610c70565b606084015261013d60a48201610c70565b608084015260c481013560a084015260e481013560ff811681036104df57849261019961014460249460209460c089015261017b6101048201610c5c565b60e089015261018d6101248201610c5c565b61010089015201610c5c565b6101208601526040516370a0823160e01b815230600482015292839182906001600160a01b03165afa90811561076d578291610737575b506020838101516040516370a0823160e01b8152306004820152929190839060249082906001600160a01b03165afa91821561072c5783926106f5575b5080158015906106ef57815b60008051602061119e83398151915261029b61023483610dd8565b610287603760405180937f526563656976656420666c61736820616d6f756e743a2000000000000000000060208301526102778151809260208686019101610d2c565b8101036017810184520182610ceb565b604051918291602083526020830190610d4f565b0390a160c086015160ff1661067f5760e08601518651604088015160608901516103149462ffffff946102e3949193928616926001600160a01b039081169281169116610f40565b610100880151604089015160208a015160808b01519394909316926001600160a01b03908116929181169116610f40565b505b1561067657610328815b600435610d74565b821561066c578361033c845b602435610d74565b9180610606575b50508061057d575b5060c08401516024935060ff166104f757506020838101516040516370a0823160e01b815230600482015293849182906001600160a01b03165afa9182156104ec5784926104b1575b50906103a66103ab9260243592610daf565b610daf565b60a082015181106104785761012082015160c08301516001600160a01b03909116927f546205492ce144edebd2cc39035c50dbd9aebfec90cbcae9c9ae2914d1e130f7929160ff1661046957602001516001600160a01b03165b604080516001600160a01b039290921682526020820192909252a260008051602061119e833981519152606060405160208152601f60208201527f4172626974726167652066696e6973686564207375636365737366756c6c79006040820152a180f35b516001600160a01b0316610405565b60405162461bcd60e51b8152602060048201526011602482015270139bdd08195b9bdd59da081c1c9bd99a5d607a1b6044820152606490fd5b91506020823d6020116104e4575b816104cc60209383610ceb565b810103126104df579051906103a6610394565b600080fd5b3d91506104bf565b6040513d86823e3d90fd5b83516040516370a0823160e01b815230600482015293919250602091849182906001600160a01b03165afa9182156104ec578492610547575b50906103a66105429260043592610daf565b6103ab565b91506020823d602011610575575b8161056260209383610ceb565b810103126104df579051906103a6610530565b3d9150610555565b60208581015160405163a9059cbb60e01b815233600482015260248101939093529194909185916044918391906001600160a01b03165af19283156105fb576024936105cc575b85935061034b565b6105ed9060203d6020116105f4575b6105e58183610ceb565b810190610d97565b50386105c4565b503d6105db565b6040513d87823e3d90fd5b865160405163a9059cbb60e01b81523360048201526024810192909252909160209183916044918391906001600160a01b03165af180156105fb5761064d575b8490610343565b6106659060203d6020116105f4576105e58183610ceb565b5038610646565b8361033c81610334565b61032883610320565b60e08601516020870151604088015160608901516106e99462ffffff946106bb949193928616926001600160a01b039081169281169116610f40565b6101008801516040890151895160808b01519394909316926001600160a01b03908116929181169116610f40565b50610316565b82610219565b925090506020823d602011610724575b8161071260209383610ceb565b810103126104df57839151903861020d565b3d9150610705565b6040513d85823e3d90fd5b9150506020813d602011610765575b8161075360209383610ceb565b810103126104df5751829060246101d0565b3d9150610746565b6040513d84823e3d90fd5b5080fd5b8280fd5b80fd5b5034610780578060031936011261078057546040516001600160a01b039091168152602090f35b503461078057610140366003190112610780576107c5610c46565b606435906001600160a01b038216820361077c576084359162ffffff83168303610b145760a43562ffffff81168103610b105760e43560ff81168103610b0c5761010435906001600160a01b0382168203610b085761012435926001600160a01b0384168403610b045761084360018060a01b038954163314610c80565b604051630dfe168160e01b8152966020886004816001600160a01b038b165afa978815610af9578998610ad8575b5060405163d21220a760e01b8152956020876004816001600160a01b038c165afa968715610acd578a97610a8c575b509162ffffff809260ff9594604051996108b98b610cb8565b60018060a01b038d168b5260018060a01b031660208b015260018060a01b031660408a015216606088015216608086015260c43560a08601521660c084015260018060a01b031660e083015260018060a01b0316610100820152336101208201526040519260018060a01b0316602084015260018060a01b03602082015116604084015260018060a01b03604082015116606084015262ffffff606082015116608084015262ffffff60808201511660a084015260a081015160c084015260ff60c08201511660e084015260018060a01b0360e08201511661010084015260018060a01b036101008201511661012084015261012060018060a01b0391015116610140830152610140825261016082019167ffffffffffffffff8311918184108317610a785760408490528491906001600160a01b0381163b1561077c576312439b2f60e21b8552306101648301526024356101848301526044356101a483015260806101c483015284918290849061015f1990610a3b6101e4820182610d4f565b0301926001600160a01b03165af1801561072c57610a57578280f35b610a645760405238808280f35b634e487b7160e01b82526041600452602482fd5b634e487b7160e01b85526041600452602485fd5b60ff949391975062ffffff92610aba849260203d602011610ac6575b610ab28183610ceb565b810190610d0d565b989294955092506108a0565b503d610aa8565b6040513d8c823e3d90fd5b610af291985060203d602011610ac657610ab28183610ceb565b9638610871565b6040513d8b823e3d90fd5b8780fd5b8680fd5b8580fd5b8480fd5b8380fd5b50346107805760208060031936011261077857610b33610c46565b82546001600160a01b0390811691610b4c338414610c80565b16604051916370a0823160e01b83523060048401528383602481855afa9283156105fb578593610c17575b508215610bdc5760405163a9059cbb60e01b81526001600160a01b03919091166004820152602481019290925282908290604490829087905af1801561072c57610bbf578280f35b81610bd592903d106105f4576105e58183610ceb565b5038808280f35b60405162461bcd60e51b81526004810185905260136024820152724e6f7468696e6720746f20776974686472617760681b6044820152606490fd5b9092508381813d8311610c3f575b610c2f8183610ceb565b81010312610b1057519138610b77565b503d610c25565b600435906001600160a01b03821682036104df57565b35906001600160a01b03821682036104df57565b359062ffffff821682036104df57565b15610c8757565b60405162461bcd60e51b81526020600482015260096024820152682737ba1037bbb732b960b91b6044820152606490fd5b610140810190811067ffffffffffffffff821117610cd557604052565b634e487b7160e01b600052604160045260246000fd5b90601f8019910116810190811067ffffffffffffffff821117610cd557604052565b908160209103126104df57516001600160a01b03811681036104df5790565b60005b838110610d3f5750506000910152565b8181015183820152602001610d2f565b90602091610d6881518092818552858086019101610d2c565b601f01601f1916010190565b91908201809211610d8157565b634e487b7160e01b600052601160045260246000fd5b908160209103126104df575180151581036104df5790565b91908203918211610d8157565b67ffffffffffffffff8111610cd557601f01601f191660200190565b806000917a184f03e93ff9f4daa797ed6e38ed64bf6a1f01000000000000000080821015610f32575b506d04ee2d6d415b85acef810000000080831015610f23575b50662386f26fc1000080831015610f14575b506305f5e10080831015610f05575b5061271080831015610ef6575b506064821015610ee6575b600a80921015610edc575b60019081602181860195610e7187610dbc565b96610e7f6040519889610ceb565b808852610e8e601f1991610dbc565b01366020890137860101905b610ea6575b5050505090565b600019019083906f181899199a1a9b1b9c1cb0b131b232b360811b8282061a835304918215610ed757919082610e9a565b610e9f565b9160010191610e5e565b9190606460029104910191610e53565b60049193920491019138610e48565b60089193920491019138610e3b565b60109193920491019138610e2c565b60209193920491019138610e1a565b604093508104915038610e01565b6040805163095ea7b360e01b81526001600160a01b0392831660048201819052602482018890526020979296939560009587169491939290919089816044818a8a5af1801561119357611176575b50875194610100860186811067ffffffffffffffff821117611162579388938489948c948e9a999886528952818a8a01931683528489019062ffffff16815260608901903082528260808b019442865260a08c0196875260c08c019789895260e08d01998a52519e8f9c8d63414bf38960e01b9052511660048d0152511660248b01525162ffffff1660448a0152511660648801525160848701525160a48601525160c4850152511660e483015281845a9261010493f190918282611130575b50506110bf576064838360008051602061119e833981519152606082518481526015858201527429bbb0b8103932bb32b93a1037b7103937baba32b960591b84820152a1519062461bcd60e51b82526004820152600b60248201526a14ddd85c0819985a5b195960aa1b6044820152fd5b9060008051602061119e833981519152919261112a6110dd85610dd8565b9261111b602a8251809669029bbb0b81037baba1d160b51b8783015261110b81518092898686019101610d2c565b810103600a810187520185610ceb565b51928284938452830190610d4f565b0390a190565b909192508482813d831161115b575b6111498183610ceb565b8101031261078057505190388061104e565b503d61113f565b634e487b7160e01b88526041600452602488fd5b61118c908a3d8c116105f4576105e58183610ceb565b5038610f8e565b89513d89823e3d90fdfe7cdb51e9dbbc205231228146c3246e7f914aa6d4a33170e43ecc8e3593481d1aa264697066735822122051a12e814ea1824482adc6689154e431a1f9a11cc914663f8f87c843db4a693364736f6c63430008140033",
  "linkReferences": {},
  "deployedLinkReferences": {}
}