{
  "_format": "hh-sol-artifact-1",
  "contractName": "FlashLoanArbitrageur",
  "sourceName": "contracts/FlashLoanArbitrageur.sol",
  "abi": [
    {
      "inputs": [],
      "stateMutability": "nonpayable",
      "type": "constructor"
    },
    {
      "anonymous": false,
      "inputs": [
        {
          "indexed": true,
          "internalType": "address",
          "name": "initiator",
          "type": "address"
        },
        {
          "indexed": false,
          "internalType": "address",
          "name": "asset",
          "type": "address"
        },
        {
          "indexed": false,
          "internalType": "uint256",
          "name": "profit",
          "type": "uint256"
        }
      ],
      "name": "ArbitrageExecuted",
      "type": "event"
    },
    {
      "anonymous": false,
      "inputs": [
        {
          "indexed": false,
          "internalType": "string",
          "name": "message",
          "type": "string"
        }
      ],
      "name": "Debug",
      "type": "event"
    },
    {
      "inputs": [],
      "name": "owner",
      "outputs": [
        {
          "internalType": "address",
          "name": "",
          "type": "address"
        }
      ],
      "stateMutability": "view",
      "type": "function"
    },
    {
      "inputs": [
        {
          "internalType": "address",
          "name": "pool",
          "type": "address"
        },
        {
          "internalType": "uint256",
          "name": "amount0",
          "type": "uint256"
        },
        {
          "internalType": "uint256",
          "name": "amount1",
          "type": "uint256"
        },
        {
          "internalType": "address",
          "name": "tokenMid",
          "type": "address"
        },
        {
          "internalType": "uint24",
          "name": "fee1",
          "type": "uint24"
        },
        {
          "internalType": "uint24",
          "name": "fee2",
          "type": "uint24"
        },
        {
          "internalType": "uint256",
          "name": "minProfit",
          "type": "uint256"
        },
        {
          "internalType": "uint8",
          "name": "direction",
          "type": "uint8"
        },
        {
          "internalType": "address",
          "name": "uniswapRouter",
          "type": "address"
        },
        {
          "internalType": "address",
          "name": "sushiswapRouter",
          "type": "address"
        }
      ],
      "name": "startUniswapV3Flash",
      "outputs": [],
      "stateMutability": "nonpayable",
      "type": "function"
    },
    {
      "inputs": [
        {
          "internalType": "uint256",
          "name": "fee0",
          "type": "uint256"
        },
        {
          "internalType": "uint256",
          "name": "fee1",
          "type": "uint256"
        },
        {
          "internalType": "bytes",
          "name": "data",
          "type": "bytes"
        }
      ],
      "name": "uniswapV3FlashCallback",
      "outputs": [],
      "stateMutability": "nonpayable",
      "type": "function"
    },
    {
      "inputs": [
        {
          "internalType": "address",
          "name": "token",
          "type": "address"
        }
      ],
      "name": "withdraw",
      "outputs": [],
      "stateMutability": "nonpayable",
      "type": "function"
    }
  ],
  "bytecode": "0x6080806040523461002857600080546001600160a01b031916331790556119c5908161002e8239f35b600080fdfe6080604052600436101561001257600080fd5b6000803560e01c806351cff8d914610da857806385d8609d14610a4a5780638da5cb5b14610a235763e9cbafb01461004957600080fd5b34610a20576060366003190112610a205760443567ffffffffffffffff808211610a1c5736602383011215610a1c578160040135908111610a1c578101366024820111610a1c578161014091600080516020611970833981519152606060405160208152601c60208201527f537461727420756e69737761705633466c61736843616c6c6261636b000000006040820152a10312610a1857604051906100ee82610f48565b6100fa60248201610eec565b825261010860448201610eec565b602083015261011960648201610eec565b604083015261012a60848201610f00565b606083015261013b60a48201610f00565b608083015260c481013560a083015260e481013560ff8116810361069b57610191916101449160c08501526101736101048201610eec565b60e08501526101856101248201610eec565b61010085015201610eec565b610120820152604051630dfe168160e01b8152602081600481335afa8391816109e7575b506101f65760405162461bcd60e51b8152602060048201526014602482015273496e76616c696420706f6f6c206164647265737360601b6044820152606490fd5b81516001600160a01b039081169116036109ac5780516040516370a0823160e01b815230600482015290602090829060249082906001600160a01b03165afa9081156109a157839161096f575b506020828101516040516370a0823160e01b81523060048201529190829060249082906001600160a01b03165afa9081156106a857849161093d575b50811561093657815b82156108f857826000805160206119708339815191526103126102ab8896611084565b6102fe603760405180937f526563656976656420666c61736820616d6f756e743a2000000000000000000060208301526102ee8151809260208686019101610fd8565b8101036017810184520182610f97565b604051918291602083526020830190610ffb565b0390a18451600080516020611970833981519152906103bd9061033d906001600160a01b0316611890565b60208801516102fe9060319061035b906001600160a01b0316611890565b926040519384916702a37b5b2b7181d160c51b6020840152610387815180926020602887019101610fd8565b8201680102a37b5b2b7189d160bd1b60288201526103ae8251809360208785019101610fd8565b01036011810184520182610f97565b0390a160c085015160ff166108ab576000805160206119708339815191526104566040516103ea81610f7b565b601881527f546f6b656e302d3e546f6b656e4d69642d3e546f6b656e31000000000000000060208201525b6102fe602b60405180936a02234b932b1ba34b7b71d160ad1b60208301526104468151809260208686019101610fd8565b810103600b810184520182610f97565b0390a160c085015160ff1661083b5760e08501518551604087015160608801516104cf9462ffffff9461049e949193928616926001600160a01b03908116928116911661128e565b6101008701516040880151602089015160808a01519394909316926001600160a01b0390811692918116911661128e565b505b8015610832576104e4815b60043561103c565b821561082857836104f8845b60243561103c565b91806107c2575b505080610739575b5060c08401516024935060ff166106b357506020838101516040516370a0823160e01b815230600482015293849182906001600160a01b03165afa9182156106a857849261066d575b50906105626105679260243592611077565b611077565b60a082015181106106345761012082015160c08301516001600160a01b03909116927f546205492ce144edebd2cc39035c50dbd9aebfec90cbcae9c9ae2914d1e130f7929160ff1661062557602001516001600160a01b03165b604080516001600160a01b039290921682526020820192909252a2600080516020611970833981519152606060405160208152601f60208201527f4172626974726167652066696e6973686564207375636365737366756c6c79006040820152a180f35b516001600160a01b03166105c1565b60405162461bcd60e51b8152602060048201526011602482015270139bdd08195b9bdd59da081c1c9bd99a5d607a1b6044820152606490fd5b91506020823d6020116106a0575b8161068860209383610f97565b8101031261069b57905190610562610550565b600080fd5b3d915061067b565b6040513d86823e3d90fd5b83516040516370a0823160e01b815230600482015293919250602091849182906001600160a01b03165afa9182156106a8578492610703575b50906105626106fe9260043592611077565b610567565b91506020823d602011610731575b8161071e60209383610f97565b8101031261069b579051906105626106ec565b3d9150610711565b60208581015160405163a9059cbb60e01b815233600482015260248101939093529194909185916044918391906001600160a01b03165af19283156107b757602493610788575b859350610507565b6107a99060203d6020116107b0575b6107a18183610f97565b81019061105f565b5038610780565b503d610797565b6040513d87823e3d90fd5b865160405163a9059cbb60e01b81523360048201526024810192909252909160209183916044918391906001600160a01b03165af180156107b757610809575b84906104ff565b6108219060203d6020116107b0576107a18183610f97565b5038610802565b836104f8816104f0565b6104e4836104dc565b60e08501516020860151604087015160608801516108a59462ffffff94610877949193928616926001600160a01b03908116928116911661128e565b6101008701516040880151885160808a01519394909316926001600160a01b0390811692918116911661128e565b506104d1565b6000805160206119708339815191526104566040516108c981610f7b565b601881527f546f6b656e312d3e546f6b656e4d69642d3e546f6b656e3000000000000000006020820152610415565b60405162461bcd60e51b8152602060048201526016602482015275139bc8199b185cda081b1bd85b881c9958d95a5d995960521b6044820152606490fd5b8091610288565b90506020813d602011610967575b8161095860209383610f97565b8101031261069b57513861027f565b3d915061094b565b90506020813d602011610999575b8161098a60209383610f97565b8101031261069b575138610243565b3d915061097d565b6040513d85823e3d90fd5b60405162461bcd60e51b81526020600482015260136024820152720496e76616c696420706f6f6c20746f6b656e3606c1b6044820152606490fd5b610a0a91925060203d602011610a11575b610a028183610f97565b810190610fb9565b90386101b5565b503d6109f8565b5080fd5b8280fd5b80fd5b5034610a205780600319360112610a2057546040516001600160a01b039091168152602090f35b5034610a2057610140366003190112610a2057610a65610ed6565b606435906001600160a01b0382168203610a1c576084359162ffffff83168303610da45760a43562ffffff81168103610da05760e43560ff81168103610d9c5761010435906001600160a01b0382168203610d985761012435926001600160a01b0384168403610d9457610ae360018060a01b038954163314610f10565b604051630dfe168160e01b8152966020886004816001600160a01b038b165afa978815610d89578998610d68575b5060405163d21220a760e01b8152956020876004816001600160a01b038c165afa968715610d5d578a97610d2c575b509162ffffff809260ff959460405199610b598b610f48565b60018060a01b038d168b5260018060a01b031660208b015260018060a01b031660408a015216606088015216608086015260c43560a08601521660c084015260018060a01b031660e083015260018060a01b0316610100820152336101208201526040519260018060a01b0316602084015260018060a01b03602082015116604084015260018060a01b03604082015116606084015262ffffff606082015116608084015262ffffff60808201511660a084015260a081015160c084015260ff60c08201511660e084015260018060a01b0360e08201511661010084015260018060a01b036101008201511661012084015261012060018060a01b0391015116610140830152610140825261016082019167ffffffffffffffff8311918184108317610d185760408490528491906001600160a01b0381163b15610a1c576312439b2f60e21b8552306101648301526024356101848301526044356101a483015260806101c483015284918290849061015f1990610cdb6101e4820182610ffb565b0301926001600160a01b03165af180156109a157610cf7578280f35b610d045760405238808280f35b634e487b7160e01b82526041600452602482fd5b634e487b7160e01b85526041600452602485fd5b60ff949391975062ffffff92610d51849260203d602011610a1157610a028183610f97565b98929495509250610b40565b6040513d8c823e3d90fd5b610d8291985060203d602011610a1157610a028183610f97565b9638610b11565b6040513d8b823e3d90fd5b8780fd5b8680fd5b8580fd5b8480fd5b8380fd5b5034610a2057602080600319360112610a1857610dc3610ed6565b82546001600160a01b0390811691610ddc338414610f10565b16604051916370a0823160e01b83523060048401528383602481855afa9283156107b7578593610ea7575b508215610e6c5760405163a9059cbb60e01b81526001600160a01b03919091166004820152602481019290925282908290604490829087905af180156109a157610e4f578280f35b81610e6592903d106107b0576107a18183610f97565b5038808280f35b60405162461bcd60e51b81526004810185905260136024820152724e6f7468696e6720746f20776974686472617760681b6044820152606490fd5b9092508381813d8311610ecf575b610ebf8183610f97565b81010312610da057519138610e07565b503d610eb5565b600435906001600160a01b038216820361069b57565b35906001600160a01b038216820361069b57565b359062ffffff8216820361069b57565b15610f1757565b60405162461bcd60e51b81526020600482015260096024820152682737ba1037bbb732b960b91b6044820152606490fd5b610140810190811067ffffffffffffffff821117610f6557604052565b634e487b7160e01b600052604160045260246000fd5b6040810190811067ffffffffffffffff821117610f6557604052565b90601f8019910116810190811067ffffffffffffffff821117610f6557604052565b9081602091031261069b57516001600160a01b038116810361069b5790565b60005b838110610feb5750506000910152565b8181015183820152602001610fdb565b9060209161101481518092818552858086019101610fd8565b601f01601f1916010190565b67ffffffffffffffff8111610f6557601f01601f191660200190565b9190820180921161104957565b634e487b7160e01b600052601160045260246000fd5b9081602091031261069b5751801515810361069b5790565b9190820391821161104957565b806000917a184f03e93ff9f4daa797ed6e38ed64bf6a1f010000000000000000808210156111de575b506d04ee2d6d415b85acef8100000000808310156111cf575b50662386f26fc10000808310156111c0575b506305f5e100808310156111b1575b50612710808310156111a2575b506064821015611192575b600a80921015611188575b6001908160218186019561111d87611020565b9661112b6040519889610f97565b80885261113a601f1991611020565b01366020890137860101905b611152575b5050505090565b600019019083906f181899199a1a9b1b9c1cb0b131b232b360811b8282061a83530491821561118357919082611146565b61114b565b916001019161110a565b91906064600291049101916110ff565b600491939204910191386110f4565b600891939204910191386110e7565b601091939204910191386110d8565b602091939204910191386110c6565b6040935081049150386110ad565b600060443d1061124a57604051600319913d83016004833e815167ffffffffffffffff918282113d60248401111761124d57818401948551938411611255573d8501016020848701011161124d575061124a92910160200190610f97565b90565b949350505050565b50949350505050565b3d15611289573d9061126f82611020565b9161127d6040519384610f97565b82523d6000602084013e565b606090565b909192841561184b576040516370a0823160e01b81523060048201526020816024816001600160a01b0388165afa80156117b9578691600091611816575b50106117c55760405163095ea7b360e01b81526001600160a01b0383166004820152602481018690526020818060448101038160006001600160a01b0389165af180156117b95761179a575b506103e38581810204036110495760008051602061197083398151915261141961134187611084565b6102fe603b61134f88611890565b926113598a611890565b61136762ffffff8916611084565b906040519586936d029bbb0b81030ba3a32b6b83a1d160951b6020860152611399815180926020602e89019101610fd8565b8401600160fd1b602e8201526113b9825180936020602f85019101610fd8565b0163010169f160e51b602f8201526113db825180936020603385019101610fd8565b0166010143332b29d160cd1b6033820152611400825180936020603a85019101610fd8565b01602960f81b603a82015203601b810184520182610f97565b0390a161038442014211611049576040518061010081011067ffffffffffffffff61010083011117610f6557610100810160409081526001600160a01b039485168252858516602083810191825262ffffff948516838501908152306060860190815242610384016080870190815260a087019b8c52600060c0880181815260e08901828152975163414bf38960e01b815298518c1660048a015295518b16602489015292519097166044870152518816606486015294516084850152975160a48401525160c483015251841660e4820152949285926101049284929091166207a120f160009281611766575b5061168357600060033d11611675575b6308c379a0146115c5575b61152961125e565b50600080516020611970833981519152604051806115798160609060208152601e60208201527f53776170206661696c6564207769746820756e6b6e6f776e206572726f72000060408201520190565b0390a160405162461bcd60e51b815260206004820152601e60248201527f53776170206661696c6564207769746820756e6b6e6f776e206572726f7200006044820152606490fd5b0390fd5b6115cd6111ec565b806115d85750611521565b6115c190611655602d6040516c029bbb0b8103330b4b632b21d1609d1b908160208201526000805160206119708339815191526116388651926102fe868260208b0196611628818484018a610fd8565b810103600d810184520182610f97565b0390a1611628604051958693602085015251809285850190610fd8565b60405162461bcd60e51b8152602060048201529182916024830190610ffb565b600481803e5160e01c611516565b81156117215761171b600080516020611970833981519152916102fe60376116b36116ad87611084565b93611890565b9260405193849175029bbb0b81039bab1b1b2b9b9b33ab6171027baba1d160551b60208401526116ed815180926020603687019101610fd8565b8201600160fd1b603682015261170c8251809360208785019101610fd8565b01036017810184520182610f97565b0390a190565b60405162461bcd60e51b815260206004820152601b60248201527f5265636569766564207a65726f206f757470757420616d6f756e7400000000006044820152606490fd5b90926020823d602011611792575b8161178160209383610f97565b81010312610a205750519138611506565b3d9150611774565b6117b29060203d6020116107b0576107a18183610f97565b5038611318565b6040513d6000823e3d90fd5b60405162461bcd60e51b815260206004820152602360248201527f496e73756666696369656e7420746f6b656e2062616c616e636520666f72207360448201526207761760ec1b6064820152608490fd5b91506020823d602011611843575b8161183160209383610f97565b81010312610a205750859051386112cc565b3d9150611824565b60405162461bcd60e51b815260206004820152601d60248201527f416d6f756e74206d7573742062652067726561746572207468616e20300000006044820152606490fd5b6040516395d89b4160e01b60208083019182526004835292916118b281610f7b565b6000928392839251915afa906118c661125e565b9180611965575b6118f5575050662aa725a727aba760c91b604051916118eb83610f7b565b6007835282015290565b909182518301928181818601950312610a1c57818101519067ffffffffffffffff8211610da457019083603f83011215610a1c57808201519261193784611020565b946119456040519687610f97565b84865260408585010111610a20575090604061124a939285019101610fd8565b50815115156118cd56fe7cdb51e9dbbc205231228146c3246e7f914aa6d4a33170e43ecc8e3593481d1aa2646970667358221220352bd87b5860b1cfc5509b96c3fffc96b44a43f1aff054d64b8ae1efad86862664736f6c63430008140033",
  "linkReferences": {},
  "deployedLinkReferences": {}
}